:020000040000fa
:080000000002040000000000f2
:020000040000fa
:10040000af8020000e7f24000e0188000000000055
:1004100000012000200288000c000700405120004d
:100420000100200011000700000020000000e00093
:10043000020032000000020000000000ac030200d5
:10044000000000000040da000000fe004440a90067
:10045000000020000000e000030032000000200047
:10046000a00188004440a800000006009101880017
:10047000800078000000eb0015003700e2804000ab
:1004800032a0b4009101ba00e280400032a0b40072
:100490009102ba00e280400032a0b4000002eb00fa
:1004a000472bde00f507b200602ce10004003a00a3
:1004b0000059eb008301e900fdff3e000400370016
:1004c0006128e100010032000082eb000400070017
:1004d0001101ba000200e000e8ff3a000000060047
:1004e0003159ba008301e9000c0032002159ba00e9
:1004f0008301e900080032000400e00003003a0034
:10050000e280400032a0b400f5ff370011d9ba00f4
:100510008301e900faff3a008100e800e180400031
:1005200032a0b400000006000040da000000fe0027
:100530006022b800060220000000d0008180d200b6
:100540000482d2008582d2000000a0000202520084
:1005500083825a00030031000202420083824a0073
:100560000000a1000603e900f3ff3a0000000600c6
:100570000002780002003700015a78000201e90009
:0c058000e00f5100fcff3a0000000600f4
:020000040000fa
:100008009402000094020000940200009402000090
:100018009402000094020000940200009402000080
:100028009402000094020000940200009402000070
:100038009402000094020000940200009402000060
:100048009402000094020000940200005003000093
:100058009402000094020000940200009402000040
:100068009402000094020000940200009402000030
:100078009402000094020000940200009402000020
:100088009402000094020000940200009402000010
:100098009402000094020000940200009402000000
:1000a80094020000940200009402000094020000f0
:1000b80094020000940200009402000094020000e0
:1000c80094020000940200009402000094020000d0
:1000d80094020000940200009402000094020000c0
:1000e80094020000940200009402000094020000b0
:1000f80094020000940200009402000094020000a0
:10010800940200009402000094020000940200008f
:10011800940200009402000094020000940200007f
:10012800940200009402000094020000940200006f
:10013800940200009402000094020000940200005f
:10014800940200009402000094020000940200004f
:10015800940200009402000094020000940200003f
:10016800940200009402000094020000940200002f
:10017800940200009402000094020000940200001f
:10018800940200009402000094020000940200000f
:1001980094020000940200009402000094020000ff
:1001a80094020000940200009402000094020000ef
:1001b80094020000940200009402000094020000df
:1001c80094020000940200009402000094020000cf
:1001d80094020000940200009402000094020000bf
:1001e80094020000940200009402000094020000af
:0801f8009402000094020000d3
:020000040000fa
:10020800940200009402000094020000940200008e
:10021800940200009402000094020000940200007e
:10022800940200009402000094020000940200006e
:10023800940200009402000094020000940200005e
:100248009402000094020000940200005003000091
:10025800940200009402000094020000940200003e
:10026800940200009402000094020000940200002e
:10027800940200009402000094020000940200001e
:10028800940200009402000094020000940200000e
:1002980094020000940200009402000094020000fe
:1002a80094020000940200009402000094020000ee
:1002b80094020000940200009402000094020000de
:1002c80094020000940200009402000094020000ce
:1002d80094020000940200009402000094020000be
:1002e80094020000940200009402000094020000ae
:1002f800940200009402000094020000940200009e
:10030800940200009402000094020000940200008d
:10031800940200009402000094020000940200007d
:10032800940200009402000094020000940200006d
:10033800940200009402000094020000940200005d
:10034800940200009402000094020000940200004d
:10035800940200009402000094020000940200003d
:10036800940200009402000094020000940200002d
:10037800940200009402000094020000940200001d
:10038800940200009402000094020000940200000d
:1003980094020000940200009402000094020000fd
:1003a80094020000940200009402000094020000ed
:1003b80094020000940200009402000094020000dd
:1003c80094020000940200009402000094020000cd
:1003d80094020000940200009402000094020000bd
:1003e80094020000940200009402000094020000ad
:0803f8009402000094020000d1
:020000040000fa
:0200000401f009
:04001c00dfff000002
:020000040000fa
:0200000401f009
:04001800f7000000ed
:020000040000fa
:0200000401f009
:040014005f00000089
:020000040000fa
:0200000401f009
:04001000a10000004b
:020000040000fa
:0200000401f009
:04000c00830000006d
:020000040000fa
:0200000401f009
:0400080007000000ed
:020000040000fa
:0200000401f009
:04000400cf00000029
:020000040000fa
:0200000401f009
:04000000cf0000002d
:020000040000fa
:10058c000400fa00008fbe001e01be0000602100b6
:10059c0061022000e3ff07000002be0004027800a5
:1005ac000402e9004411880021e2a9002002a900fc
:1005bc00041180000410a1000420a1000411880083
:1005cc0020a2a9002062a900141180000460a100df
:1005dc000470a100141188008560a9009560a80022
:1005ec0021e2a8002342a8000080fa0000000600c7
:1005fc000000fa00153a8000f40b2000048362001e
:10060c00640420007505200027742000844b7800ba
:10061c00854b7800864b78002535800004fe2f0032
:10062c0004826200a400b300243588005536800093
:10063c00f40f2e00848262000430200004827200c9
:10064c0054368800153a800004042000048372009c
:10065c00640420007505200027742000844b78006a
:10066c00854b7800864b78000080fa00000006006d
:10067c000400fa00008fbe00ddff07001e00be0064
:10068c00bfff0700008020007f0007000080fa00f9
:10069c00000006003600f800809fbe00829fbe005e
:1006ac00849fbe00869fbe000200fa008560a900f0
:1006bc0034118000044f78009e40780000802000a8
:1006cc00a60007000080fa004f03be004f02be00d8
:1006dc004f01be004f00be003600f900004006007e
:1006ec000000fa000080200076000700004278002d
:1006fc000482fb000402e9004f22de000442780071
:10070c00044078000080fa00000006000200fa00a5
:10071c00004f78009e4278000582fb00241188006f
:10072c000080fa00000006000200fa0000802000a1
:10073c007200070000427800044f78001e427800d7
:10074c00044078000080fa00000006000600fa0061
:10075c009a000700ab00070000202c0011002000bd
:10076c00c3ff07000042eb00144798001e429000a4
:10077c00044f78000042eb00344798000042eb0035
:10078c00444798000100370000000000d4ff070028
:10079c0000427800e04f5200fbff3200e2ff0700fe
:1007ac0000427800244798009e4278000582fb00a6
:1007bc00cfa2de003600200007002000860f52007a
:1007cc00878f5a0022003e000460010003003700ae
:1007dc000c0037001000370014003700ae429000b8
:1007ec00a4c4b30084cf520003003a0014c0b30079
:1007fc00044f7800160037000042eb00044f7800dd
:10080c00130037002e4290003447980024c0b300e8
:10081c00044f78000e003700ae4290004547980018
:10082c0034c0b300044f780009003700ae4290008a
:10083c0034c5b30084cf520002003a0010c4b30098
:10084c00b2ff07000042eb00044f780000000000ec
:10085c00241680004422de00614262000404a200df
:10086c00614262000482fb00610262004422dd00ee
:10087c0026168000f5fe2f008502630004827200ac
:10088c0024168800c1ff37000200fa00000f780020
:10089c001e027800820020008000eb00040078002b
:1008ac0030ff07009e0278000042eb00844a98005b
:1008bc009e0278000042eb00944a98000080fa00f7
:1008cc00000006000200fa00000f78001e027800fb
:1008dc00844a90001e027800144a900004c26a00f8
:1008ec000482fb000402e9004f22de00044278007f
:1008fc00044078000080fa00000006000400fa00b2
:10090c00100798001e009000eeff070000427800d0
:10091c00e04f5200020032000042eb000c003700a6
:10092c001e029000144a90000482fb0067026200d1
:10093c009e029000654f7a001e029000144a9000af
:10094c000442e8009e029000944a98001e427800ef
:10095c00044078000080fa00000006000400fa0051
:10096c00000f7800214798001e007800d5ff070083
:10097c0000427800e04f52000d0032001e02780059
:10098c00044a90000482fb00670262009e02780019
:10099c002e43900086727a001e027800044a900062
:1009ac000442e8009e027800844a98000100370057
:1009bc00000000000080fa00000006000000fa00b1
:1009cc00253a800004fe2f00048262000420a0005f
:1009dc00243a8800353a800004e02f0084826200bb
:1009ec000408200004827200343a8800243a800003
:1009fc000460a1000470a100243a88000080fa0071
:100a0c00000006000000fa000082eb006419880068
:0c0a1c00c082a9000080fa000000060063
:020000040000fa
:100a2800000800000a0000000000000000000000ac
:00000001FF
