:020000040000fa
:080000000002040000000000f2
:020000040000fa
:100400006fea20000e7724000e0188000000000033
:1004100000012000200288000c000700a018220024
:100420000100200011000700000020000000e00093
:100430000200320000000200000000000428020058
:10044000000000000040da000000fe004440a90067
:10045000e02120000000e000030032000000200046
:10046000a00188004440a800000006009101880017
:10047000800078000000eb0015003700e2804000ab
:1004800032a0b4009101ba00e280400032a0b40072
:100490009102ba00e280400032a0b4000002eb00fa
:1004a000472bde00f507b200602ce10004003a00a3
:1004b0000059eb008301e900fdff3e000400370016
:1004c0006128e100010032000082eb000400070017
:1004d0001101ba000200e000e8ff3a000000060047
:1004e0003159ba008301e9000c0032002159ba00e9
:1004f0008301e900080032000400e00003003a0034
:10050000e280400032a0b400f5ff370011d9ba00f4
:100510008301e900faff3a008100e800e180400031
:1005200032a0b400000006000040da000000fe0027
:100530006022b800060220000000d0008180d200b6
:100540000482d2008582d2000000a0000202520084
:1005500083825a00030031000202420083824a0073
:100560000000a1000603e900f3ff3a0000000600c6
:10057000000278008042eb00b4cf1200fdff3a0089
:100580000080ea0000004200000006000c00fa00b3
:1005900000027800820278000000eb00e18f50003a
:1005a0000d0036008100e900f1bf9f00b0bf9f0041
:1005b000a4bf9f00c4bf9f00240c2000d4bf9f0095
:1005c00003017800850078006c805700c1000700a7
:1005d0002fba9700004aeb000080fa0000000600e6
:1005e0000800fa00889fbe008a9fbe000084fb00be
:1005f000d4c6b300844f5000340036004b062000b0
:10060000110009000b84d8008105780072004000b9
:100610004300dd0069d02000008044006022b80063
:100620000600200007fe23005001be004000be006f
:10063000b30a07000002be000203be0084bf9f0091
:1006400095bf9f00a6bf9f00b7bf9f00aa002000d4
:10065000110009008a85d80080057800e9854500e9
:10066000c35ddd008b8544003b02be002b03be0052
:100670000fb897009fb897002fb99700bfb99700a0
:100680009f0a07000002be000203be0084bf9f0055
:1006900095bf9f00a6bf9f00b7bf9f001100090034
:1006a0000a84d800010478004344dd0088844400b3
:1006b0003902be002903be000fb897009fb897000b
:1006c0002fb99700bfb997001d003700ea4f5000bf
:1006d00013003600aa002000110009000a84d80087
:1006e00001057800690440004344dd0069d0200022
:1006f000088444006022b8000600200007fe2300a2
:100700003800be002801be007d0a07004355dd0009
:100710008a8444003902be002903be000800370065
:100720004344dd0064d02000080442006022b80089
:100730000600200007fe23003800be002801be008e
:100740006f0a07004f05be004f04be000080fa008c
:10075000000006000800fa00889fbe008a9fbe00c5
:10076000d4c6b300e04f500022003d000040ea0034
:100770000004fb00844f50000a00340044062000af
:10078000110009000404d800a9002000110009008c
:100790008900d800e9004000c308dd006ad02000cd
:1007a00020003700ea4f50000f003400a400200062
:1007b000110009000404d800690040004300dd0076
:1007c00064d0200000004200430cdd00080242001b
:1007d0005403be004402be005001be004000be00f3
:1007e000470a0700370037004344dd0064d020008b
:1007f000310037000004fb00844f50002300340018
:1008000044062000110009000404d800a9002000bb
:10081000110009008900d800e9004000c308dd008c
:100820006ac52000810045003102be002103be00e0
:100830008b0920008a8545003b00be002b01be00cd
:100840002f0a07000002be000203be0084bf9f0003
:1008500095bf9f00a6bf9f00b7bf9f001100090072
:100860000904d800010478004344dd000805450070
:100870003a02be002a03be000fb897009fb8970047
:100880002fb99700bfb99700d5ff3700ea4f500046
:1008900007003400a4002000110009000404d8005f
:1008a000690040004300dd0064c52000c5ff37003b
:1008b0004344dd0064c52000080442003800be0047
:1008c0002801be004f05be004f04be000080fa00a4
:1008d000000006002f06b000889fbe008a9fbe0061
:1008e0008c9fbe008e1f7800b0af9f00d1979f00f5
:1008f000a2af9f006000b8006011b800a0a79f00e1
:10090000b1a79f00c2a79f00d3a79f000006eb00de
:1009100037073700df9097008100e800d1979f00ec
:1009200054c2b300844f500007003a00010278001f
:100930000003eb00d0c2b30001c3b30002c2b30096
:1009400033c2b300070037000000fb00bfa89700c8
:1009500033070700e10f4000250732000c06e800ce
:100960002307370084037800b4427800b8c2b3008c
:1009700088cf52000f00320005003c0082cf5200a9
:100980000a00320083cf520010003a000b003700fb
:1009900080cf52000300320081cf52000b003a009a
:1009a000080037000630a000eeff37000600a00068
:1009b000ecff37000610a000eaff370006b0a000e9
:1009c000e8ff37000620a000e6ff37006202630060
:1009d000010032000600a10068026300010032003d
:1009e0000620a1000502fb000403b100e90f52003c
:1009f0000d003e0087027800000020006a00b90068
:100a00003502fb000403b1000000420085037800ba
:100a10001502fb000403b100e90f5200f7ff360096
:100a2000c0af9f000a0037000005eb00caaf9f006f
:100a3000a4c2b30084cf520005003a00afad9700c6
:100a40004b007800abaf9f00c0af9f008703e8006a
:100a5000e4c2b300974f120019003a0086067800ee
:100a60000de0a00064425200d74f12000300320094
:100a7000070378000007eb000b003700afa89700d2
:100a800041077800a1af9f008703e80007007800c6
:100a900076c6b30007c7b300c1c6b3000c00370069
:100aa0006a70b90000074200860378003602fb0036
:100ab0000403b100e90f5200f9ff3600f3ff3700dd
:100ac000860678000dc0a0000007eb00efff37009e
:100ad000b0427800d0979f0086cf5200300032009d
:100ae00017003c0034c6b30084cf5200900032009f
:100af0000e003c007c42520084cf52003b0032008a
:100b000006003c00e0cf5200be06320004c2e900fd
:100b100084cf5200a5003a003000370084c5b300ee
:100b200084cf5200a1003a003700370054c6b3000a
:100b300084cf52001c00320025003c001c0037000e
:100b400087cf52003000320009003c0081cf5200b4
:100b500019003200f4c6b30084cf520027003200df
:100b60006642520084cf520090003a0010003700d5
:100b700054c7b30084cf5200930032006342420056
:100b800084cf5200040032006542520084cf5200ec
:100b900086003a0020003700a5579f001c00370050
:100ba000a6579f0013003700a5579f000d00370080
:100bb000a5579f0086003700f082660004012000e0
:100bc000010032000400280084867600c0ff370050
:100bd000a5579f000da0a0007d003700a5579f00de
:100be0000d50a0000d80a00079003700a5579f0090
:100bf0000d50a0000d90a00075003700a5579f0074
:100c00000d60a00072003700a5579f000d50a00096
:100c10000d70a0006e003700a5579f00afa9970088
:100c200043027800a3af9f00d4af9f00e00f5200b3
:100c300002003a0086e72000d6af9f005fab970026
:100c40008002eb00010037008502e80066c27a00ee
:100c5000e04f5200fcff3a00e5af9f00e00f570065
:100c600005003200efab9700870f570002003100fc
:100c70000e047800e8af9f006faa97000004eb0015
:100c8000cfac9700848f54000100360004845400d8
:100c9000e886660014003a0007003700bfa89700f6
:100ca000000220005e060700e10f40000100320054
:100cb0000c06e8000804e900e00f5400f7ff3a00d2
:100cc0000084eb00080037005faa97003400fb00a7
:100cd000d4af9f00bfa8970051060700e10f400066
:100ce000010032000c06e8006faa97000405e90035
:100cf000eaaf9f00e00f5200f3ff3a00e08f56008a
:100d00003b06320007003700bfa897000002200012
:100d100043060700e10f4000010032000c06e80026
:100d20000804e900e00f5400f7ff3a0030063700ee
:100d3000afad97004b027800abaf9f000404780082
:100d4000cfc4de00090578008a0578000800be00df
:100d50000a01be004800de00480add000000720003
:100d6000a0579f007082660009003200e04f5000db
:100d700007003200e14f400005003200b0579f00ed
:100d8000c8579f0025002000e5af9f0003003700f3
:100d9000b8579f0016002000e6af9f0037f92f00dc
:100da00087834700d7af9f00acff3700a5579f0050
:100db00028f92f0008844700d8af9f0019002000b1
:100dc000e9af9f00a5ff3700a5579f000d0cb300aa
:100dd00004702000048266004104320004002100f7
:100de00004826600010032006e00200070826600fe
:100df000050032002fa897004005be004004be0049
:100e0000a0af9f00060037002fa997004200be0048
:100e1000a2af9f00e50707000004be000205be0068
:100e20006022b8006033b8000800be000a01be00ae
:100e300030070700e00f500002003d000bf0a20059
:100e40003d00b3000002eb00b48f9f006022b800a9
:100e50006033b8000800be000a01be008907070021
:100e6000e00f5000340032000800be000a01be004e
:100e70001a09070062f92f000f0141006e080700f0
:100e80003f8897000000e9006300b900a40020003b
:100e9000110009000400d800b08f9f00e00f50003f
:100ea00002003d000000e900b08f9f00bf8997005d
:100eb000d3af9f000340ea0026fe07000802be00f1
:100ec0000a03be008e0807000002be000203be0037
:100ed000a4a79f00b5a79f00c6a79f00d7a79f0004
:100ee0006022b8000600200007ff2300010707006a
:100ef000e00f500003003d00dfaa97000502e90063
:100f00000c0037006022b8000600200047022400d1
:100f10002fa09700bfa097004fa19700dfa19700d7
:100f2000f9060700e00f5000030035005fab9700a3
:100f30000602e800b48f9f00bf8b9700d7af9f00d9
:100f40000d0278000410b20008003a000d0278008b
:100f50000420b2006202320007007800e40f400073
:100f6000020035008e0f5000ef013500e00f5700f2
:100f7000040032000d0278000420b20001003200ab
:100f80000e07e900f20f57000300360024c1b3003a
:100f9000a4579f0001003700ae579f006022b800a1
:100fa0006033b8000800be000a01be003507070024
:100fb000e00f5000660032002f519700c2cf9f0013
:100fc000afd9970002c05100e2fd07000002be0049
:100fd0000203be000800be000a01be00cf060700e3
:100fe0000004be000205be00c0070700100807008d
:100ff0000002be000203be000800be000a01be00df
:10100000b40807006022b8000600200007fe230095
:10101000bd060700e00f5000080035006022b80050
:101020000600200007fe23000800be000a01be00e3
:10103000330607000004be000205be000800be0023
:101040000a01be00a9070700e09f9f00f19f9f00d3
:101050008002eb0085a79f000003eb0096a79f008e
:10106000cfcb97008703fb00c78f9f000702e800e4
:101070004322dd0061db2000048040003002be001e
:101080002003be00e4a79f00f5a79f0086af9f0046
:1010900097af9f006f989700ff9897000fa1970058
:1010a0009fa197000400e1000588e1000690e1009f
:1010b0000798e1000c0039000400200005002a0018
:1010c0009699290097fb23000800be000a01be0084
:1010d0000b0807000004be000205be00dfa8970051
:1010e0000102e800190037004f8997004312dd0024
:1010f00063db2000048241005403be004402be00b2
:101100006f989700ff9897000fa197009fa19700f5
:101110000400e1000588e1000690e1000798e10085
:101120000b0031006022b8000600200047022400b6
:101130000800be000a01be00f10707000004be005f
:101140000205be00dfa897000102e900b48f9f00ee
:1011500004a020008482660004202000848f5200b6
:1011600046003a00f40f5700010034004e01200001
:101170000800be000a01be005c070700e0979f0060
:10118000f1979f008001eb00839f9f000002eb001e
:10119000949f9f000800be000a01be00d0af9f00d0
:1011a000e1af9f00f2af9f0083b79f006f9497005d
:1011b000ff9497000f9d97009f9d970009003700af
:1011c0000e07e900a4002000050020006033b800ed
:1011d0000800be000a01be00160907000205be0095
:1011e0000004be00e00f5400e08f5c00e00f5d00e3
:1011f000e08f5d000b003200a400200005002000fd
:101200006033b8000800be000a01be0010090700e4
:10121000e00f5000e08f5800e00f5900e08f5900b8
:10122000e7ff3200e8979f00f9979f008a9f9f0091
:101230009b9f9f005fac9700efac97007fad97003e
:101240008fb597002f5097000002fb00840f5700c6
:101250000a003d000e4050003efd07000002be00a7
:101260000203be000800be000a01be002b060700f4
:101270000004be000205be00ae579f00cfab970032
:10128000658253000e025200c4af9f00e00f57006a
:1012900003003a000480200004826600030032004c
:1012a0004fa897000000e900c0af9f00638266006e
:1012b00003003200cfa897008100e900c1af9f0072
:1012c000648266002c003200e28266006182660061
:1012d000e08f520006003200b0022000e00f520002
:1012e000010032000080e800bfa89700040037002a
:1012f000e00f520017003200bfa897000002200044
:10130000c7040700e10f4000120032000c06e8009d
:1013100010003700bfa897000003200094b79f007b
:10132000a5b79f00b6b79f00c7b79f00bc040700d2
:101330001fb29700afb297003fb39700cfb39700ab
:10134000e10f4000010032000c06e8008904e900ca
:10135000030037000802be000a03be00cfac9700ae
:10136000e08f5400ebff3c00c9af9f000404be00b7
:101370000605be002c0037006882660018003a009f
:101380000802be000a03be00cfac97000f00370072
:10139000bfa897000002200094b79f00a5b79f0048
:1013a000b6b79f00c7b79f009d0407001fb2970004
:1013b000afb297003fb39700cfb39700e10f400063
:1013c000010032000c06e8008904e900e08f5400b7
:1013d000efff3c00c9af9f000404be000605be003d
:1013e000e282660061826600e08f520006003200f1
:1013f000b0022000e00f5200010032000080e8003f
:10140000bfa8970004003700e00f5200060032002a
:10141000bfa897000002200081040700e10f4000f0
:10142000010032000c06e8000800be000a01be0000
:10143000ae060700a09f9f00b19f9f008001eb00b8
:10144000c39f9f000002eb00d49f9f00af52970004
:101450008502fb00e5a79f0005037800c332dd008d
:1014600064db2000050242003404be002405be00f7
:101470000802be000a03be002f989700bf9897008d
:101480004f999700df9997006a0807000003b000a2
:10149000bfa8970062040700e10f4000010032007e
:1014a0000c06e8000802be000a03be002f98970051
:1014b000bf9897004f999700df999700640807003d
:1014c000d0af9f00e1af9f00f2af9f0083b79f00b6
:1014d000e00f570003003a000480200004826600f9
:1014e00054003200bfa89700e00220004c0407001f
:1014f000e10f4000330032000c06e80031003700f5
:101500004f889700e00f50000d003200e00f5400ac
:10151000e08f5c00e00f5d00e08f5d0008003a00a6
:10152000d8af9f00e9af9f00faaf9f008bb79f0035
:101530008042eb00a5579f000004eb003b00370002
:101540008502fb00c32add0066db20008502430024
:101550003500be002501be00d0af9f00e1af9f0067
:10156000f2af9f0083b79f000203be000002be00df
:101570000800be000a01be002e0807000403200078
:1015800000024200bfa8970004007800240407006e
:10159000e10f4000010032000c06e8005faa97004e
:1015a000efaa97007fab97008fb397000800be00ab
:1015b0000a01be00260807000205be000004be00a6
:1015c000070037008d0078000120b200c18f9f0016
:1015d0005fac9700efac97007fad97008fb5970099
:1015e0002f5297008442e900a5579f00e04f520018
:1015f000c3ff3a00d8af9f00e9af9f00faaf9f004a
:101600008bb79f00efa29700050457000700370033
:10161000bfa897000003200001040700e10f40006d
:10162000010032000c06e8000804e900e00f540055
:10163000f7ff3a000d0278000402b2000300320006
:10164000bfa897005004200002003700bfa89700f1
:1016500050062000f2030700e10f400001003200b5
:101660000c06e8003f8a9700e00f520005003d009d
:101670000402ea00b48f9f00bfa89700d0022000a8
:1016800002003700bfa89700b0022000e403070063
:10169000e10f4000010032000c06e8003f8c97008b
:1016a000a4002000110009000404d8000003b000c9
:1016b000bfa89700da030700e10f400001003200e5
:1016c0000c06e800a4002000110009000404d80062
:1016d0000003200001004000bfa89700d0030700ce
:1016e000e10f4000010032000c06e800688266004d
:1016f000bf0332004fab9700e00f5300bc03340030
:1017000006047800bfa8970000022000c403070069
:10171000e10f4000010032000c06e8000804e90077
:10172000f8ff3a00b2033700dfab9700e08f5300b9
:1017300002003d000782ea00040747000800be00df
:101740000a01be00b8050700d0af9f00e1af9f00bf
:10175000f2af9f0083b79f0061db20000040eb00e9
:101760000802be000a03be00e4a79f00f5a79f0081
:1017700086af9f0097af9f000c0037003102be007c
:101780003103be005fac9700efac97007fad9700d0
:101790008fb597000440e10005c8e10006d0e100e4
:1017a00007d8e100030039000040e800f44f500082
:1017b000f2ff3a006fa49700ffa497000fad9700c7
:1017c0009fad97000002fb0004075700f80f570079
:1017d00009003c000e40780081fb07000002be00bb
:1017e0000203be000800be000a01be004404070058
:1017f0000004be000205be000e407800d5fb0700c5
:101800000002be000203be00e4a79f00f5a79f00f0
:1018100086af9f0097af9f005fa89700efa8970043
:101820007fa997008fb19700d60507000002be0080
:101830000203be000800be000a01be00a5060700a4
:101840000002be000203be006fa09700ffa0970039
:101850000fa997009fa997002906070072050700a6
:101860000802be000a03be00d4af9f00e5af9f0090
:10187000f6af9f0087b79f000205be000004be00c0
:1018800009003700a4002000050020006033b800e4
:101890000800be000a01be00660707000205be0080
:1018a0000004be000e07e900e00f570018003200e8
:1018b000a4002000050020006033b8000800be002e
:1018c0000a01be0062070700e00f5000e08f5800d9
:1018d000e00f5900e08f5900eaff32000c0037009a
:1018e000f80f57000e003c000e4078003cfb07004c
:1018f0000002be000203be000800be000a01be00d6
:10190000ff0307000004be000205be00040037000c
:101910005fac9700efac97007fad97008fb5970055
:10192000bf8a9700d5af9f00e98f520012003c009c
:101930006022b8006033b8000800be000a01be0093
:10194000d0040700e00f50002f0032000800be0056
:101950000a01be0034050700e00f5000e08f580078
:10196000e00f5900e08f590027003a005fab970065
:10197000e10f5300240034000400200005002e0075
:10198000b6e02200170124002fa09700bfa0970007
:101990004fa19700dfa1970056040700e00f500009
:1019a00003003d00dfab9700738253000200370055
:1019b0005fa8970072025000b48f9f006f5097008d
:1019c00064fb07000002be000203be00a4a79f0044
:1019d000b5a79f00c6a79f00d7a79f000800be001d
:1019e0000a01be004d0407000f050700d0af9f009d
:1019f000e1af9f00f2af9f0083b79f006044b80043
:101a00006055b800110037000800be000a01be0092
:101a100005050700d0af9f00e1af9f00f2af9f0028
:101a200083b79f00570507000002be000203be00f7
:101a30000800be000a01be00260607000004be0022
:101a40000205be000002eb00b48f9f00e1db200026
:101a500010c0b3000802be000a03be00d4b79f0046
:101a6000e5b79f00f6b79f0087bf9f0010003700c3
:101a70003104be003105be00e8a79f00f9a79f0012
:101a80008aaf9f009baf9f005faa9700efaa9700c5
:101a90007fab97008fb397000820e10009a8e10011
:101aa0000ab0e1000bb8e100030039000040e80093
:101ab000f44f5000eeff3a005fb49700efb4970088
:101ac0007fb597008fbd9700a0579f003f8a970072
:101ad000cfaa9700048252008e0252000002fb003f
:101ae00004825200c4af9f0004802000048266007c
:101af000e4a79f0002003a00e00f57000300320005
:101b00004fab97000603e900c6af9f0063826600f3
:101b100003003200cfab97008703e900c7af9f00f7
:101b2000648266002c003200e282660061826600f8
:101b3000e08f520006003200b0022000e00f520099
:101b4000010032000080e800bfa8970004003700c1
:101b5000e00f520017003200bfa8970000022000db
:101b6000af020700e10f4000120032000c06e8004f
:101b700010003700bfa897000003200094b79f0013
:101b8000a5b79f00b6b79f00c7b79f00a402070084
:101b90001fb29700afb297003fb39700cfb3970043
:101ba000e10f4000010032000c06e8008904e90062
:101bb000030037000802be000a03be00cfac970046
:101bc000e08f5400ebff3c00c9af9f000404be004f
:101bd0000605be00400037006882660018003a0023
:101be0000802be000a03be00cfac97000f0037000a
:101bf000bfa897000002200094b79f00a5b79f00e0
:101c0000b6b79f00c7b79f00850207001fb29700b5
:101c1000afb297003fb39700cfb39700e10f4000fa
:101c2000010032000c06e8008904e900e08f54004e
:101c3000efff3c00c9af9f000404be000605be00d4
:101c4000e282660061826600e08f52000600320088
:101c5000b0022000e00f5200010032000080e800d6
:101c6000bfa8970018003700e00f52001a0032009a
:101c7000bfa8970000022000130037008502fb0078
:101c8000c32add0060db2000850240005503be0052
:101c90004502be005fa89700efa897007fa99700b4
:101ca0008fb1970063060700a40020000500200004
:101cb0006033b800660607000403200000024200fb
:101cc000bfa897000400780055020700e10f40000c
:101cd000010032000c06e8002f5297008442e90010
:101ce000a5579f00e04f5200e4ff3a000802be00f3
:101cf0000a03be0010003700bfa8970000032000b1
:101d000094b79f00a5b79f00b6b79f00c7b79f00c5
:101d1000430207001fb29700afb297003fb397008e
:101d2000cfb39700e10f4000010032000c06e8003d
:101d30008904e900b98f9f00bf8c9700e08f5400a1
:101d4000edff3c000404be000605be00f20f570084
:101d50000300340024c1b300a4579f0001003700e2
:101d6000ae579f00af5297000502fb0004075700d3
:101d7000e0cf520003003a006fa19700e00f51003e
:101d800006003200bfa89700e002200024020700ee
:101d9000e10f4000010032000c06e8002f509700d0
:101da0006cfa07000002be000203be000800be007d
:101db0000a01be00d20407001b0407000205be0092
:101dc0000004be00240037008502fb00c32add00aa
:101dd00066db2000850243003500be002501be0001
:101de000d0af9f00e1af9f00f2af9f0083b79f008d
:101df0000203be000002be000800be000a01be00d1
:101e00000c060700a4002000050020006033b80085
:101e10000f0607000403200000024200bfa897003d
:101e200004007800fe010700e10f400001003200cd
:101e30000c06e8005faa9700efaa97007fab970017
:101e40008fb397000800be000a01be00000607001d
:101e50000205be000004be002f5297008442e90034
:101e6000a5579f00e04f5200d7ff3a00d8af9f0020
:101e7000e9af9f00faaf9f008bb79f0007003700c4
:101e8000bfa8970000032000e5010700e10f400014
:101e9000010032000c06e8000e07e900e00f5700d1
:101ea000f7ff3a0068826600d1013200cfaa97009e
:101eb000e08f5200ce01340005047800bfa89700df
:101ec00000022000d6010700e10f400001003200af
:101ed0000c06e8000804e900f8ff3a00c4013700e6
:101ee0008d027800050cb2003c003a00e08f5600ed
:101ef00005003d002fa897004005be004004be002d
:101f0000a0af9f00100037007082660013003200ff
:101f10002faa97004401be00a4af9f0092979f0094
:101f2000a3979f0084027800150290004fa2de0064
:101f3000b4979f00c4979f001f949700af94970099
:101f40003f959700cf959700d8af9f00e9af9f00ce
:101f5000faaf9f008bb79f000b003700afac970024
:101f600049027800a9af9f0004007800cf80de000e
:101f70000101780082017800d0af9f00e1af9f009f
:101f8000f2af9f0083b79f005faa9700efaa970068
:101f90007fab97008fb39700e00f5200e08f5a009d
:101fa000e00f5b00e08f5b0030003d003d00b300c0
:101fb0006022b8006033b8005fac9700efac9700c8
:101fc0007fad97008fb597000804520089845a00ae
:101fd0000a055b008b855b0020003700e08f560010
:101fe00005003d002faa97004401be004400be003a
:101ff000a4af9f000d003700f08266001000320091
:102000002fac97004803be00a8af9f00d68f9f005b
:10201000e78f9f00f48f9f0084979f005f88970051
:10202000ef8897007f8997008f919700d0af9f002e
:10203000e1af9f00f2af9f0083b79f000b00370016
:10204000afa8970041027800a1af9f000404780078
:10205000090020000a0020000b002000d8af9f00dc
:10206000e9af9f00faaf9f008bb79f00e00f5700ca
:102070000b003a001e0020005fa89700efa8970011
:102080007fa997008fb19700e00f5000e08f5800b4
:10209000e00f5900e08f5900010032000007eb000b
:1020a0008d047800090cb20004042000848f5400d1
:1020b0003500320003003c00e08f5400070032007e
:1020c0004b00370004082000848f540015003200b4
:1020d000040c2000848f540045003a00e1db20000e
:1020e00010c0b300090178003102be003103be0008
:1020f0005fac9700efac97007fad97008fb597006e
:102100000440e10005c8e10006d0e10007d8e10085
:10211000350039000040e800f44f5000f2ff3a006b
:102120003100370010c0b30004012000050020007a
:102130006033b800090178005fac9700efac9700fe
:102140007fad97008fb597000440e10005c8e1001e
:1021500006d0e10007d8e100230039004900200043
:102160000402d0008582d2000683d2008783d20089
:102170008904e900faff3a000040e800f04f5000ff
:10218000edff3a001800370010c0b30084002000b3
:10219000050020006033b800090178005fac9700ab
:1021a000efac97007fad97008fb597000440e1003a
:1021b00005c8e10006d0e10007d8e1000a003900b7
:1021c000390020000402d0008582d2000683d200ac
:1021d0008783d2008904e900faff3a000040e80052
:1021e000f54f5000edff3a0082047800a0579f00a1
:1021f0002f5597000a02fb008e0f520002003d008f
:10220000ae579f0003003700840f570001003d00c8
:10221000040778004fa89700e00f50000400320038
:1022200063826600020032000000e900c0af9f0038
:10223000040024000482660008003200cfa8970042
:102240008e8f5000030034008e805000c1af9f007d
:10225000020037000001eb00c2af9f00448c200059
:10226000848266004408b100848f520006003a0060
:10227000cfa99700e08f5100100032008301e900e0
:10228000c3af9f000d003700048c200084826600dd
:102290000404b100848f520008003a004faa97004e
:1022a000e20f5200030034000482e900c4af9f0033
:1022b000020037008002eb00c5af9f002f5397004c
:1022c0000602fb000004eb00cfab9700848f5300a5
:1022d0000100340004845300648266002d00320043
:1022e000e282660061826600e08f520005003200e3
:1022f000b0022000e00f5200170032000080e8001a
:1023000015003700e00f520003003200bfa897000d
:102310000002200011003700048c20008482660037
:102320000404b100848f520010003a00bfa8970047
:1023300000032000ba000700e10f40000100320056
:102340000c06e8000d0278000402b20080072000ad
:102350000100320080052000bfa89700b0000700f0
:10236000e10f4000010032000c06e800e00f5400cd
:102370008d003200bfa8970000032000a8000700ce
:10238000e10f4000010032000c06e8000804e900fb
:10239000f6ff3700e00f54000a0032006882660042
:1023a00008003a00bfa89700000220009c00070028
:1023b000e10f4000010032000c06e8000804e900cb
:1023c000f8ff3a00e282660061826600e08f520008
:1023d00006003200b0022000e00f5200010032007f
:1023e0000080e800bfa8970004003700e00f52000b
:1023f00006003200bfa897000002200088000700f6
:10240000e10f4000010032000c06e800048c2000bf
:10241000848266000408b100848f520003003a00f1
:10242000bfa89700000320000f0037000488200099
:10243000848f52005c003a00bfa897000003200080
:1024400077000700e10f4000010032000c06e800b1
:102450000d0278000402b200800720000100320063
:1024600080052000bfa897006d000700e10f400025
:102470004d0032000c06e8004b0037000e07e90063
:102480008a8f54003000320003003c00e08f54007b
:10249000070032003c00370004082000848f5400fd
:1024a00014003200040c2000848f540036003a00df
:1024b0004372dd006bdb20000b0242005403be00c0
:1024c0004402be005fa89700efa897007fa997007d
:1024d0008fb1970057040700a400200005002000da
:1024e0006033b8005a04070004c3b300044240003c
:1024f0002400370074e62000cfaa9700e08f520036
:102500000100320064e52000c272dd005fa8970080
:10251000efa897007fa997008fb197008502e90087
:10252000050033008301d1000281d3008180d300f4
:102530000080d300f9ff37006f006000644078002e
:10254000a0579f00100037006372b9005fa8970082
:10255000efa897007fa997008fb1970084057800b6
:102560008b05e900050033008301d1000281d3000f
:102570008180d3000080d300f9ff370067426000fc
:102580000443b000a4579f00af5097000100fb0028
:10259000bfa8970022000700e10f400006003200ac
:1025a0000c06e800040037000a0420000d01780042
:1025b0000202b200c2af9f00e00f5700afff3a0027
:1025c000688266000a003200e00f54000800340000
:1025d000bfa897000002200011000700e10f400093
:1025e000010032000c06e8000804e900f8ff3a0098
:1025f000df91970013407800a0579f00e04f5000f4
:10260000c4f83a000c0078004f0778004f06be006f
:102610004f05be004f04be002f06b10000000600ab
:10262000889fbe000104780038029000e202620038
:102630008084eb003b003200040378000620b200e7
:102640009802900002003a00e08f520035003a00f4
:102650000490a0003404980080047800f90fb200c0
:10266000e08f520002003a00a8029000050c7800aa
:10267000ea8f540005003a000408b20003003a0053
:1026800088007800d0002000e5ff070018029000c5
:10269000d8029000850f52000b0032000402e800bf
:1026a0001404980018027800094a7800040ce80025
:1026b00015c0b300047b2400054a7800ea8f54005b
:1026c00018003a00050037008800780009407800bb
:1026d00017000700800478001200370038029000cd
:1026e0000410b2000f00320018019000a800900002
:1026f000480090005200070018029000840f50001c
:1027000004003200380290000403b300340498003f
:102710008084eb000002eb00140498002802900073
:10272000040c7800090078004f04be000000060089
:102730000200fa00889fbe00a0ff9f0001047800fd
:1027400038029000840278000504b20002003200d2
:102750000000fb0035003700e202620005003a008d
:102760000403b30034049800150498000080eb00c3
:102770002e003700d8049000e08f540006003a0085
:1027800012002000e6805700480090002c0007004f
:102790001904980023003700a8029000e08f52002f
:1027a00008003a00357b240025049800050c7800c9
:1027b0002500200055049800150498000430a0005e
:1027c0003404980018019000a80090004800900080
:1027d0001b000700280290008082eb00150498007f
:1027e000affa9700054a7800040ce8002ffa97002a
:1027f000ea4f52000b003a00380290000410b20079
:102800000800320018019000a800900048009000d5
:102810000b0007000002eb0014049800a8029000cf
:10282000050c78002ffa97000400fb004f04be004f
:102830000080fa000000060000c0da000000060078
:102840000a00fa00e20f500022003e00b43d820070
:10285000e10f5200060032008723200046232000ab
:102860002423200005232000e08f530004003a00b9
:10287000872220004622200024222000052220005a
:10288000000028001500600003003a00800b78006b
:1028900007002800958a730005402000948262009a
:1028a00001003a0014a0a000820278000600370060
:1028b000940378000710b200fdff3200b103fb0063
:1028c000070b78008502e900e08f5200f8ff3a001c
:1028d0000800370034002000b4bf9f00c0bf9f0035
:1028e000d1bf9f00e2bf9f006a805700d2ff070060
:1028f0006fb99700020078000080fa00000006001f
:102900002800fa00889fbe008a9fbe008c9fbe00f0
:1029100007067800878669000c003b0003047800f6
:102920008704780008f0a10009f0a100840f50008e
:10293000858f5800860f5900890f5c000300330013
:102940000cf0a20001003a000cf0a100fe0007000c
:102950006400e1005f003200780147006408e10094
:10296000610032006c014700748557003200be00e0
:102970001201be003a04be001a05be001e039000fc
:10298000be0a90008503530006003d000004fd00d0
:102990008104fd000205fd008305fd008703ea00b8
:1029a000050378000df8a300040032006004140051
:1029b000e0841c0060051d00e0851d006022b80059
:1029c0007d0320000d38e1008006eb000b0039008c
:1029d0004433dd00f300b200830173003900370097
:1029e000848272000d027800e10664008b85d100bc
:1029f0000a85d3008984d3000884d3008703e900c3
:102a0000f7ff3b0008004000898048000a014900a8
:102a10008b81490004003b0060001000e08018003a
:102a200060011900e08119000358a3000900320079
:102a30008d82720084827200610260008301d10085
:102a40000281d3008180d3000080d3000603e80018
:102a50001b0037000348a30017003a000600e000ff
:102a6000170034000603e9000d00a3000000480031
:102a70008180480002014900838149000348a30086
:102a80000f003a000600e000090034000603e900e8
:102a90000000400081804800020149008381490014
:102aa00001003a000003eb000348a300f5ff3200e9
:102ab0006022b800020037008482720061826600e2
:102ac0007500070003f0a1000cf0a70003f0a000c0
:102ad000b1003700640147006408e10002003a00d9
:102ae0000df8a300a9003a003200be001201be009a
:102af000a90037008f1fd100370307008f87e90037
:102b00000000e00000000600809feb003203070099
:102b10008f87e9000000e000000006002800fa00ae
:102b2000889fbe008a9fbe008c9fbe0003866b00fc
:102b3000850007006400e100440032006408e10001
:102b40004a0032006100e100460032006108e10005
:102b500049003200ec0647006000b8003d02be00ac
:102b60003d03be00f48657006011b8003d04be006e
:102b70003d05be007d0320000b0037000000a000d3
:102b80008d06e900130032000402420085824a00eb
:102b900006034b0087834b00000040008180480003
:102ba00002014900838149000802520089825a00cb
:102bb0000a035b008b835b00f0ff3b0008024200ce
:102bc00089824a000a034b008b834b008d06e90083
:102bd000edff3a008482720086827200f707b2002d
:102be0008782720001003200150020001e04900050
:102bf0003e0b900006035400e63fb0000368a300bc
:102c0000070032000000a7000500a0008301d100ea
:102c10000281d3008180d3000080d3000603e80046
:102c20008301d1000281d3008180d3000080d300d2
:102c30000002eb000482d2001700070003f0a1009d
:102c40000cf0a70003f0a000530037006402470017
:102c50006408e1004d0032003400be003401be00c3
:102c6000f6ff37006108e100480032006011b8004b
:102c70006000b800f1ff370003ff270002002000ca
:102c8000fbff3700801feb00d30207008f87e900ae
:102c90000000e0000000060018002000570020009f
:102ca000080453000d003d000600200097fc2f0093
:102cb0000740e1001e00340084827200610260005f
:102cc0008301d1000281d3008180d3000080d30032
:102cd0000804e800f8ff3a004700200061046000a3
:102ce00005047400040464000d003200610040001b
:102cf000e080480060014900e081490003b8a50078
:102d0000070032000603e8006538e10004003a00dd
:102d10008301d1000281d3008180d3000080d300e1
:102d2000f87f20000830e100030035000803780038
:102d30006000b8006011b8004433dd00f300b20059
:102d40008301730000000600680447000294be007f
:102d50000094be00fc0447008694be008494be002c
:102d600009007800e502070008007800e302070088
:102d700099007800814f70000b003b000800be00f6
:102d8000be0207004f00b10003003700f3ff270029
:102d9000f2ff2f006110b9004f06be004f05be00c4
:102da0004f04be000080fa00000006008103780096
:102db000be0007000001be006000b8000478a30058
:102dc00013003a006220e10015003e000d003900ba
:102dd0008301d1000281d3008180d3008301d1001f
:102de0000281d3008180d3008301d1000281d3000e
:102df0008180d3000538b000c42add00f300b200a2
:102e00008381720007f0a70003f0a0000000060015
:102e1000f3ff2700f2ff2f006110b900fbff37001e
:102e200003ff2700f7ff37001400fa00889fbe0059
:102e30008a9fbe008c9fbe000004be000205be003b
:102e4000680047000a90be000890be00ab02070071
:102e50000070a7000bf0a1000bf8a30020003a00bf
:102e60009e0990000e099000fe0090006e009000f8
:102e70009e0290003443200084825200c6ff32003c
:102e80000a003c00b4fc2f000428e10014003400c8
:102e90008301d1000281d3008180d3000080d30060
:102ea0008502e800faff3a00bbff3700b4002000bb
:102eb0000428e10007003c00000040008180480039
:102ec00002014900838149008502e900faff3a00c6
:102ed000b1ff370003002800020020000100370086
:102ee0006011b8006000b800abff37001400fa00b2
:102ef000889fbe008a9fbe008c9fbe000004be005b
:102f00000205be00680047000a90be000890be009f
:102f10007a0207000070a7000bf0a1000bf8a300d5
:102f200016003a009e02900030432000808252003a
:102f3000b0fe2f000028e1000d003c00b0fc2f0087
:102f40000028e1000d0034001e0990008e0890005a
:102f50007e0090000501b0000201d1008180d30005
:102f60000080d3008502e800fbff3a008aff3700ab
:102f7000010028000000200087ff37006000b80033
:102f800085ff3700889fbe00008270000402710038
:102f9000048271002400320036432000c500200066
:102fa0008383cf000a0039000541b1008283cf003e
:102fb000070039000541b1008183cf0004003900ca
:102fc0000541b1008083cf00010039000541b10007
:102fd00085c353006022b800120032000a003b0093
:102fe00084827200610260008301d1000281d300fb
:102ff0008180d3000080d3000603e8008743e80007
:10300000f7ff3a00070037000000400081804800c9
:1030100002014900838149000603e9008743e90072
:10302000f9ff3a001cff07004f04be000000060035
:103030006011b800d3ff37001400fa00889fbe006b
:103040008a9fbe008c9fbe00040678000004be006c
:103050000205be00680047000a90be000890be004e
:10306000260207006200e1000800be000a01be005f
:10307000040020000b003a001e029000e43fb10063
:103080006e009000fe0090000e0990009e099000d6
:10309000f300b20005fe2300858171000bf0a7004c
:1030a00003f0a000040e78003bff3700c70ade00e3
:1030b000f107b200f50fb20008003200e1cf420084
:1030c000020032000170a00024000500810f700092
:1030d000010032000408050044000500810f700063
:1030e00002003a00140005008502e90000004000db
:1030f00081c04800fcff3b000170a00024000500d7
:103100002800fa00889fbe008a9fbe008c9fbe00e8
:1031100003866b000cff07000028a30064003a0040
:103120000128a30067003a000008a30062003a00eb
:103130000108a30065003a001e009000be08900040
:1031400081064000ed3fb100f4805700ee01900091
:10315000111ab8008e099000311bb8009e0990002a
:10316000311cb800511db800f48557004600070017
:10317000fe0190003a0007008b85e8003e00070042
:103180008e09900040000700ee0190003400070017
:103190008b85e800380007008e099000400007008a
:1031a0009e0990001b18b800890440000a85480059
:1031b000fe019000340007008b85e800380007000e
:1031c000ee019000300007008e0990001b18b80037
:1031d000890440000a8548000a98a30008003a00c4
:1031e0000402420085824a0006034b0087834b009d
:1031f00008044c0089844c000a054d008d06e90046
:1032000084827200850273004c3add0085027200f0
:103210000100320015002000443ade001400b20024
:103220004538de00cb45dd000b007000c540de00f8
:10323000cb4ddd008b8070004549de00cb55dd00b5
:103240000b017100c551de000d03780092fe0700ee
:1032500003f0a1000cf0a70003f0a000cefe3700a1
:103260001b18b8008502400006834800e0834b002d
:1032700060044c00070037001b18b800060340002c
:1032800087834800faff37001b18b8008703400007
:1032900008844800e0844c0060054d0000000600f2
:1032a0001b18b8000804400089844800faff370062
:1032b0000108a300b5fe3a005800be005801be0048
:1032c000e3ff37000008a300b0fe3a0009047800cd
:1032d000f9ff370007f0a20089fd37001400fa005b
:1032e000889fbe008a9fbe008c9fbe000005be0066
:1032f0000206be00680047000c90be000a90be00a7
:103300007e0107006400e1001a00320016003e0052
:103310006100e1001a0032006e049000fe0490008b
:103320000e0b90009e0b90006011b8009e0590005f
:103330000b38b100d5012000828171006101640069
:103340008703d1000683d3008984d3000884d30087
:103350008502e900f8ff3a008f0107000df0a70091
:1033600001f0a0008cfe3700f1ff2700f0ff2f00d6
:1033700089fe370001f8270000002000f7ff370022
:103380006000b800f5ff3700889fbe008a9fbe002e
:103390003004be002005be000404440085844c00b7
:1033a00006054d0087854d000898be000a90be00b6
:1033b0000440e10005c8e10006d0e10007d8e100c3
:1033c00002003100680040001008e8004f05be0010
:1033d0004f04be00000006001000fa00889fbe00e7
:1033e0008a9fbe000605be000404be003002be0077
:1033f0002003be00c4b79f00d5b79f00e6b79f006b
:10340000f7b79f000802520089825a000a035b0046
:103410008b835b0084bf9f0095bf9f00a6bf9f006a
:10342000b7bf9f000498be000698be0011002000a0
:103430004fb29700dfb297006fb39700ffb39700ca
:103440000820e10009a8e1000ab0e1000bb8e100a2
:10345000010039008000eb00108810004f05be000d
:103460004f04be000080fa00000006001400fa00bd
:10347000889fbe008a9fbe008c9fbe003f00070051
:103480000605be000404be000006eb00ccb79f009a
:10349000bcb79f00acb79f009cb79f008cb79f0044
:1034a0000d0420004fb39700bfb29700860343007e
:1034b0002fb29700e00f530004003d003d000700cd
:1034c0000f004000b0ff070003003700390007007d
:1034d0000f004000c0ff0700cfb2970095bf9f00cc
:1034e000e08f5200090035002b0007001400200077
:1034f000050020006033b800000072008180720077
:1035000002017300838173001c0007000c06e800b1
:103510008d0f5600e3ff3a001fba9700e00f5200ec
:1035200005003d000802be000a03be0000fe2f0099
:103530000f00400094ff07004faa9700e00f5200d1
:1035400008003a000fb497009fb497002fb597007a
:10355000bfb59700d8b79f00e9b79f00fab79f00a3
:103560008bbf9f000c0007004f06be004f05be003a
:103570004f04be000080fa000000060001000700b2
:103580000000060090b79f00a1b79f00b2b79f0050
:10359000c3b79f00000006000100070000000600fe
:1035a0001fb09700afb097003fb19700cfb1970021
:1035b000000006004f2bde0087037300a7b79f00b3
:1035c0004f23de00858242008502730095b79f007d
:1035d000ffaa97004f2bde00040242000402730092
:1035e00084b79f006faa97004f23de0085824200b8
:1035f00085027300f5af9f00e9ff07004f18de005a
:103600000402420000027200e4af9f00e4ff0700e2
:103610000000400081804800020149008381490088
:10362000d8ff07000802be000a03be0000fe2f00fc
:1036300000000600881f780018002000881f78000e
:103640008aff07008f87e9004f047800000006001a
:10365000801feb0085ff07008f87e9000000060050
:10366000889fbe008a9fbe00e00f5000e08f580088
:10367000e00f5900e08f59000c003d006044b80095
:103680006055b8000000540081805c0002015d00bc
:1036900083815d00180020001500070008003d0030
:1036a000180007000004eb00050037000004eb00e1
:1036b0000f00070002003d00120007001800200064
:1036c000dcff0700e00f5400060032006022b80063
:1036d0006033b8000000520081805a0002015b0094
:1036e00083815b004f05be004f04be000000060052
:1036f000e00f5200e08f5a00e00f5b00e08f5b00ac
:10370000000006006044b8006055b8000402540090
:1037100085825c0006035d0087835d000000060073
:10372000889fbe008a9fbe008c1f7800e00f50006b
:10373000e08f5800e00f5900e08f59000d003d0068
:103740006044b8006055b8000000540081805c00ff
:1037500002015d0083815d001c0020000820e10063
:1037600009a8e1000ab0e1000bb8e1000d003d003e
:10377000080037000006eb00e00f5200e08f5a000f
:10378000e00f5b00e08f5b0006003d006044b80086
:103790006055b8000402540085825c0006035d0099
:1037a00087835d00aaff0700e00f56000600320085
:1037b0006022b8006033b8000000520081805a00d7
:1037c00002015b0083815b004f0678004f05be005d
:1037d0004f04be0000000600889fbe008a9fbe0006
:1037e0008c9fbe000404be000605be00809fbe0084
:1037f000829fbe002f000700040678000800be006c
:103800000a01be002b000700840678004f03be00ab
:103810004f02be008d4f76007fb09700130033003b
:10382000f0ff2f008b8f6b0006003b000d0666003b
:103830000c00a7000a00370007f0a60010002000c7
:103840000a003700880f5200898f5a008a0f5b00e8
:103850008b8f5b00030039001000200001003e0048
:103860000000200007f0a7000000ea004f06be009d
:103870004f05be004f04be0000000600e482400079
:103880001078a30007003200640240001178a30002
:103890003400be001401be00040032000330a70053
:1038a000000006003500be001501be000330a00078
:1038b0000000060005ff27000582610007003200b6
:1038c0000428e10001003200240005000600070082
:1038d00001003a004400050004080500020007004a
:1038e000f9ff3a00140005006f8261008102700048
:1038f00085027100850272000000060080007800d9
:103900005002be005003be004439de00f700b20092
:10391000f37f200003016100090032000218e1007a
:1039200016003a00850172008301730083817300e1
:103930000008200015003a00400020001300370066
:1039400085017200830173008381730005003a00d2
:1039500004a8be0006a8be00100020000b0037001f
:103960000201e9000402420085824a0006034b007e
:1039700087834b000748a300f9ff32000740a000ef
:1039800004a8be0006a8be00200020008000980009
:103990009200980000000600810020006180550020
:1039a0000b003d000b00200061fe2f000100e10034
:1039b0001d00340082817100610164008904d1001e
:1039c0000884d3000000e800faff3a0071002000ec
:1039d0006100640003007000020060000900320012
:1039e00061044400e0844c000988a5000500320011
:1039f0008b05e8006808e10002003a008904d10064
:103a00000884d300f20f20000258e10005003d00b9
:103a1000c75ddd00f907b2008980750008007800f5
:103a2000000006000bf827008b007800000005005e
:020000040000fa
:100008009402000094020000940200009402000090
:100018009402000094020000940200009402000080
:100028009402000094020000940200007c28000062
:100038002c240000940200009402000094020000a6
:100048009402000094020000940200003e26000082
:100058009402000094020000940200009402000040
:100068009402000094020000940200009402000030
:100078009402000094020000940200009402000020
:100088009402000094020000940200009402000010
:100098009402000094020000940200009402000000
:1000a80094020000940200009402000094020000f0
:1000b80094020000940200009402000094020000e0
:1000c80094020000940200009402000094020000d0
:1000d80094020000940200009402000094020000c0
:1000e80094020000940200009402000094020000b0
:1000f80094020000940200009402000094020000a0
:10010800940200009402000094020000940200008f
:10011800940200009402000094020000940200007f
:10012800940200009402000094020000940200006f
:10013800940200009402000094020000940200005f
:10014800940200009402000094020000940200004f
:10015800940200009402000094020000940200003f
:10016800940200009402000094020000940200002f
:10017800940200009402000094020000940200001f
:10018800940200009402000094020000940200000f
:1001980094020000940200009402000094020000ff
:1001a80094020000940200009402000094020000ef
:1001b80094020000940200009402000094020000df
:1001c80094020000940200009402000094020000cf
:1001d80094020000940200009402000094020000bf
:1001e80094020000940200009402000094020000af
:0801f8009402000094020000d3
:020000040000fa
:10020800940200009402000094020000940200008e
:10021800940200009402000094020000940200007e
:100228009402000094020000940200007c28000060
:100238002c240000940200009402000094020000a4
:100248009402000094020000940200003e26000080
:10025800940200009402000094020000940200003e
:10026800940200009402000094020000940200002e
:10027800940200009402000094020000940200001e
:10028800940200009402000094020000940200000e
:1002980094020000940200009402000094020000fe
:1002a80094020000940200009402000094020000ee
:1002b80094020000940200009402000094020000de
:1002c80094020000940200009402000094020000ce
:1002d80094020000940200009402000094020000be
:1002e80094020000940200009402000094020000ae
:1002f800940200009402000094020000940200009e
:10030800940200009402000094020000940200008d
:10031800940200009402000094020000940200007d
:10032800940200009402000094020000940200006d
:10033800940200009402000094020000940200005d
:10034800940200009402000094020000940200004d
:10035800940200009402000094020000940200003d
:10036800940200009402000094020000940200002d
:10037800940200009402000094020000940200001d
:10038800940200009402000094020000940200000d
:1003980094020000940200009402000094020000fd
:1003a80094020000940200009402000094020000ed
:1003b80094020000940200009402000094020000dd
:1003c80094020000940200009402000094020000cd
:1003d80094020000940200009402000094020000bd
:1003e80094020000940200009402000094020000ad
:0803f8009402000094020000d1
:020000040000fa
:0200000401f009
:04001c00dfff000002
:020000040000fa
:0200000401f009
:04001800f7000000ed
:020000040000fa
:0200000401f009
:040014005f00000089
:020000040000fa
:0200000401f009
:04001000810000006b
:020000040000fa
:0200000401f009
:04000c00830000006d
:020000040000fa
:0200000401f009
:0400080007000000ed
:020000040000fa
:0200000401f009
:04000400cf00000029
:020000040000fa
:0200000401f009
:04000000cf0000002d
:020000040000fa
:103a3000000000000000000000000000004f000037
:103a40000000000000070000000700000014000054
:103a50007f1400007f140000242a00007f2a000049
:103a600012230000130800006462000036490000c1
:103a70005522000050000000050300000000000077
:103a8000001c000022410000000000004122000054
:103a90001c000000140800003e080000140800008c
:103aa000083e000008080000005000003000000040
:103ab000000800000808000008080000006000007e
:103ac0006000000000200000100800000402000058
:103ad0003e510000494500003e000000427f0000ca
:103ae00040000000426100005149000046210000f2
:103af000414500004b31000018140000127f000007
:103b00001027000045450000453900003c4a0000f0
:103b10004949000030010000710900000503000060
:103b200036490000494900003606000049490000b6
:103b3000291e0000003600003600000000000000d2
:103b4000563600000000000008140000224100006a
:103b500000140000141400001414000000410000c0
:103b600022140000080200000151000009060000b4
:103b700032490000794100003e7e00001111000032
:103b8000117e00007f49000049490000363e0000d8
:103b900041410000412200007f410000412200001d
:103ba0001c7f000049490000494100007f090000d6
:103bb00009090000013e000041490000497a000067
:103bc0007f080000080800007f000000417f00001f
:103bd0004100000020400000413f0000017f000044
:103be00008140000224100007f4000004040000017
:103bf000407f0000020c0000027f00007f040000f4
:103c0000081000007f3e000041410000413e0000de
:103c10007f09000009090000063e00004151000034
:103c2000215e00007f0900001929000046460000bf
:103c30004949000049310000010100007f010000f6
:103c4000013f000040400000403f00001f200000f6
:103c5000402000001f3f000040380000403f0000af
:103c600063140000081400006307000008700000df
:103c700008070000615100004945000043000000b2
:103c80007f41000041000000020400000810000015
:103c900020000000414100007f00000004020000fd
:103ca00001020000044000004040000040400000cd
:103cb0000001000002040000002000005454000035
:103cc000547800007f480000444400003838000069
:103cd00044440000442000003844000044480000f0
:103ce0007f3800005454000054180000087e000083
:103cf00009010000020c000052520000523e000078
:103d00007f0800000404000078000000447d0000eb
:103d10004000000020400000443d0000007f000003
:103d20001028000044000000004100007f40000017
:103d3000007c000004180000047800007c080000eb
:103d400004040000783800004444000044380000b7
:103d50007c14000014140000080800001414000073
:103d6000187c00007c0800000404000008480000e3
:103d70005454000054200000043f00004440000060
:103d8000203c000040400000207c00001c2000007f
:103d9000402000001c3c000040300000403c00007f
:103da0004428000010280000440c0000505000007f
:103db000503c000044640000544c000044000000eb
:103dc0000836000041000000000000007f000000f5
:103dd0000000000041360000080000000201000061
:103de00002040000020000000401000010010000b5
:103df000120100001e010000200100000307000066
:103e0000080b00000c00000000010000060100008b
:103e10000a01000014010000180100000201000066
:103e20000c0100000e0100001a0100001c0100003e
:103e3000486500006c6c00006f200000576f0000a8
:103e4000726c000064210000210000004845000061
:103e5000583a0000202500005800000044450000aa
:0c3e6000433a000020250000690000002b
:020000040000fa
:103e6c00889fbe008a1f7800000578008144780086
:103e7c00cce2a900c402a900e0cf54000600320035
:103e8c000a04780038407800d40407000a42540031
:103e9c0084cf5400fbff3e00000000000000000037
:103eac00c402a8004f0578004f04be0000000600b5
:103ebc00889fbe008a1f7800000578008104780076
:103ecc00cce2a800c402a900e08f54000600320026
:103edc000004eb003a407800c00407000804e80036
:103eec00888f5400fbff3e00000000000000000023
:103efc00c402a8004f0578004f04be000000060065
:103f0c000200fa0014c8b300e4ff9f00f0ff9f000a
:103f1c0021c0b3000f80e900d1ff07000080fa0038
:103f2c00000006000200fa0044cab300044270000c
:103f3c00e4ff9f0011c0b3000f80e900c8ff070029
:103f4c000080fa00000006000200fa0064cab30008
:103f5c0004427000e4ff9f0011c0b3000f80e90021
:103f6c00bfff07000080fa00000006000200fa0004
:103f7c00e4cab30004427000e4ff9f0011c0b30018
:103f8c000f80e900b6ff07000080fa000000060071
:103f9c000800fa0064c2b3000442700084ff9f0062
:103fac000042eb0094ff9f00a1ff9f00b2ff9f0017
:103fbc00c3ff9f00d4ff9f0000c2eb00e4ff9f00f3
:103fcc0071c0b30068805700a5ff07000080fa009d
:103fdc00000006000600fa0095c2b300854270008e
:103fec00a5ff9f008042eb00b5ff9f00c1ff9f0023
:103ffc00d2ff9f00e3ff9f00f4ff9f0071c0b3004e
:10400c006680570096ff07000080fa00000006004b
:10401c000200fa00f4c2b300e4ff9f0011c0b30029
:10402c000f80e9008eff07000080fa0000000600f8
:10403c000200fa00e4c2b300e4ff9f0011c0b30019
:10404c000f80e90086ff07000080fa0000000600e0
:10405c000400fa0034cab300c4ff9f00d0ff9f00d5
:10406c00e1ff9f0031c0b300648057007cff070064
:10407c000080fa00000006000200fa006f406000a9
:10408c00e0ff9f0011c0b3000f80e90074ff070030
:10409c000080fa00000006000200fa006f40600089
:1040ac000044a000e0ff9f0011c0b3000f80e900a6
:1040bc006bff07000080fa00000006000200fa0007
:1040cc0004c2b300e4ff9f0062406000f0ff9f0059
:1040dc0021c0b3000f80e90061ff07000080fa00e7
:1040ec00000006000400fa0014c2b300c4ff9f00d5
:1040fc000074a100d0ff9f000174a100e1ff9f009c
:10410c0031c0b3006480570055ff07000080fa00ef
:10411c00000006000400fa0024c2b300c4ff9f0094
:10412c0067406000d0ff9f00e7c06000e1ff9f0088
:10413c0031c0b3006480570049ff07000080fa00cb
:10414c00000006000200fa0004cbb3000442700029
:10415c00e4ff9f0011c0b3000f80e90040ff07008f
:10416c000080fa00000006000200fa000064a000c3
:10417c00e0ff9f0011c0b3000f80e90038ff07007b
:10418c000080fa00000006000200fa0004cab30026
:10419c0004427000e4ff9f0011c0b3000f80e900df
:1041ac002fff07000080fa00000006000200fa0052
:1041bc0084cab300e4ff9f00f043b200f0ff9f00fd
:1041cc0021c0b3000f80e90025ff07000080fa0032
:1041dc00000006000200fa0004ccb3000442700098
:1041ec00e4ff9f0011c0b3000f80e9001cff070023
:1041fc000080fa00000006000200fa0034cdb30083
:10420c00e4ff9f00f043b200f0ff9f0021c0b30019
:10421c000f80e90012ff07000080fa000000060082
:10422c000200fa00a4cdb300e4ff9f00f0ff9f0052
:10423c0021c0b3000f80e90009ff07000080fa00dd
:10424c00000006000200fa0054cdb300e4ff9f000a
:10425c000080fb004400dd0000c07000f0ff9f00f8
:10426c0021c0b3000f80e900fdfe07000080fa00ba
:10427c00000006000200fa0094cdb300e4ff9f009a
:10428c00f0ff9f0021c0b3000f80e900f4fe07008f
:10429c000080fa00000006000200fa00b4cdb30062
:1042ac00e4ff9f00f0ff9f0021c0b3000f80e900e6
:1042bc00ebfe07000080fa00000006000200fa0086
:1042cc0034ceb300e4ff9f0011c0b3000f80e900af
:1042dc00e3fe07000080fa00000006000200fa006e
:1042ec00d4c8b300e4ff9f00f0ff9f0021c0b300cf
:1042fc000f80e900dafe07000080fa0000000600db
:08430c00b303070000000600e6
:020000040000fa
:10431400500c000004000000020000000000000037
:1043240000000000420c00000e000000020000002b
:104334000000000000000000000000000000000079
:104344000000000080470000300000000000000072
:10435400c04700003000000000000000000c000016
:1043640042000000000000000008000000040000fb
:1043740000000000540c00000200000000000000d7
:10438400560e00002a000000020000003031320006
:104394003334350036373800394142004344450050
:1043a40046003000313233003435360037383900b6
:1043b400616263006465660000286e00756c6c00c1
:1043c40029000000b60d0000a0000000020000005b
:1043d400010000000000000000000a0000000000ce
:1043e4000000000000640000000000000000000065
:1043f400e803000000000000000010002700000097
:104404000000000000a08600010000000000000081
:1044140040420f0000000000000080009698000059
:10442400000000000000e100f505000000000000ad
:1044340000ca9a003b00000000000000e40b540096
:10444400020000000000e8007648170000000000a9
:104454000010a500d4e8000000000000a0724e0087
:1044640018090000000040007a10f3005a00000010
:104474000080c600a47e8d000300000000c16f0010
:10448400f2862300000000008a5d78004563010085
:1044940000006400a7b3b600e00d000000e8890046
:1044a4000423c7008a000000560c000060010000cd
:1044b400020000000000000000000000f03f0000c7
:1044c4000000000000002400400000000000000084
:1044d4000059400000000000000040008f40000030
:1044e400000000000088c30040000000000000003d
:1044f4006af8400000000000008084002e410000a3
:1045040000000000d012630041000000000084009d
:10451400d7974100000000000065cd00cd410000a8
:10452400000020005fa002004200000000801d0087
:10453400af1544000000000040593e002946000029
:10454400000000000000f0007f00000000000000f8
:1045540000f07f000000000000000000f07f000079
:10456400000000000000f0007f00000000000000d8
:1045740000f07f000000000000000000f07f000059
:10458400000000000000f0007f00000000000000b8
:1045940000f07f000000000000000000f07f000039
:1045a400000000000000f0003f00000000a099009f
:1045b40099b93f000000000040e17a00843f000008
:1045c4000000e0004d6250003f00000000e0e20007
:1045d400361a3f000000000080b5f800e43e0000f9
:1045e4000000a000f7c6b0003e00000000a0f200ea
:1045f400d77a3e0000000000e08e7900453e0000be
:104604000000e0000b2e11003e00000000e0df007f
:104614007cdb3d000000000000a19c00c73b0000c3
:10462400000000004c48b4003900000000002000e5
:104634006ca1370000000000000000000000000032
:104644000000000000000000000000000000000066
:104654000000000000000000000000000000000056
:104664000000000000000000000000000000000046
:104674000000000000000000000000000000000036
:10468400000000000000000000000000b04700002f
:104694000600000000000000800e0000260000005c
:1046a40002000000b147000000b14700090000000b
:1046b40000020000b347000000b347000e020100ef
:1046c40000000000000000000000000006020200dc
:1046d40000000000800e0000b64700000200000049
:0c46e400020000000100000000000000c7
:020000040000fa
:1046f000440e2000041988000042e9000482fb00f7
:104700004222dd0004a0a00014198800f4f3210067
:104710002419880024002000941988000002eb006e
:104720003419880044198800000006000400fa00cb
:104730000042eb00c4ff9f000002eb00f4bf9f00ab
:104740004ffa9700e34f520009003e007fba9700ee
:1047500030024200f4bf9f004ffa97000442e80085
:10476000c4ff9f004ffa9700e34f5200f7ff360057
:104770007fba97004222de00840878000080fa00a9
:1047800000000600041c80000440a1000450a000aa
:10479000041c8800041c80000400a1000410a00078
:1047a000041c880004302000441c88007401200090
:1047b000541c8800d4002000141c880004782000b9
:1047c000241c8800047c2000341c88008480a900fc
:1047d0009480a80081e3a9000000060015002000d5
:1047e000002add000480ea002c23b6008128dd00c9
:1047f0008182ea008002fd002c23b6008002fd00c9
:10480000040078003023b700010078003023b7009f
:1048100020c0b300b6ff0700daff0700f0ff2d004d
:104820008420b6009420b600000006000000280096
:104830002023b70081e3a8000000060021e3a900bf
:1048400081e3a900000006000000400024c420000d
:1048500064007800000006003600f800809fbe006b
:10486000829fbe00849fbe00869fbe00e4c42000dd
:1048700014427800e04f520013003a0021c4200097
:1048800000782400a9ff070041c42000807824009c
:10489000a6ff070061c4200000792400a3ff0700e1
:1048a00081c4200080792400a0ff0700a1c420005b
:1048b000007a24009dff0700c1c42000807a2400f4
:1048c0009aff07001200370021c42000007c24005a
:1048d00096ff070041c42000807c240093ff07005e
:1048e00061c42000007d240090ff070081c42000e7
:1048f000807d24008dff0700a1c42000007a2400e1
:104900008aff0700c1c42000807a240087ff0700c7
:104910004e0caa008480a9004f03be004f02be00c7
:104920004f01be004f00be003600f90000400600f7
:10493000c002a900c8c2a900c8e2a90073fe07000e
:1049400000000600ccc2a80000c029000100200021
:104950003e020700ccc2a9000080210061002000b7
:104960003a020700ccc2a8000040eb0082fd07001d
:10497000f0c3b30010fe07000040eb0021fe07006b
:104980000040eb00fbfd070010c0b30001fe070074
:1049900080c0b30012fe070020c1b30023fe070051
:1049a000f0c7b30059fd07000040eb0060fd0700b1
:1049b0000040eb0067fd07008040eb0080c0b300c3
:1049c00023fe070040c1b30047fe07000040eb0094
:1049d000bdfd070010c0b30067fd07000000060022
:1049e000d3ff0700d7ff070000000600f1c7b300a0
:1049f0000040eb00befd070071c0b3000040eb00bb
:104a0000c7fd070001402000008020002bfd0700ab
:104a10000000060004802000ff030900005aeb009c
:104a20000000060002427800e8cf500005003e007a
:104a30000041e9008141e9008440780000802000c5
:104a40002f01070000000600889fbe008a1f780023
:104a50000044780081447800020578000a0078005c
:104a6000c3ee0700004278000883fb0065034300a3
:104a70008482fb000503430005082000850f5300d6
:104a800005003e000841e9008941e9008a007800fc
:104a900000802000440107004f0578004f04be004d
:104aa000000006008000fa00889fbe0000447800e5
:104ab000814478000f0278004408b1003f000900eb
:104ac000001aeb00b10f200001c2b900ff40420004
:104ad0008180fb0043f72f008f8141002f39970021
:104ae000c0f72f000f004000a8ee0700c0f72f000e
:104af0000f0040009eee07000841e90000427800e8
:104b00008941e900c1f72f008f804000008020001c
:104b1000250107004f04be000080fa0000000600d7
:104b20000042e90009003300e0cf500007003200e6
:104b300004c4b30084cf500004003e000141e900ea
:104b40008040e90000802000ce0107000000060040
:104b50000001be00006021006102200074ee070029
:104b60000002e900441188000400280004118800b4
:104b700004402000141188008560a9009560a800f9
:104b800000000600f60b2000143a800004036300c6
:104b9000640420007505200027742000844b7800f1
:104ba000854b7800864b780006fe2f002735800065
:104bb00007036300a600b30026358800f60f2e0019
:104bc00057368000070363000630b300563688006e
:104bd000163a80000660a00027742000844b7800fd
:104be000854b7800864b780000000600889fbe0049
:104bf0000004be00e3ff07000800be00d4ff07006a
:104c00004f04be000000060040ccbf0041ccb600ff
:104c10000080fb000000ea004f00de0000000600fc
:104c200006c420001643780015c420009542780081
:104c300000c2eb00854f53000b00320014c420006b
:104c400014427800f443b2000440780041ecb7000d
:104c500014c42000144278000482fb0005c0200028
:104c600065427a00416cec000440780000000600c8
:104c70000080fb002011880000000600801f7800e3
:104c8000849fbe00861f78000200fa008560a9009c
:104c900034118000e4ff9f0005c420009542780095
:104ca00014c42000144278008582fb000482fb00bb
:104cb00084825200f4032000848f52000c003e00d6
:104cc00004c4200014427800f443b2000440780089
:104cd00040ecb70004c42000144278000482fb00ba
:104ce00005c020006ffb970086727a00406cec00d4
:104cf0000080fa004f0378004f02be004f0078009a
:104d000000400600e40f50000b003e000000400091
:104d100044ef2900e40278000002eb00840a7800e6
:104d2000e5f02900e5027800840a780045f02900c2
:104d3000e5027800840a78000000060000004000c8
:104d400044ef29006402780005032000148a7200f1
:104d500044f0290064027800000aeb00e4f0290026
:104d60006402780005192000858f5000010036008c
:104d700085007800c6092000068bb900060a780075
:104d8000000006000000400044ef290064027800a3
:104d9000f5fc2f00148a620044f0290064027800b8
:104da000000aeb00e4f0290064027800753e200060
:104db000858f5000010036008500780086022000b3
:104dc000068bb900060a78000000060000024000c9
:104dd00045ef290065027a0005002800148a720058
:104de000e20f50000b003e00e4ef29006440780021
:104df0000080fb00140020000020dd000082ea009b
:104e00000002fd008420b6000002fd009420b700df
:104e10000a003700e4ef2900644078000080fb00be
:104e2000140020000020dd000082ea000002fd00e6
:104e30008620b6000002fd009620b70000000600a4
:104e40000002400045ef290065027a0014f0a1003d
:104e5000e20f500009003e00e4ef290064407800b2
:104e60000080fb00140020000020dd000080ea002c
:104e70008420b6009420b60008003700e4ef290033
:104e8000644078000080fb00140020000020dd005a
:104e90000080ea008620b6009620b60000000600da
:104ea00004ceb3008442400010c0b300e4c5b30098
:104eb00084cf5200010036000040eb0000000600e5
:104ec0000382fb004722dd000281fb000202420058
:104ed0000402400000ceb30000c0400052c0b30046
:104ee0000440bc0075d1290005014100e5024200e3
:104ef000525a7800850f5200fdff3a00000006006c
:104f0000889fbe008a9fbe008c1f780080057800b5
:104f1000014478008244780003457800b4c7b300a8
:104f200084cf54001c003e0008407800dcff0700de
:104f3000e04f50000a003200a46280006502420087
:104f40000404b200a46288008a4178000941780014
:104f5000884078000b007800d9ff07000e0037006a
:104f6000ea4f54000c003200e94f54000a003a00a6
:104f70008a4178000941780001c2b3000b00780033
:104f8000dfff07008a4178000941780001c2b300c1
:104f90000b007800daff07004f0678004f05be00cf
:104fa0004f04be0000000600889fbe008a9fbe001e
:104fb0008c9fbe008004780081067800024678004d
:104fc0008345780004457800e04f55000a00320020
:104fd0000d0478008b4178000c417800b8407800cf
:104fe00009007800c6ff0700e58444000d42540024
:104ff0008a4f5200f7ff39004f06be004f05be0032
:105000004f04be0000000600889fbe008a9fbe00bd
:105010008b00070072fe07000000eb0039ff07005d
:10502000110020000000eb0044ff07000000eb002f
:1050300066ff070077fe070084f12900841f7800cf
:1050400011c0b3000140780096fe070067fe07001c
:1050500000002600112620007c0007008f87e90051
:105060000044eb006af22900ebf2290024c520007d
:1050700014427800e04f5200fcff320065fe07004a
:105080008804fb000982fb00841f78008a1f7800d7
:1050900011c0b3000140780082fe0700891f78002c
:1050a0008b1f780021c0b30010c0b3007dfe070045
:1050b00041c1b3000140780099fe07004bfe070094
:1050c00025168000c42ade008582ea00e1826200a3
:1050d000c42add00f4fe2f002616800006026200be
:1050e00005027200241688000844e800526cef00a4
:1050f000e8875700ddff3700801f7800849fbe00df
:105100008460a900502cec0085628000140220000d
:10511000848f520003003a0010c0b30052ecb70075
:10512000502cef004f02be004f00780000400600f8
:1051300041e2a9004382a9004362a9004342a900b9
:105140004302a90042c2a80042a2a80030002000e9
:105150004222b70034ff2f001512800005026200c2
:105160000440a0001412880041e2a80000000600dc
:10517000f60b2000143a800004036300640420004e
:105180007505200027742000844b7800854b78003b
:10519000864b7800f60f2e00473680000703630029
:1051a00007702000070373004636880006fe2f00b4
:1051b00047368000070363000630a00046368800ab
:1051c000163a80000660a00027742000844b780007
:1051d000854b7800864b780000000600e4ff07004e
:1051e000d3ff0700000006000080fb00401288008b
:1051f0004002ab00feff32004012800000000600bb
:1052000004fe2f00253a8000050262000420a00061
:10521000243a880004e02f00353a8000050262003d
:105220000470a000343a8800f0f32f004427b60041
:10523000000006002ca3ef00c082a90000000600b9
:0c524000efff0700fbff07000000060066
:020000040000fa
:10524c00f03fb1000180b10006003500ee0309000b
:10525c0000000000403fb1000180b100fbff3d00a9
:10526c001000b000203fb0000200350000800900a3
:08527c00000000000000060024
:020000040000fa
:105284000281fb004312de004722dd008180fb0027
:105294008100420001004000670161001400200009
:0c52a4000221dd0010487100000006002f
:00000001FF
