:020000040000fa
:080000000002040000000000f2
:020000040000fa
:100400000f8520000e7724000e01880000000000f8
:1004100000012000200288000c00070060802000fe
:100420000100200011000700000020000000e00093
:10043000020032000000020000000000d8070200a5
:10044000000000000040da000000fe004440a90067
:10045000800520000000e0000300320000002000c2
:10046000a00188004440a800000006009101880017
:10047000800078000000eb0015003700e2804000ab
:1004800032a0b4009101ba00e280400032a0b40072
:100490009102ba00e280400032a0b4000002eb00fa
:1004a000472bde00f507b200602ce10004003a00a3
:1004b0000059eb008301e900fdff3e000400370016
:1004c0006128e100010032000082eb000400070017
:1004d0001101ba000200e000e8ff3a000000060047
:1004e0003159ba008301e9000c0032002159ba00e9
:1004f0008301e900080032000400e00003003a0034
:10050000e280400032a0b400f5ff370011d9ba00f4
:100510008301e900faff3a008100e800e180400031
:1005200032a0b400000006004406040000000000f1
:100530004a0604000000000050060400000000000d
:1005400056060400000000005c06040000000000e5
:1005500062060400000000006806040000000000bd
:100560006e06040000000000740604000000000095
:100570007a0604000000000080060400000000006d
:10058000860604000000000092060400000000003f
:1005900098060400000000009e0604000000000011
:1005a000a406040000000000aa06040000000000e9
:1005b000b006040000000000b606040000000000c1
:1005c000bc06040000000000c20604000000000099
:1005d000c806040000000000ce0604000000000071
:1005e000d406040000000000da0604000000000049
:1005f000e0060400000000000040da000000fe00f9
:100600006022b800060220000000d0008180d200e5
:100610000482d2008582d2000000a00002025200b3
:1006200083825a00030031000202420083824a00a2
:100630000000a1000603e900f3ff3a0000000600f5
:020000040000fa
:10000800fc020000fc020000fc020000fc020000f0
:10001800fc020000fc020000fc020000fc020000e0
:10002800fc020000fc020000fc020000fc020000d0
:100038002c040000fc020000fc020000fc0200008e
:10004800fc020000fc020000fc0200003205000077
:10005800fc020000fc020000fc020000fc020000a0
:10006800fc020000fc020000fc020000fc02000090
:10007800fc020000fc020000fc020000fc02000080
:10008800fc020000fc020000fc020000fc02000070
:10009800fc020000fc020000fc020000fc02000060
:1000a800fc020000fc020000fc020000fc02000050
:1000b800fc020000fc020000fc020000fc02000040
:1000c800fc020000fc020000fc020000fc02000030
:1000d800fc020000fc020000fc020000fc02000020
:1000e800fc020000fc020000fc020000fc02000010
:1000f800fc020000fc020000fc020000fc02000000
:10010800fc020000fc020000fc020000fc020000ef
:10011800fc020000fc020000fc020000fc020000df
:10012800fc020000fc020000fc020000fc020000cf
:10013800fc020000fc020000fc020000fc020000bf
:10014800fc020000fc020000fc020000fc020000af
:10015800fc020000fc020000fc020000fc0200009f
:10016800fc020000fc020000fc020000fc0200008f
:10017800fc020000fc020000fc020000fc0200007f
:10018800fc020000fc020000fc020000fc0200006f
:10019800fc020000fc020000fc020000fc0200005f
:1001a800fc020000fc020000fc020000fc0200004f
:1001b800fc020000fc020000fc020000fc0200003f
:1001c800fc020000fc020000fc020000fc0200002f
:1001d800fc020000fc020000fc020000fc0200001f
:1001e800fc020000fc020000fc020000fc0200000f
:0801f800fc020000fc02000003
:020000040000fa
:10020800fc020000fc020000fc020000fc020000ee
:10021800fc020000fc020000fc020000fc020000de
:10022800fc020000fc020000fc020000fc020000ce
:100238002c040000fc020000fc020000fc0200008c
:10024800fc020000fc020000fc0200003205000075
:10025800fc020000fc020000fc020000fc0200009e
:10026800fc020000fc020000fc020000fc0200008e
:10027800fc020000fc020000fc020000fc0200007e
:10028800fc020000fc020000fc020000fc0200006e
:10029800fc020000fc020000fc020000fc0200005e
:1002a800fc020000fc020000fc020000fc0200004e
:1002b800fc020000fc020000fc020000fc0200003e
:1002c800fc020000fc020000fc020000fc0200002e
:1002d800fc020000fc020000fc020000fc0200001e
:1002e800fc020000fc020000fc020000fc0200000e
:1002f800fc020000fc020000fc020000fc020000fe
:10030800fc020000fc020000fc020000fc020000ed
:10031800fc020000fc020000fc020000fc020000dd
:10032800fc020000fc020000fc020000fc020000cd
:10033800fc020000fc020000fc020000fc020000bd
:10034800fc020000fc020000fc020000fc020000ad
:10035800fc020000fc020000fc020000fc0200009d
:10036800fc020000fc020000fc020000fc0200008d
:10037800fc020000fc020000fc020000fc0200007d
:10038800fc020000fc020000fc020000fc0200006d
:10039800fc020000fc020000fc020000fc0200005d
:1003a800fc020000fc020000fc020000fc0200004d
:1003b800fc020000fc020000fc020000fc0200003d
:1003c800fc020000fc020000fc020000fc0200002d
:1003d800fc020000fc020000fc020000fc0200001d
:1003e800fc020000fc020000fc020000fc0200000d
:0803f800fc020000fc02000001
:020000040000fa
:0200000401f009
:04001c00dfff000002
:020000040000fa
:0200000401f009
:04001800f7000000ed
:020000040000fa
:0200000401f009
:040014005f00000089
:020000040000fa
:0200000401f009
:0400100046000000a6
:020000040000fa
:0200000401f009
:04000c0000000000f0
:020000040000fa
:0200000401f009
:0400080007000000ed
:020000040000fa
:0200000401f009
:04000400cf00000029
:020000040000fa
:0200000401f009
:04000000cf0000002d
:020000040000fa
:10064000440600004a06000050060000560600005e
:100650005c06000062060000680600006e060000ee
:10066000740600007a06000080060000860600007e
:1006700092060000980600009e060000a4060000f6
:10068000aa060000b0060000b6060000bc06000086
:10069000c2060000c8060000ce060000d406000016
:1006a000da060000e006000004010000100100006e
:1006b000120100001e0100002001000003070000dd
:1006c000080b00000c000000000100000601000003
:1006d0000a010000140100001801000002010000de
:1006e0000c0100000e0100001a0100001c010000b6
:020000040000fa
:1006f000440e2000041988000042e9000482fb0037
:100700004222dd0004a0a00014198800f4f32100a7
:100710002419880024002000941988000002eb00ae
:100720003419880044198800000006000400fa000b
:100730000042eb00c4ff9f000002eb00f4bf9f00eb
:100740004ffa9700e34f520009003e007fba97002e
:1007500030024200f4bf9f004ffa97000442e800c5
:10076000c4ff9f004ffa9700e34f5200f7ff360097
:100770007fba97004222de00840878000080fa00e9
:1007800000000600041c80000440a1000450a000ea
:10079000041c8800041c80000400a1000410a000b8
:1007a000041c880004302000441c880074012000d0
:1007b000541c8800d4002000141c880004782000f9
:1007c000241c8800047c2000341c88008480a9003c
:1007d0009480a80081e3a900000006001500200015
:1007e000002add000480ea002c23b6008128dd0009
:1007f0008182ea008002fd002c23b6008002fd0009
:10080000040078003023b700010078003023b700df
:1008100020c0b300b6ff0700daff0700f0ff2d008d
:100820008420b6009420b6000000060000002800d6
:100830002023b70081e3a8000000060021e3a900ff
:1008400081e3a9000000060000004000248420008d
:1008500064007800000006003600f800809fbe00ab
:10086000829fbe00849fbe00869fbe00e48420005d
:1008700014427800e04f520013003a002184200017
:1008800000782400a9ff070041842000807824001c
:10089000a6ff07006184200000792400a3ff070061
:1008a0008184200080792400a0ff0700a18420001b
:1008b000007a24009dff0700c1842000807a240074
:1008c0009aff07001200370021842000007c2400da
:1008d00096ff070041842000807c240093ff0700de
:1008e00061842000007d240090ff070081842000a7
:1008f000807d24008dff0700a1842000007a240061
:100900008aff0700c1842000807a240087ff070047
:100910004e08aa008480a9004f03be004f02be000b
:100920004f01be004f00be003600f9000040060037
:100930000001be00006021006102200030ff0700be
:100940000002e90044118800040028000411880016
:1009500004402000141188008560a9009560a8005b
:1009600000000600f60b2000143a80000403630028
:10097000640420007505200027742000844b780053
:10098000854b7800864b780006fe2f0027358000c7
:1009900007036300a600b30026358800f60f2e007b
:1009a00057368000070363000630b30056368800d0
:1009b000163a80000660a00027742000844b78005f
:1009c000854b7800864b780000000600889fbe00ab
:1009d0000004be00b1c0b300a0c0b300e1ff070037
:1009e0000800be00d2ff07004f04be000000060052
:1009f00040c8bf0041c8b6000080fb000000ea000c
:100a00004f00de0000000600068420001643780038
:100a1000158420009542780000c2eb00854f5300fa
:100a20000b0032001484200014427800f443b2001a
:100a30000440780041e8b700148420001442780094
:100a40000482fb000580200065427a004168ec00ca
:100a500004407800000006000080fb0020118800a0
:100a600000000600801f7800849fbe00861f78006b
:100a70000200fa008560a90034118000e4ff9f00a5
:100a800005842000954278001484200014427800e8
:100a90008582fb000482fb0084825200f403200064
:100aa000848f52000c003e00048420001442780021
:100ab000f443b2000440780040e8b700048420000a
:100ac000144278000482fb00058020006ffb970031
:100ad00086727a004068ec000080fa004f037800cc
:100ae0004f02be004f00780000400600e40f5000a7
:100af0000b003e000000400044352800e40278006e
:100b00000002eb00840a7800e5362800e502780050
:100b1000840a780045362800e5027800840a7800c7
:100b20000000060000004000443528006402780000
:100b300005032000148a72004436280064027800fd
:100b4000000aeb00e4362800640278000519200052
:100b5000858f50000100360085007800c60920000e
:100b6000068bb900060a780000000600000040006d
:100b70004435280064027800f5fc2f00148a6200d6
:100b80004436280064027800000aeb00e4362800ae
:100b900064027800753e2000858f50000100360009
:100ba0008500780086022000068bb900060a7800ce
:100bb00000000600000240004535280065027a006a
:100bc00005002800148a7200e20f50000b003e005e
:100bd000e4352800644078000080fb001400200009
:100be0000020dd000082ea000002fd008420b60043
:100bf0000002fd009420b7000a003700e435280009
:100c0000644078000080fb00140020000020dd001c
:100c10000082ea000002fd008620b6000002fd000e
:100c20009620b7000000060000024000453528006d
:100c300065027a0014f0a100e20f500009003e00a6
:100c4000e4352800644078000080fb001400200098
:100c50000020dd000080ea008420b6009420b60069
:100c600008003700e4352800644078000080fb006d
:100c7000140020000020dd000080ea008620b6007d
:100c80009620b600000006000080fb00c026b700da
:100c9000000006004800dd00c026b7000000060086
:100ca0000080fb00c226b700000006004800dd00ff
:100cb000c226b700000006000080fb00c426b70073
:100cc000000006004800dd00c426b7000000060052
:100cd0000080fb00c626b700000006004800dd00cb
:100ce000c626b700000006000080fb00c826b7003b
:100cf000000006004800dd00c826b700000006001e
:100d00000080fb00ca26b7000000060055368000b0
:100d1000f50fb3004802dd000480720050368800f1
:100d2000000006000080fb00cc26b7000000060093
:100d30004800dd00cc26b700000006000080fb0064
:100d4000ce26b700000006004800dd00ce26b70022
:100d5000000006000080fb00d026b700000006005f
:100d60004800dd00d026b700000006000080fb0030
:100d7000d226b700000006004800dd00d226b700ea
:100d8000000006000080fb00d426b700000006002b
:100d90004800dd00d426b700000006000080fb00fc
:100da000d626b700000006004800dd00d626b700b2
:100db000000006000080fb00d826b70000000600f7
:100dc0004800dd00d826b700000006000082fb00c6
:100dd000040242000532280065027a0001407800d2
:100de000040001000000060041e2a9004382a900be
:100df0004362a9004342a9004302a90042c2a800dd
:100e000042a2a800300020004222b70034ff2f0089
:100e100015128000050262000440a0001412880030
:100e200041e2a80000000600f60b2000143a800002
:100e3000040363006404200075052000277420006b
:100e4000844b7800854b7800864b7800f60f2e0097
:100e50004736800007036300077020000703730014
:100e60004636880006fe2f004736800007036300e1
:100e70000630a00046368800163a80000660a000c2
:100e800027742000844b7800854b7800864b7800cf
:100e900000000600e4ff0700d3ff07000000060083
:100ea0000080fb00401288004002ab00feff3200d1
:100eb00040128000000006002ca3ef00c082a900b1
:100ec0000000060004082000343a88004400200096
:100ed000243a8800a509200036002000840720005d
:100ee00037742000844b7800854b7800864b78005f
:100ef00075052000160020006404200027742000df
:100f0000844b7800854b7800864b780006002700dc
:100f100005002300173a800007026300850f520086
:100f2000fcff3a0005022000163a800006826200ab
:100f3000e00f5200fcff320000000600e1ff070056
:100f4000ddff070000000600f60b2000143a8000c9
:100f5000040363006404200075052000277420004a
:100f6000844b7800854b7800864b780006fe2f0076
:100f7000e7348000070363000610a000e634880011
:100f8000f60f2e00e7348000070363000630b3003d
:100f9000e6348800163a80000660a000277420001e
:100fa000844b7800854b7800864b78000000060063
:100fb000881f7800e1ff070000202c0011002000ae
:100fc00082fe070010c4b300a3fe0700f8fe2f0046
:100fd00087fe0700e04f5000fdff32008afe070049
:100fe0009dfe0700241680004422de000482ea00f1
:100ff000610262004422dd00261680008602640041
:0c1000000482720024168800f1ff370003
:020000040000fa
:10100c00420800000e00000002000000000000007a
:10101c0000000000000000000000000000000000c4
:10102c00804700003000000000000000c0470000b6
:10103c00300000000000000000080000420000002a
:08104c0000000000000000009c
:00000001FF
