:020000040000fa
:080000000002040000000000f2
:020000040000fa
:100008001a0300001a0300001a0300001a03000074
:100018001a0300001a0300001a0300001a03000064
:100028001a030000282b00001a030000ae38000055
:1000380094310000642b00001a0300001a0300002a
:100048001a0300001a0300001a0300003a330000e4
:100058008c3300001a0300001a0300001a03000082
:100068001a0300001a0300001a0300001a03000014
:100078001a0300001a0300001a0300001a03000004
:100088001a0300001a0300001a0300001a030000f4
:100098001a0300001a0300001a0300001a030000e4
:1000a8001a0300001a0300001a0300001a030000d4
:1000b8001a0300001a0300001a0300001a030000c4
:1000c8001a0300001a0300001a0300001a030000b4
:1000d8001a0300001a0300001a0300001a030000a4
:1000e8001a0300001a0300001a0300001a03000094
:1000f8001a0300001a0300001a0300001a03000084
:100108001a0300001a0300001a0300001a03000073
:100118001a0300001a0300001a0300001a03000063
:100128001a0300001a0300001a0300001a03000053
:100138001a0300001a0300001a0300001a03000043
:100148001a0300001a0300001a0300001a03000033
:100158001a0300001a0300001a0300001a03000023
:100168001a0300001a0300001a0300001a03000013
:100178001a0300001a0300001a0300001a03000003
:100188001a0300001a0300001a0300001a030000f3
:100198001a0300001a0300001a0300001a030000e3
:1001a8001a0300001a0300001a0300001a030000d3
:1001b8001a0300001a0300001a0300001a030000c3
:1001c8001a0300001a0300001a0300001a030000b3
:1001d8001a0300001a0300001a0300001a030000a3
:1001e8001a0300001a0300001a0300001a03000093
:0801f8001a0300001a030000c5
:020000040000fa
:100208001a0300001a0300001a0300001a03000072
:100218001a0300001a0300001a0300001a03000062
:100228001a030000282b00001a030000ae38000053
:1002380094310000642b00001a0300001a03000028
:100248001a0300001a0300001a0300003a330000e2
:100258008c3300001a0300001a0300001a03000080
:100268001a0300001a0300001a0300001a03000012
:100278001a0300001a0300001a0300001a03000002
:100288001a0300001a0300001a0300001a030000f2
:100298001a0300001a0300001a0300001a030000e2
:1002a8001a0300001a0300001a0300001a030000d2
:1002b8001a0300001a0300001a0300001a030000c2
:1002c8001a0300001a0300001a0300001a030000b2
:1002d8001a0300001a0300001a0300001a030000a2
:1002e8001a0300001a0300001a0300001a03000092
:1002f8001a0300001a0300001a0300001a03000082
:100308001a0300001a0300001a0300001a03000071
:100318001a0300001a0300001a0300001a03000061
:100328001a0300001a0300001a0300001a03000051
:100338001a0300001a0300001a0300001a03000041
:100348001a0300001a0300001a0300001a03000031
:100358001a0300001a0300001a0300001a03000021
:100368001a0300001a0300001a0300001a03000011
:100378001a0300001a0300001a0300001a03000001
:100388001a0300001a0300001a0300001a030000f1
:100398001a0300001a0300001a0300001a030000e1
:1003a8001a0300001a0300001a0300001a030000d1
:1003b8001a0300001a0300001a0300001a030000c1
:1003c8001a0300001a0300001a0300001a030000b1
:1003d8001a0300001a0300001a0300001a030000a1
:1003e8001a0300001a0300001a0300001a03000091
:0803f8001a0300001a030000c3
:020000040000fa
:100400002ffa2000ee7524000e0188000000000085
:10041000000020000000e000020032000001200087
:10042000200288000c000700a080220001002000ac
:1004300011000700000020000000e0000200320070
:100440000000020000000000c235020000000000b1
:100450000040da000000fe004440a90060242000b3
:100460000000e0000300320000002000a00188002e
:100470004440a80000000600910188008000780038
:100480000000eb0015003700e280400032a0b4000d
:100490009101ba00e280400032a0b4009102ba009b
:1004a000e280400032a0b4000002eb00472bde00e7
:1004b000f507b200602ce10004003a000059eb009f
:1004c0008301e900fdff3e00040037006128e100e0
:1004d000010032000082eb00040007001101ba00a5
:1004e0000200e000e8ff3a00000006003159ba00bf
:1004f0008301e9000c0032002159ba008301e900b0
:10050000080032000400e00003003a00e2804000ee
:1005100032a0b400f5ff370011d9ba008301e90019
:10052000faff3a008100e800e180400032a0b40008
:1005300000000600a02b040000000000de2b0400d9
:10054000000000001e2c0400000000005c2c0400d1
:1005500000000000b62c040000000000c82c0400bd
:1005600000000000de2c040000000000f02c04005d
:1005700000000000062d040000000000182d0400fb
:10058000000000002e2d040000000000402d04009b
:1005900000000000562d040000000000682d04003b
:1005a000000000007e2d040000000000902d0400db
:1005b00000000000aa2d040000000000bc2d040073
:1005c00000000000d22d040000000000e42d040013
:1005d00000000000fa2d0400000000000c2e0400b2
:1005e00000000000222e040000000000342e040051
:1005f000000000004a2e0400000000005c2e0400f1
:1006000000000000722e040000000000842e040090
:10061000000000009a2e040000000000ac2e040030
:1006200000000000b83a0400000000000c3b040089
:10063000000000000040da000000fe000a00fa009e
:10064000e20f500022003e00c43d8200e10f520044
:1006500006003200872320004623200024232000a8
:1006600005232000e08f530004003a008722200079
:10067000462220002422200005222000000028001d
:100680001500600003003a00800b78000700280086
:10069000958a7300054020009482620001003a00b0
:1006a00014a0a000820278000600370094037800ae
:1006b0000710b200fdff3200b103fb00070b78000a
:1006c0008502e900e08f5200f8ff3a000800370089
:1006d00034002000c0bf9f00e2bf9f00b4bf9f0056
:1006e000d1bf9f006a8057005b0b07006fb997006e
:1006f000020078000080fa0000000600881f7800e1
:100700008a1f78004400f800080f200028028800a3
:100710000004900010059000a000900030019000af
:10072000c00190000300ca000280ca000030cb0064
:100730001a00cd004604c3000100ca004604c000f0
:100740001e04c0000605c0000100cd002100980075
:10075000050d7800eaba9700052578004400f900f5
:100760004f0578004f04780000000600801f7800d5
:100770004000b0000008eb004f007800801f7800b8
:10078000100090000018eb000018eb000008eb00d0
:100790004f007800000006004400f800020f20001f
:1007a00022028800910078003000ca003080ca0020
:1007b0000000cb002080ca000000cb003100cd003b
:1007c0004000ca000000cb000000cb000010cb00ae
:1007d0003100cd001180cc004400f900000006007b
:1007e0006022b800060220000000d0008180d20004
:1007f0000482d2008582d2000000a00002025200d2
:1008000083825a00030031000202420083824a00c0
:100810000000a1000603e900f3ff3a000000060013
:100820000002780002003700015a78000201e90056
:10083000e00f5100fcff3a000000060000027800c3
:100840008042eb00b4cf1200fdff3a000080ea00c6
:100850000000420000000600000278000c00fa00d0
:10086000820278000000eb00e18f50000d0036009e
:100870008100e900b0bf9f00f1bf9f00a4bf9f00af
:10088000c4bf9f0003017800240c2000850078007d
:10089000d4bf9f006c805700c10007002fba97009b
:1008a000004aeb000080fa0000000600d4c6b30046
:1008b0000800fa00889fbe000084fb008a9fbe00eb
:1008c000844f50003400360049e020004b062000e1
:1008d000110009000b84d800720040004300dd00c5
:1008e00000804400810578006022b80006002000e6
:1008f00007fe2300aa0020005001be004000be00f9
:10090000d70c07000002be00110009008a85d8003c
:1009100080057800e9854500c35ddd008b854400d6
:100920000203be0084bf9f0095bf9f00a6bf9f002b
:10093000b7bf9f003b02be002b03be000fb897005d
:100940009fb897002fb99700bfb99700c40c070054
:100950000002be00110009000a84d80001047800da
:100960004344dd00888444000203be0084bf9f002e
:1009700095bf9f00a6bf9f00b7bf9f003902be0072
:100980002903be000fb897009fb897002fb99700b2
:10099000bfb997001d003700ea4f50001300360022
:1009a000aa00200049e02000110009000a84d800b4
:1009b00001057800690440004355dd004344dd0033
:1009c000088444008a8444006022b80006002000a5
:1009d00007fe23003800be002801be00a00c07005f
:1009e0003902be002903be000800370044e02000a1
:1009f0004344dd00080442006022b80006002000e5
:100a000007fe23003800be002801be00940c07003a
:100a10004f05be004f04be000080fa000000060033
:100a2000d4c6b3000800fa00889fbe008a9fbe00ab
:100a3000e04f500022003d000040ea000004fb00af
:100a4000844f50000a00340044062000a900200012
:100a5000110009000404d8004ae020001100090038
:100a60008900d800e9004000c308dd0020003700fd
:100a7000ea4f50000f003400a400200011000900cc
:100a80000404d80044e02000690040004300dd0079
:100a900000004200430cdd00080242005001be008d
:100aa0004000be005403be004402be006c0c0700b0
:100ab000370037004344dd0044e0200031003700b8
:100ac0000004fb00844f5000230034004406200043
:100ad000a9002000110009000404d8004ad5200014
:100ae000110009008900d800e9004000c308dd00ba
:100af000810045008b0920008a8545003102be0037
:100b00002103be003b00be002b01be00540c0700b9
:100b10000002be00110009000904d8000104780099
:100b20004344dd00080545000203be0084bf9f006a
:100b300095bf9f00a6bf9f00b7bf9f003a02be00af
:100b40002a03be000fb897009fb897002fb99700ef
:100b5000bfb99700d5ff3700ea4f500007003400b7
:100b6000a4002000110009000404d80044d520008e
:100b7000690040004300dd00c5ff37004344dd004d
:100b800044d52000080442003800be002801be0001
:100b90004f05be004f04be000080fa0000000600b2
:100ba000ef06b000889fbe008a9fbe008c9fbe00eb
:100bb000000678008e1f78008006eb00d1979f001a
:100bc000b2af9f006000b8006011b800a0a79f00fe
:100bd000b1a79f00c2a79f00d3a79f008c09370031
:100be000df90970054c2b3008100e800d1979f00c6
:100bf000844f500007003a00010278008002eb00a9
:100c0000d0c2b30001c3b30002c2b30033c2b30009
:100c10000e0037003c0290000404b20004003200d1
:100c20001c027800004a7800040ee8000500370036
:100c30000000fb008c00780081090700e10f4000f4
:100c4000730932008d06e8007109370084037800cb
:100c5000b8c2b30034437800884f53000f0032000d
:100c600005003c00824f53000a003200834f5300be
:100c700010003a000b003700804f53000300320091
:100c8000814f53000b003a00080037000530a000e8
:100c9000eeff37000500a000ecff37000510a000b4
:100ca000eaff370005b0a000e8ff37000520a000ec
:100cb000e6ff370062826200010032000500a100f9
:100cc00068826200010032000520a1000602fb00dc
:100cd0000403b100e90f52000d003e000703780045
:100ce0000000eb003602fb006a00b9000403b1000b
:100cf00086037800000042001602fb000403b100e6
:100d0000e90f5200f7ff3600c0af9f000a0037001e
:100d10000005eb00a4c2b300caaf9f00844f53008c
:100d200005003a00bfad97008703e8004b0078004c
:100d3000bbaf9f00c0af9f00e4c2b300974f12004b
:100d40001b003a0005e0a00064425200a5b79f00d6
:100d5000d74f120003003200070378000000eb00b9
:100d60000c0037003fa997008703e800c201780014
:100d7000b2af9f00d3af9f0076c6b30000c7b300e9
:100d8000c1c6b3002fb297000e0037006a00b90049
:100d900000004200860378003602fb000403b10025
:100da000e90f5200f9ff3600d0af9f00f2ff370085
:100db00005c0a0000002eb00a5b79f00d4af9f00c4
:100dc000edff3700b7427800d7979f0086cf5200db
:100dd0003300320018003c00a4b79f0034c6b300b3
:100de00084cf5200d00032000e003c007c42520002
:100df00084cf52004400320006003c00e0cf520095
:100e00000809320004c2e90084cf5200e6003a002b
:100e10003500370084c5b30084cf5200e2003a00a9
:100e20004700370054c6b30084cf52001f00320081
:100e300028003c001f00370080cf52003f003200e6
:100e40000a003c0081cf52001c003200a4b79f0072
:100e5000f4c6b30084cf5200330032006642520021
:100e600084cf5200d0003a0012003700a4b79f0090
:100e700054c7b30084cf5200d20032006342420014
:100e800084cf5200040032006542520084cf5200e9
:100e9000c5003a0032003700e5479f002c003700bc
:100ea000a4b79f00e6479f001b003700e5479f005f
:100eb00011003700e5479f00c6003700700162004f
:100ec00005012000010032000500280004827200a4
:100ed000bcff3700afb49700e5479f0009a0a00012
:100ee000a9b79f00bb0037002fb597000a50a0009c
:100ef000aab79f00e5479f00afb597000b80a00001
:100f0000abb79f00b30037002fb097000050a00090
:100f1000a0b79f00e5479f00afb097000190a000e9
:100f2000a1b79f00ab0037002fb19700e5479f00a6
:100f30000260a000a2b79f00a6003700a4b79f00e0
:100f4000afb197000350a000a3b79f00e5479f00f3
:100f50002fb297000470a000a4b79f009d00370037
:100f6000e5479f00bfaa970045027800b5af9f00f4
:100f7000e4af9f00e00f520002003a0067f7200044
:100f8000e7af9f006fab97008002eb0001003700d6
:100f90008502e80066c27a00e04f5200fcff3a008a
:100fa000f5af9f005fac9700e00f540005003200e2
:100fb000ffac9700890f540002003100080578004b
:100fc000faaf9f007faa97000004eb00cfad970017
:100fd000848f550001003600048455002fb097001f
:100fe0000ac2b300e80460000f0032002900370095
:100ff0003c0290000404b200040032001c0278009d
:101000000a4a7800040ee800050037008c007800da
:10101000000220008a080700e10f400001003200b2
:101020008d06e8000804e900e00f5400f0ff3a00e4
:101030000084eb0017003700bc0290000504b200ea
:1010400009003200880278009c037800354378005c
:10105000864b780005047800070ee800e04f530047
:101060000a003a0011003700880278008c007800ee
:101070003500fb00b4b79f00050478007008070036
:101080003fb29700e10f4000080032008d06e800f3
:101090000600370008077800090278006fac970057
:1010a000ffac97000fb597009fb5970089027800b5
:1010b0008504e900e08f5200dfff3a00e8af9f00af
:1010c000f9af9f008ab79f009bb79f000e0478007e
:1010d00084047800e08f54004d08320009c2b30048
:1010e0000e0037003c0290000404b20004003200fd
:1010f0001c027800094a7800040ee8000500370059
:101100008c007800000220004d080700e10f40002d
:10111000010032008d06e8000804e900e00f5400e9
:10112000f0ff3a003a083700bfa897002fb39700a6
:101130004102780004047800cfc4de00090578007d
:101140008a057800b1af9f000800be000a01be000a
:101150004800de00480add000000720070026300f3
:10116000e0479f0009003200e04f500007003200c6
:10117000e14f40000500320027002000f0479f00ab
:10118000884f9f00f7af9f0003003700f8479f008c
:1011900018002000f8af9f0079f82f0089844700dd
:1011a000e9af9f007fff37006af82f001b00200087
:1011b0000a854700e5479f00eaaf9f00fbaf9f000d
:1011c00078ff37002fb09700000cb300a0b79f0046
:1011d000e5479f0004702000afb0970004826000d4
:1011e0005b0532000400210004826000020032002e
:1011f00062002000d2af9f00afb197007082610003
:10120000050032003faa97004405be004404be001a
:10121000b4af9f0006003700bfaa97004500be008c
:10122000b5af9f00b90907000004be000205be006b
:101230006022b8006033b8000800be000a01be009a
:1012400004090700e00f500004003d002fb3970091
:101250003600b300a6b79f000bf0a2000002eb001f
:101260000800be00d4879f000a01be006022b800bb
:101270006033b8005b090700e00f50003000320017
:10128000a4f82f000f0242000800be000a01be00b1
:10129000410a07005f809700a40020000000e900d9
:1012a0006300b900110009000400d800d0879f0036
:1012b000e00f500002003d000000e900d0879f00d1
:1012c0005f8797000e40ea00d5fd07000802be00c8
:1012d0000a03be00620a07000002be000203be004d
:1012e000a4a79f00b5a79f00c6a79f00d7a79f00f0
:1012f0006022b8000600200007ff2300d508070081
:10130000e00f500002003d000e02e9000b00370024
:101310006022b80006002000470224002fa097009a
:10132000bfa097004fa19700dfa19700ce0807004c
:10133000e00f5000020035000e02e800d4879f0045
:101340002fb297005f8797000410b20008003a00a0
:101350002fb297000420b20007033200e40f4700c9
:1013600003003500dfaa9700850f57008e02350075
:101370005fab9700e00f5300050032002fb29700db
:101380000420b200020032000603e900d6af9f003d
:10139000dfab9700f28f53000300360024c1b30087
:1013a000e4479f00020037002fd89700e0479f00d6
:1013b0006022b8006033b8000800be000a01be0019
:1013c00008090700e00f500063003200ef4097006b
:1013d000c1df9f000140570091fd07000002be00e1
:1013e0000203be000800be000a01be00a3080700f9
:1013f0000205be000004be0094090700e4090700ce
:101400000002be000203be000800be000a01be00ca
:10141000880a07006022b8000600200007fe2300ab
:1014200091080700e00f5000080035000800be00da
:101430000a01be006022b8000600200007fe23005b
:10144000070807000004be000205be000a01be0036
:101450000800be007d090700cfdb9700a09f9f001a
:10146000b19f9f008703fb0041eb20000702e800cb
:101470004322dd00048040008002eb000003eb000b
:10148000c59f9f00d69f9f00f7a79f003002be0018
:101490002003be002f989700bf9897004f999700a0
:1014a000df999700e4af9f00f5af9f0086b79f00dc
:1014b00097b79f000400e1000588e1000690e10075
:1014c0000798e1000b0039000400200005002a0005
:1014d0009699290097fb23000800be000a01be0070
:1014e000df0907000e02e8000004be000205be008e
:1014f00018003700ffa0970042eb2000430add00f0
:10150000040241002f989700bf9897004f999700c9
:10151000df9997005403be004402be000400e100be
:101520000588e1000690e1000798e1000a0031001b
:101530006022b80006002000470224000800be0018
:101540000a01be00c60907000e02e9000004be0041
:101550000205be00d4879f0004a02000afb0970012
:101560008482600004202000848f52004c003a00e6
:101570005fa99700f40f51000200340043012000de
:10158000d3af9f000a01be000800be002f0907006c
:101590000a01be00e0979f00f1979f008002eb00d8
:1015a0000800be00859f9f000003eb005faf97001f
:1015b000969f9f00e0af9f00f1af9f0082b79f0012
:1015c00093b79f006f949700ff9497000f9d97002b
:1015d0009f9d9700090037000800be000a01be0069
:1015e0000e07e900a4002000050020006033b800c9
:1015f000c30a07000205be000004be00e00f54004d
:10160000e08f5c00e00f5d00e08f5d000b003200ba
:10161000a4002000050020006033b8000800be00d0
:101620000a01be00bd0a0700e00f5000e08f58001d
:10163000e00f5900e08f5900e7ff32008e0078007c
:10164000e8979f00f9979f008a9f9f009b9f9f00ac
:101650006f409700d1af9f006fac9700ffac970031
:101660000fb597009fb597000002fb00848f5000d4
:101670000b003d0001405000e9fc07000002be00e5
:101680000203be000800be000a01be00fb070700ff
:10169000afda97000004be000205be00e5479f00d8
:1016a0004fab9700dfab970065025300070752006e
:1016b000e08f530004003a00048020002fb0970010
:1016c00004026000010032000e07e900afb097008d
:1016d00063826000010032000e07e9002fb197001d
:1016e000640261003a003200620361003c02900033
:1016f000e1026100e00f5300100032000404b20068
:10170000080032001c037800b4c2b300e08f52001e
:101710000100320004c2e800044b7800060ee80025
:1017200014003700b0022000e08f520001003200a8
:101730000080e8008c0078000b003700e08f52003a
:101740001f0032000404b200050032009c02780041
:1017500004c2b300844a7800050ee8000500370093
:101760008c00780000022000b5060700e10f400061
:10177000130032008d06e800110037003c02900093
:101780000404b200040032001c027800054a78000c
:10179000040ee80007003700c5b79f008c007800f2
:1017a00000032000a6060700cfb29700e10f40001b
:1017b000010032008d06e8000e07e9000100370045
:1017c00005c3b300e00f5700ecff3c003e003700bc
:1017d000afb197006882610015003a001100370030
:1017e0003c0290000404b200040032001c027800a5
:1017f000054a7800040ee80007003700c5b79f00cf
:101800008c007800000220008d060700cfb2970000
:10181000e10f4000010032008d06e8000e07e900ec
:101820000100370005c2b300e00f5700ecff3c0099
:101830002fb29700afb3970062036200e1826300aa
:101840003c029000e00f5300100032000404b2008c
:10185000080032001c037800b4c2b300e08f5200cd
:101860000100320004c2e800044b7800060ee800d4
:1018700014003700b0022000e08f52000100320057
:101880000080e8008c0078000b003700e08f5200e9
:101890000d0032000404b200050032009c02780002
:1018a00004c2b300844a7800050ee8000500370042
:1018b0008c0078000002200061060700e10f400064
:1018c000010032008d06e8000a01be000800be00db
:1018d0000005eb005d0807008004eb003c0290006f
:1018e000ef459700e09f9f00f19f9f0089a79f0011
:1018f0009aa79f000404b2008b02fb00890f5200dc
:1019000011003200432add0045eb200084824200b2
:101910001c0478006f989700ff9897000fa197001c
:101920009fa197005503be004502be00f4090700c1
:101930000043b000004c7800080ee800e04f500073
:1019400010003a0010003700432add0045eb20006c
:10195000848242006f989700ff9897000fa197002c
:101960009fa197005503be004502be00e409070091
:101970008c0078000003b00031060700e10f400042
:10198000010032008d06e8006f4097000002fb0066
:10199000c322dd0044eb2000050242006f9897004f
:1019a000ff9897000fa197009fa197005403be00d6
:1019b0004402be00d9090700dfaa9700e0af9f00ec
:1019c000f1af9f0082b79f0093b79f00e08f520056
:1019d00004003a00048020002fb397000402630043
:1019e000720032003c0290000404b2000500320094
:1019f0009c027800e4c2b300844a7800050ee80037
:101a0000050037008c007800e00220000c0607007b
:101a1000e10f4000010032008d06e8002fb597006d
:101a2000ef4597000a20b20049eb20004400370040
:101a3000e00f55000d0032006fa89700ffa8970037
:101a40000fb197009fb19700e00f5000e08f580052
:101a5000e00f5900e08f590004003a008040eb008d
:101a60000004eb00e1479f004d0037003c0290006e
:101a70008502fb000404b20011003200c32add001d
:101a8000858244001c0478005503be004502be0058
:101a90006fa89700ffa897000fb197009fb197001c
:101aa0009709070005c3b30005424000044c7800c5
:101ab000080ee800e04f520011003a001100370014
:101ac000c32add00858244006fa89700ffa8970015
:101ad0000fb197009fb197005503be004502be00ad
:101ae000870907008c0078000403200000024200f0
:101af00004007800d2050700e10f40000100320029
:101b00008d06e8006f4397000602fb004322dd00cc
:101b1000048244006fa89700ffa897000fb19700b8
:101b20009fb197005403be004402be007b0907002a
:101b3000e0af9f00f1af9f0082b79f0093b79f0077
:101b40006f4297008442e900e5479f00e04f520052
:101b5000b7ff3a000b02fb00dfaa97000484520093
:101b60000f0037003c0290000404b2000400320071
:101b70001c027800094a7800040ee80005003700ce
:101b80008c00780000032000ad050700e10f400045
:101b9000010032008d06e8000804e900010037006a
:101ba00009c3b300e00f5400eeff3a00afb2970054
:101bb0003c0290000502b200080032000404b200aa
:101bc000030032009c02780054c4b30007003700c1
:101bd0008c00780050042000090037000404b20093
:101be000050032009c02780054c6b300844a780095
:101bf000050ee800050037008c0078005006200034
:101c00008f050700e10f4000010032008d06e8005b
:101c10005f829700bc029000e00f52000d003d0073
:101c20000402ea00d4879f00050278000404b20091
:101c3000050032009c027800d4c2b300844a7800c8
:101c4000050ee800100037008c007800d00220005c
:101c50000a003700050278000404b20005003200d3
:101c60001c027800b6c2b300064a7800040ee800f1
:101c7000050037008c007800b002200070050700d6
:101c8000e10f4000010032008d06e8003c029000a8
:101c90005f8097000404b2000b0032009c027800c1
:101ca000a400200007c3b300110009000400d800fd
:101cb00007424000844a7800050ee800e04f5200d9
:101cc00009003a0009003700a400200011000900b3
:101cd0000400d8008c0078000003b000580507000d
:101ce000e10f4000010032008d06e8003c02900048
:101cf0005f8097000404b2000b0032009c02780061
:101d0000a400200008c3b300110009000400d8009b
:101d100008c24000844a7800050ee800e04f5200f7
:101d20000a003a000a003700a40020001100090050
:101d30000400d80000032000010040008c0078005f
:101d40003f050700e10f4000010032008d06e8006a
:101d5000afb49700688264002d053200e00f570091
:101d60002b05340008c2b3003c0290000404b2000a
:101d7000040032001c027800084a7800040ee800d3
:101d8000050037008c007800000220002c050700b9
:101d9000e10f4000010032008d06e8000e07e90067
:101da000f1ff3a001a053700e00f570004003d002c
:101db0005fa897000e82ea0004004000d0af9f00a9
:101dc0000800be000a01be00ef0607000802be00c0
:101dd000e0af9f00f1af9f0082b79f0093b79f00d5
:101de0000a03be0041eb20000040eb00f4a79f0077
:101df00085af9f0096af9f00a7af9f000c003700f4
:101e00003102be003103be006fac9700ffac9700fb
:101e10000fb597009fb597000440e10005c8e100a9
:101e200006d0e10007d8e100030039000040e800d7
:101e3000f44f5000f2ff3a000002fb007fa497002d
:101e40008fac97001fad9700afad97005fa89700cc
:101e500004005000d0af9f00f80f500009003c0074
:101e60002fd8970091fa07000002be000203be00bf
:101e70000800be000a01be00790507000004be008c
:101e80000205be002fd89700e5fa07000002be0049
:101e90000203be006fa89700ffa897000fb197003c
:101ea0009fb19700f4a79f0085af9f0096af9f005a
:101eb000a7af9f000b0707000002be000203be0091
:101ec0000800be000a01be00da0707000002be00db
:101ed0000203be007fa097008fa897001fa997005c
:101ee000afa997005e070700a70607000802be001b
:101ef0000a03be005faf9700e4af9f00f5af9f00fd
:101f000086b79f0097b79f000205be000004be0081
:101f1000090037000800be000a01be00a40020002e
:101f2000050020006033b800750807000e07e900bf
:101f30000205be000004be00e00f57001b00320087
:101f4000a4002000050020006033b8000800be0097
:101f50000a01be0071080700e00f5000e08f580032
:101f6000e00f5900e08f5900eaff32008e0278003e
:101f7000d5af9f000f0037005fab9700f80f5300fd
:101f800010003c000640780048fa07000002be003e
:101f90000203be000800be000a01be0030050700b3
:101fa0000004be000205be00060037008e03780064
:101fb000d7af9f006fac9700ffac97000fb59700ad
:101fc0009fb597005f879700e90f570011003c000d
:101fd0006022b8006033b8000800be000a01be00ed
:101fe00000060700e00f50002c0032000800be0081
:101ff0000a01be0064060700e00f5000e08f5800a1
:10200000e00f5900e08f590024003a00e10f57001b
:10201000220034000400200005002e00b6e022005b
:10202000170124002fa09700bfa097004fa1970091
:10203000dfa1970087050700e00f500002003d0078
:10204000730757000100370072075700de879f00b3
:102050002f48970072fa07000002be000203be007c
:102060000800be00a4a79f00b5a79f00c6a79f00b9
:10207000d7a79f000a01be006044b8006055b800b1
:102080007e05070040060700e0af9f00f1af9f000c
:1020900082b79f0093b79f00110037000800be0071
:1020a0000a01be0038060700e0af9f00f1af9f00b5
:1020b00082b79f0093b79f008a0607000002be0008
:1020c0000203be000800be000a01be005907070057
:1020d0000002eb00d4879f000004be000205be0092
:1020e0000802be000a03be00c1eb200010c0b3000e
:1020f000d4b79f00e5b79f00f6b79f0087bf9f004a
:10210000100037003104be003105be006faa9700f1
:10211000ffaa97000fb397009fb39700f8a79f00ff
:1021200089af9f009aaf9f00abaf9f000820e100ee
:1021300009a8e1000ab0e1000bb8e1000300390092
:102140000040e800f44f5000eeff3a00cfaa97009d
:102150005f8297005fab970004825200afb3970095
:10216000060752005fb49700efb497007fb5970061
:102170008fbd97000002fb00e0479f000407570057
:102180000480200004826300c4af9f0002003a0074
:10219000e00f5300010032000e07e9002fb0970056
:1021a00063026000010032000e07e900afb0970043
:1021b000648260003b00320062826000e182600065
:1021c000e00f5200110032003c0290000404b20003
:1021d000080032001c037800b4c2b300e08f520044
:1021e0000100320004c2e800044b7800060ee8004b
:1021f00015003700b0022000e08f520001003200cd
:102200000080e8008c0078000c003700e08f52005e
:10221000200032003c0290000404b20005003200ad
:102220009c02780004c2b300844a7800050ee800de
:10223000050037008c007800000220000004070031
:10224000e10f4000130032008d06e8001100370056
:102250003c0290000404b200040032001c0278002a
:10226000054a7800040ee80007003700c5b79f0054
:102270008c00780000032000f1030700cfb2970024
:10228000e10f4000010032008d06e8000e07e90072
:102290000100370005c3b300e00f5700ecff3c001e
:1022a0006b0037002fb197006802610015003a00fb
:1022b000110037003c0290000404b2000400320018
:1022c0001c027800054a7800040ee8000700370079
:1022d000c5b79f008c00780000022000d8030700db
:1022e000cfb29700e10f4000010032008d06e800f8
:1022f0000e07e9000100370005c2b300e00f5700e8
:10230000ecff3c00afb1970062826100e1826100a6
:10231000e00f5200110032003c0290000404b200b1
:10232000080032001c037800b4c2b300e08f5200f2
:102330000100320004c2e800044b7800060ee800f9
:1023400015003700b0022000e08f5200010032007b
:102350000080e8008c0078000c003700e08f52000d
:102360003b0032003c0290000404b2000500320041
:102370009c02780004c2b300844a7800050ee8008d
:10238000050037008c00780000022000ac03070035
:10239000e10f40002e0032008d06e8002c003700cf
:1023a0003c0290008502fb000404b20013003200de
:1023b00046eb2000c32add00850243001c027800a2
:1023c0000800be000a01be00e4af9f005503be0036
:1023d0004502be004a070700a400200005002000b7
:1023e0006033b8004d070700efab970004c3b3009c
:1023f000844b4000070ee8001300370046eb200036
:10240000c32add00850243000800be000a01be00a9
:102410005503be004502be0039070700a400200096
:10242000050020006033b8003c0707008c007800ee
:10243000040320000002420004007800800307002b
:10244000e10f40000c0032008d06e8000a00370062
:102450000800be000a01be006fac9700ffac9700f9
:102460000fb597009fb59700f0a79f0081af9f0021
:1024700092af9f00a3af9f006f4297008442e90094
:10248000e5479f00e04f5200c5ff3a0013003700b8
:102490003c0290000404b200040032001c027800e8
:1024a000054a7800040ee80007003700c5b79f0012
:1024b0008c0078000003200061030700cfb2970072
:1024c000e10f4000010032008d06e8005f829700b6
:1024d0000402e900d4879f00050037007fa497001d
:1024e0008fac97001fad9700afad970005c3b30049
:1024f0005f829700e00f5200e5ff3c00dfa89700e5
:10250000f28f50000300340024c1b300e4479f0061
:10251000020037002fd99700e2479f00dfa99700fc
:10252000ef4297000502fb0004825100d4af9f00e8
:10253000e0cf520003003a004faa9700e00f52008c
:102540000e0032003c0290000404b200050032008c
:102550009c027800e4c2b300844a7800050ee800cb
:10256000050037008c007800e002200034030700eb
:10257000e10f4000010032008d06e8006f40970037
:1025800027f907000002be000203be000800be00db
:102590000a01be0049eb2000b1050700fa0407005c
:1025a000e0af9f00f1af9f0082b79f0093b79f00fd
:1025b000380037003c0290008502fb000404b200a2
:1025c00012003200c32add00858244001c0478001a
:1025d0005503be004502be006fa89700ffa89700f4
:1025e0000fb197009fb197000ac3b300c40607005c
:1025f000a4002000050020006033b800c7060700d3
:102600000a4c4000080ee80012003700c32add0023
:10261000858244006fa89700ffa897000fb197002c
:102620009fb197005503be004502be00b4060700e7
:10263000a4002000050020006033b800b7060700a2
:102640008c0078000003b000fd020700e10f40009d
:10265000010032008d06e800ef4597000b02fb00f9
:102660004322dd00048244006fa89700ffa8970072
:102670000fb197009fb197005403be004402be0003
:10268000a6060700e0af9f00f1af9f0082b79f0052
:1026900093b79f006f4297008442e900e5479f008f
:1026a000e04f5200c3ff3a000f0037003c02900099
:1026b0000404b200040032001c027800084a7800ca
:1026c000040ee800050037008c00780000032000ad
:1026d000db020700e10f4000010032008d06e80038
:1026e0008904e90002003700dfac970008c3b3009b
:1026f000e08f5400edff3a00afb2970068826200ad
:10270000c3023200e00f5700c102340008c2b30018
:102710003c0290000404b200040032001c02780065
:10272000084a7800040ee800050037008c007800a5
:1027300000022000c2020700e10f40000100320049
:102740008d06e8000e07e900f1ff3a00b0023700fd
:10275000afb29700050cb20040003a002fb39700cb
:10276000e00f530005003d003fa897004005be0064
:102770004004be00b0af9f0011003700afb097001b
:1027800070826000130032003faa97004401be002f
:1027900084027800c28f9f00d38f9f00b4af9f0048
:1027a000150290004fa2de00e48f9f00f48f9f007f
:1027b0004f8c9700df8c97006f8d9700ff8d9700ef
:1027c000e8af9f00f9af9f008ab79f009bb79f00bb
:1027d0000b003700bfac9700490278000400780076
:1027e000cf80de000101780082017800b9af9f0040
:1027f000e0af9f00f1af9f0082b79f0093b79f00ab
:102800006faa9700ffaa97000fb397009fb3970096
:10281000e00f5200e08f5a00e00f5b00e08f5b009a
:1028200034003d00afb297006fac9700ffac97004b
:102830000fb597009fb597003500b300a5b79f006f
:102840006022b8006033b8000804520089845a003e
:102850000a055b008b855b0022003700afb4970050
:10286000e08f540005003d003faa97004401be00e0
:102870004400be00b4af9f000e0037002fb3970096
:10288000f0026300100032003fad97004a04be0022
:10289000a48f9f00888f9f00998f9f00b48f9f0007
:1028a0000f8897009f8897002f899700bf8997000e
:1028b000baaf9f00e0af9f00f1af9f0082b79f00cb
:1028c00093b79f000b003700bfa897004102780024
:1028d000b1af9f0004047800090020000a00200026
:1028e0000b002000e8af9f00f9af9f008ab79f0060
:1028f0009bb79f00dfac9700e08f54000d003a00bb
:102900001a0020006fa89700ffa897000fb197004a
:102910009fb19700daaf9f00e00f5000e08f5800a2
:10292000e00f5900e08f5900020032008000eb00f8
:10293000d1af9f002fb1970004042000020cb20019
:10294000f2a79f00840f51003400320003003c00c6
:10295000e00f510008003200480037000408200052
:10296000ffa19700848f510014003200040c200056
:10297000848f510041003a00c1eb200010c0b30029
:102980003102be003103be006fac9700ffac970070
:102990000fb597009fb597000440e10005c8e1001e
:1029a00006d0e10007d8e100330039000040e8001c
:1029b000f44f5000f2ff3a002f00370010c0b30070
:1029c00004012000050020006033b8006fac9700c0
:1029d000ffac97000fb597009fb597000440e1004a
:1029e00005c8e10006d0e10007d8e1002200390067
:1029f000490020000402d0008582d2000683d20064
:102a00008783d2008904e900faff3a000040e80019
:102a1000f04f5000edff3a001700370010c0b30030
:102a200084002000050020006033b8006fac9700e0
:102a3000ffac97000fb597009fb597000440e100e9
:102a400005c8e10006d0e10007d8e1000a0039001e
:102a5000390020000402d0008582d2000683d20013
:102a60008783d2008904e900faff3a000040e800b9
:102a7000f54f5000edff3a00e0479f006f4597008b
:102a8000dfad97000a02fb008b0f520002003d00f1
:102a9000eb479f00040037005fa89700840f5000a9
:102aa00001003d00d4af9f00cfa89700e08f5000f9
:102ab000050032002fb1970063026100020032006e
:102ac0008100e900c1af9f0004002400afb197006e
:102ad00004826100090032004faa9700dfaa970024
:102ae000850f52000300340005025200c4af9f005e
:102af000020037000003eb00c6af9f00448c2000ab
:102b0000afb39700848263004408b100848f520001
:102b100006003a004fac9700e00f5400110032005d
:102b20000804e900c8af9f000e003700048c2000a5
:102b3000afb49700848264000404b100848f520013
:102b400008003a004fad9700e20f55000300340033
:102b50000a85e900caaf9f00020037008005eb003c
:102b6000cbaf9f006f4097008000eb000002fb009e
:102b7000e1a79f004fa99700840f51000200340085
:102b800004025100e4a79f00afb197006482610086
:102b90006000320062826100e1826100e00f520059
:102ba000100032003c0290000404b2000800320021
:102bb0001c037800b4c2b300e08f52000100320061
:102bc00004c2e800044b7800060ee8003a00370023
:102bd000b0022000e08f5200330032000080e80095
:102be00031003700e08f5200090032003c029000b3
:102bf0000404b200030032009c02780004c2b30057
:102c0000220037008c0078000002200027003700e7
:102c1000048c20002fb39700840263000404b100e9
:102c2000848f520025003a003c0290000404b20058
:102c3000050032009c02780004c3b300844a780087
:102c4000050ee800050037008c0078000003200026
:102c50007b010700e10f4000010032008d06e80013
:102c60003c0290002fb397000404b2000602b200a9
:102c7000e00f5200080032009c02780084c7b300c5
:102c8000e00f53000100320084c5b300844a78008d
:102c9000050ee8000800370080072000e00f530011
:102ca00001003200800520008c00780064010700dc
:102cb000e10f4000010032008d06e800efa397000d
:102cc000e08f53008800320008c3b3008704780007
:102cd0003c0290000404b200040032001c027800a0
:102ce000084a7800040ee800050037008c007800e0
:102cf0000003200052010700e10f400001003200f4
:102d00008d06e8008904e900f1ff3a00e9a79f0079
:102d1000750037006fa49700e00f540015003200d3
:102d2000afb497006882640012003a00efa49700e5
:102d300008c2b3003c0290000404b2000400320058
:102d40001c027800084a7800040ee80005003700ed
:102d50008c0078000002200039010700e10f4000dc
:102d6000010032008d06e8008904e900f1ff3a0015
:102d7000e9a79f002fb5970062026500e102650098
:102d8000e00f5200110032003c0290000404b20037
:102d9000080032001c037800b4c2b300e08f520078
:102da0000100320004c2e800044b7800060ee8007f
:102db00015003700b0022000e08f52000100320001
:102dc0000080e8008c0078000c003700e08f520093
:102dd0000e0032003c0290000404b20005003200f4
:102de0009c02780004c2b300844a7800050ee80013
:102df000050037008c007800000220001001070059
:102e0000e10f4000010032008d06e800048c200034
:102e1000afb59700848265000408b100848f52002a
:102e200009003a003c0290000404b20003003200a2
:102e30009c02780004c3b3001f0037008c007800a8
:102e4000000320002400370004882000848f5200f3
:102e500025003a003c0290000404b2000500320054
:102e60009c02780004c3b300844a7800050ee80091
:102e7000050037008c00780000032000f0000700f8
:102e8000e10f4000010032008d06e8003c02900096
:102e90002fb397000404b2000602b200e00f520004
:102ea000080032009c02780084c7b300e00f530092
:102eb0000100320084c5b300844a7800050ee800a2
:102ec0000800370080072000e00f530001003200a7
:102ed000800520008c007800d9000700e10f400039
:102ee000010032008d06e8005fa89700afb197009f
:102ef0000003e900f08161006332b900c230dd00f7
:102f0000040178004333dd0044eb2000c1af9f0093
:102f10000407430082979f002fb29700f3879f001a
:102f20000402b200e4879f009f003700dfaa9700e9
:102f30007fa397008502e90007042000d5af9f001a
:102f4000870f53007100320003003c00e00f530074
:102f5000080032007c003700040820007fa497009e
:102f6000840f540054003200040c2000840f5400dd
:102f700075003a00afb49700e08f54001e003d008a
:102f80003e04be002e05be006fa89700ffa8970064
:102f90000fb197009fb197000802be000a03be0060
:102fa000570407000802be000a03be00e0479f0066
:102fb0000000fb00cf80de00010178008201780074
:102fc000b80407006faa9700ffaa97000fb39700f5
:102fd0009fb397000002520081825a0002035b00f7
:102fe00083835b00e4af9f00f5af9f0086b79f002f
:102ff00097b79f002c003700ff829700e08f5200a8
:10300000210032006faa9700ffaa97003e04be007d
:103010002e05be000400be000801be00b4b79f002c
:10302000c5b79f00eef507000801be00e0479f000e
:103030000004eb000000fb00cf80de007f030700f0
:103040003fb29700cfb29700c8979f00000352008d
:1030500081835a0096979f00a7979f008003eb00fb
:10306000b7979f001f909700af9097003f919700f0
:10307000cf919700e0af9f00f1af9f0082b79f0014
:1030800093b79f00080037001e0278006fa99700d1
:10309000110009000481d800a400200011000900db
:1030a0000480d800e1479f00ef4197000343b00040
:1030b000e3479f002400370054f62000ef8297007a
:1030c000e08f52000100320044f520006fa8970005
:1030d000ffa897000fb197009fb197004fab9700e3
:1030e0000603e900050033008301d1000281d3000b
:1030f0008180d3000080d300f9ff37006f006000ab
:1031000064407800e0479f000f0037006faa9700e7
:10311000ffaa97000fb397009fb397000f949700f3
:103120000804e900050033008703d1000683d300bb
:103130008582d3000482d300f9ff37006742620022
:103140000443b000e4479f003c0290000404b20036
:10315000070032009c0278006f429700844a780092
:10316000050ee800e04f520007003a000700370064
:10317000ef4497008c0078000900fb003000070046
:10318000e10f4000010032008d06e8004fad9700ce
:103190008f95970064055500e3855500caaf9f00e1
:1031a0008b979f00680757005fa89700e00f5000bb
:1031b0005eff3a00afb097006882600014003200f2
:1031c0006fa19700e00f51001100340008c2b30056
:1031d000820478003c0290000404b2000400320033
:1031e0001c027800084a7800040ee8000500370049
:1031f0008c0078000002200011000700e10f400061
:10320000010032008d06e8008904e900f1ff3a0070
:10321000df91970013407800e0479f00e04f500097
:103220006ff63a004f0778000d0078004f06be0099
:103230004f05be004f04be00ef06b10000000600bf
:10324000889fbe00010478008084eb003802900063
:10325000e20262003b003200040378009802900012
:103260000620b20002003a00e08f520035003a001a
:103270000490a0008004780034049800f90fb20094
:10328000e08f520002003a00a8029000050c78007e
:10329000ea8f540005003a000408b20003003a0027
:1032a00088007800d0002000e5ff07001802900099
:1032b000d8029000850f52000b0032000402e80093
:1032c00015c0b3001404980018027800094a780069
:1032d000040ce800247b2400054a7800ea8f54009f
:1032e00018003a000500370009407800880078008f
:1032f00017000700800478001200370038029000a1
:103300000410b2000f00320018019000a8009000d5
:1033100048009000c9f4070018029000840f500084
:1033200004003200380290000403b3003404980013
:103330008084eb000002eb00140498002802900047
:10334000040c7800090078004f04be00000006005d
:103350000200fa00889fbe0001047800a0ff9f00d1
:1033600038029000840278000504b20002003200a6
:103370000000fb0035003700e202620005003a0061
:103380000403b30015049800340498000080eb0097
:103390002e003700d8049000e08f540006003a0059
:1033a00012002000e680570048009000a3f40700b8
:1033b0001904980023003700a8029000e08f520003
:1033c00008003a00657b24000430a0002504980022
:1033d000050c78003404980025002000550498005e
:1033e0001504980018019000a80090004800900073
:1033f00092f40700280290008082eb0015049800e8
:10340000affa9700054a7800040ce8002ffa9700fd
:10341000ea4f52000b003a00380290000410b2004c
:103420000800320018019000a800900048009000a9
:1034300082f407000002eb00a80290001404980038
:10344000050c78002ffa97000400fb004f04be0023
:103450000080fa000000060000c0da00000006004c
:103460002800fa00889fbe008a9fbe008c9fbe0085
:1034700007067800878669000c003b00030478008b
:103480008704780008f0a10009f0a100840f500023
:10349000858f5800860f5900890f5c0003003300a8
:1034a0000cf0a20001003a000cf0a100fe000700a1
:1034b0006400e1005f003200780147006408e10029
:1034c000610032006c014700748557003200be0075
:1034d0001201be003a04be001a05be001e03900091
:1034e000be0a90008503530006003d000004fd0065
:1034f0008104fd000205fd008305fd008703ea004d
:10350000050378000df8a3000400320060041400e5
:10351000e0841c0060051d00e0851d006022b800ed
:103520007d0320000d38e1008006eb000b00390020
:103530004433dd00f300b20083017300390037002b
:10354000848272000d027800e10664008b85d10050
:103550000a85d3008984d3000884d3008703e90057
:10356000f7ff3b0008004000898048000a0149003d
:103570008b81490004003b0060001000e0801800cf
:1035800060011900e08119000358a300090032000e
:103590008d82720084827200610260008301d1001a
:1035a0000281d3008180d3000080d3000603e800ad
:1035b0001b0037000348a30017003a000600e00094
:1035c000170034000603e9000d00a30000004800c6
:1035d0008180480002014900838149000348a3001b
:1035e0000f003a000600e000090034000603e9007d
:1035f00000004000818048000201490083814900a9
:1036000001003a000003eb000348a300f5ff32007d
:103610006022b80002003700848272006182660076
:103620007500070003f0a1000cf0a70003f0a00054
:10363000b1003700640147006408e10002003a006d
:103640000df8a300a9003a003200be001201be002e
:10365000a90037008f1fd1003b0307008f87e900c7
:103660000000e00000000600809feb00360307002a
:103670008f87e9000000e000000006002800fa0043
:10368000889fbe008a9fbe008c9fbe0003866b0091
:10369000850007006400e100440032006408e10096
:1036a0004a0032006100e100460032006108e1009a
:1036b00049003200ec0647006000b8003d02be0041
:1036c0003d03be00f48657006011b8003d04be0003
:1036d0003d05be007d0320000b0037000000a00068
:1036e0008d06e900130032000402420085824a0080
:1036f00006034b0087834b00000040008180480098
:1037000002014900838149000802520089825a005f
:103710000a035b008b835b00f0ff3b000802420062
:1037200089824a000a034b008b834b008d06e90017
:10373000edff3a008482720086827200f707b200c1
:103740008782720001003200150020001e049000e4
:103750003e0b900006035400e63fb0000368a30050
:10376000070032000000a7000500a0008301d1007f
:103770000281d3008180d3000080d3000603e800db
:103780008301d1000281d3008180d3000080d30067
:103790000002eb000482d2001700070003f0a10032
:1037a0000cf0a70003f0a0005300370064024700ac
:1037b0006408e1004d0032003400be003401be0058
:1037c000f6ff37006108e100480032006011b800e0
:1037d0006000b800f1ff370003ff2700020020005f
:1037e000fbff3700801feb00d70207008f87e9003f
:1037f0000000e00000000600180020005700200034
:10380000080453000d003d000600200097fc2f0027
:103810000740e1001e0034008482720061026000f3
:103820008301d1000281d3008180d3000080d300c6
:103830000804e800f8ff3a00470020006104600037
:1038400005047400040464000d00320061004000af
:10385000e080480060014900e081490003b8a5000c
:10386000070032000603e8006538e10004003a0072
:103870008301d1000281d3008180d3000080d30076
:10388000f87f20000830e1000300350008037800cd
:103890006000b8006011b8004433dd00f300b200ee
:1038a0008301730000000600680447000294be0014
:1038b0000094be00fc0447008694be008494be00c1
:1038c00009007800e902070008007800e702070015
:1038d00099007800814f70000b003b000800be008b
:1038e000c20207004f00b10003003700f3ff2700ba
:1038f000f2ff2f006110b9004f06be004f05be0059
:103900004f04be000080fa0000000600810378002a
:10391000be0007000001be006000b8000478a300ec
:1039200013003a006220e10015003e000d0039004e
:103930008301d1000281d3008180d3008301d100b3
:103940000281d3008180d3008301d1000281d300a2
:103950008180d3000538b000c42add00f300b20036
:103960008381720007f0a70003f0a00000000600aa
:10397000f3ff2700f2ff2f006110b900fbff3700b3
:1039800003ff2700f7ff37001400fa00889fbe00ee
:103990008a9fbe008c9fbe000004be000205be00d0
:1039a000680047000a90be000890be00af02070002
:1039b0000070a7000bf0a1000bf8a30020003a0054
:1039c0009e0990000e099000fe0090006e0090008d
:1039d0009e0290003443200084825200c6ff3200d1
:1039e0000a003c00b4fc2f000428e100140034005d
:1039f0008301d1000281d3008180d3000080d300f5
:103a00008502e800faff3a00bbff3700b40020004f
:103a10000428e10007003c000000400081804800cd
:103a200002014900838149008502e900faff3a005a
:103a3000b1ff37000300280002002000010037001a
:103a40006011b8006000b800abff37001400fa0046
:103a5000889fbe008a9fbe008c9fbe000004be00ef
:103a60000205be00680047000a90be000890be0034
:103a70007e0207000070a7000bf0a1000bf8a30066
:103a800016003a009e0290003043200080825200cf
:103a9000b0fe2f000028e1000d003c00b0fc2f001c
:103aa0000028e1000d0034001e0990008e089000ef
:103ab0007e0090000501b0000201d1008180d3009a
:103ac0000080d3008502e800fbff3a008aff370040
:103ad000010028000000200087ff37006000b800c8
:103ae00085ff3700889fbe000082700004027100cd
:103af000048271002400320036432000c5002000fb
:103b00008383cf000a0039000541b1008283cf00d2
:103b1000070039000541b1008183cf00040039005e
:103b20000541b1008083cf00010039000541b1009b
:103b300085c353006022b800120032000a003b0027
:103b400084827200610260008301d1000281d3008f
:103b50008180d3000080d3000603e8008743e8009b
:103b6000f7ff3a000700370000004000818048005e
:103b700002014900838149000603e9008743e90007
:103b8000f9ff3a001cff07004f04be0000000600ca
:103b90006011b800d3ff37001400fa00889fbe0000
:103ba0008a9fbe008c9fbe00040678000004be0001
:103bb0000205be00680047000a90be000890be00e3
:103bc0002a0207006200e1000800be000a01be00f0
:103bd000040020000b003a001e029000e43fb100f8
:103be0006e009000fe0090000e0990009e0990006b
:103bf000f300b20005fe2300858171000bf0a700e1
:103c000003f0a000040e78003bff3700c70ade0077
:103c1000f107b200f50fb20008003200e1cf420018
:103c2000020032000170a00024000500810f700026
:103c3000010032000408050044000500810f7000f7
:103c400002003a00140005008502e900000040006f
:103c500081c04800fcff3b000170a000240005006b
:103c60002800fa00889fbe008a9fbe008c9fbe007d
:103c700003866b000cff07000028a30064003a00d5
:103c80000128a30067003a000008a30062003a0080
:103c90000108a30065003a001e009000be089000d5
:103ca00081064000ed3fb100f4805700ee01900026
:103cb000111ab8008e099000311bb8009e099000bf
:103cc000311cb800511db800f485570046000700ac
:103cd000fe0190003a0007008b85e8003e000700d7
:103ce0008e09900040000700ee01900034000700ac
:103cf0008b85e800380007008e099000400007001f
:103d00009e0990001b18b800890440000a854800ed
:103d1000fe019000340007008b85e80038000700a2
:103d2000ee019000300007008e0990001b18b800cb
:103d3000890440000a8548000a98a30008003a0058
:103d40000402420085824a0006034b0087834b0031
:103d500008044c0089844c000a054d008d06e900da
:103d600084827200850273004c3add008502720085
:103d70000100320015002000443ade001400b200b9
:103d80004538de00cb45dd000b007000c540de008d
:103d9000cb4ddd008b8070004549de00cb55dd004a
:103da0000b017100c551de000d03780092fe070083
:103db00003f0a1000cf0a70003f0a000cefe370036
:103dc0001b18b8008502400006834800e0834b00c2
:103dd00060044c00070037001b18b80006034000c1
:103de00087834800faff37001b18b800870340009c
:103df00008844800e0844c0060054d000000060087
:103e00001b18b8000804400089844800faff3700f6
:103e10000108a300b5fe3a005800be005801be00dc
:103e2000e3ff37000008a300b0fe3a000904780061
:103e3000f9ff370007f0a20089fd3700020ab90038
:103e4000001bb9000200b80081004200810043005d
:103e500000000600889fbe008a9fbe003004be009e
:103e60002005be000404440085844c0006054d0076
:103e700087854d000898be000a90be000440e1000e
:103e800005c8e10006d0e10007d8e10002003100da
:103e9000680040001008e8004f05be004f04be0057
:103ea000000006001000fa00889fbe008a9fbe0036
:103eb000110020000605be000404be003002be0052
:103ec0002003be00c4b79f00d5b79f00e6b79f0090
:103ed000f7b79f000802520089825a000a035b006c
:103ee0008b835b0084bf9f0095bf9f00a6bf9f0090
:103ef000b7bf9f000498be000698be004fb297005f
:103f0000dfb297006fb39700ffb397000820e1007e
:103f100009a8e1000ab0e1000bb8e1000100390096
:103f20008000eb004f05be00108810004f04be005b
:103f30000080fa00000006001400fa00889fbe000e
:103f40008a9fbe008c9fbe000006eb003e0007006b
:103f5000ccb79f00bcb79f00acb79f009cb79f0039
:103f60008cb79f000605be000404be000d042000af
:103f70004fb39700bfb29700860343002fb297005c
:103f8000e00f530004003d003d0007000f0040001b
:103f9000b0ff070003003700390007000f004000a2
:103fa000c0ff0700cfb2970095bf9f00e08f52007f
:103fb000090035002b000700140020000500200038
:103fc0006033b8000000720081807200020173004b
:103fd000838173001c0007000c06e8008d0f56005b
:103fe000e3ff3a001fba9700e00f520005003d00c2
:103ff0000802be000a03be0000fe2f000f004000b2
:1040000094ff07004faa9700e00f520008003a0003
:104010000fb497009fb497002fb59700bfb59700d6
:10402000d8b79f00e9b79f00fab79f008bbf9f00ea
:104030000c0007004f06be004f05be004f04be0037
:104040000080fa00000006000100070000000600e2
:1040500090b79f00a1b79f00b2b79f00c3b79f0062
:104060000000060001000700000006001fb09700d6
:10407000afb097003fb19700cfb1970000000600a6
:104080004f2bde00f9ff0700868373008582420014
:104090004f23de00a7b79f00868272000402420011
:1040a00095b79f00ffaa97004f2bde008582420044
:1040b0000602720084b79f006faa97004f23de00ac
:1040c0000402420086827200f5af9f004f18de00a6
:1040d00000027200e5ff0700e4af9f00000040000f
:1040e0008180480002014900838149000802be0026
:1040f0000a03be00d6ff070000fe2f0000000600e6
:10410000881f780018002000881f78008aff0700a9
:104110008f87e9004f04780000000600801feb0045
:1041200085ff07008f87e90000000600889fbe001a
:104130008a9fbe00e00f5000e08f5800e00f59004a
:10414000e08f59000c003d006044b8006055b80095
:104150000000540081805c0002015d0083815d00ed
:10416000180020001500070008003d001800070097
:104170000004eb00050037000004eb000f0007000f
:1041800002003d001200070018002000dcff0700bd
:10419000e00f5400060032006022b8006033b8001f
:1041a0000000520081805a0002015b0083815b00a5
:1041b0004f05be004f04be0000000600e00f520095
:1041c000e08f5a00e00f5b00e08f5b00000006000c
:1041d0006044b8006055b8000402540085825c0059
:1041e00006035d0087835d0000000600889fbe0017
:1041f0008a9fbe008c1f7800e00f5000e08f5800af
:10420000e00f5900e08f59000d003d006044b800f8
:104210006055b8001c0020000000540081805c0044
:1042200002015d0083815d000820e10009a8e10032
:104230000ab0e1000bb8e1000d003d0008003700b6
:104240000006eb00e00f5200e08f5a00e00f5b0029
:10425000e08f5b0006003d006044b8006055b80088
:104260000402540085825c0006035d0087835d00c4
:10427000aaff0700e00f5600060032006022b800d7
:104280006033b8000000520081805a0002015b00d8
:1042900083815b004f0678004f05be004f04be00cf
:1042a00000000600889fbe008a9fbe008c1f780019
:1042b0000006eb00e00f5000e08f5800e00f5900bf
:1042c000e08f590007003d006044b8006055b80019
:1042d0001c0020000000540081805c0002015d0091
:1042e00083815d00e00f5200e08f5a00e00f5b0019
:1042f000e08f5b0007003d006044b8006055b800e7
:104300000c00a2000402540085825c0006035d00dc
:1043100087835d007c000700e00f56000600320036
:104320006022b8006033b8000000520081805a005b
:1043300002015b0083815b004f0678004f05be00e1
:104340004f04be0000000600889fbe008a9fbe008a
:104350008c9fbe000404be000605be00809fbe0008
:10436000829fbe002f000700040678000800be00f0
:104370000a01be002b000700840678004f03be0030
:104380004f02be008d4f76007fb0970013003300c0
:10439000f0ff2f008b8f6b0006003b000d066600c0
:1043a0000c00a7000a00370007f0a600100020004c
:1043b0000a003700880f5200898f5a008a0f5b006d
:1043c0008b8f5b00030039001000200001003e00cd
:1043d0000000200007f0a7000000ea004f06be0022
:1043e0004f05be004f04be0000000600e4824000fe
:1043f0001078a30007003200640240001178a30087
:104400003400be001401be00040032000330a700d7
:10441000000006003500be001501be000330a000fc
:104420000000060005ff270005826100070032003a
:104430000428e10001003200240005000600070006
:1044400001003a00440005000408050002000700ce
:10445000f9ff3a00140005006f82610081027000cc
:10446000850271008502720000000600800078005d
:104470005002be005003be004439de00f700b20017
:10448000f37f200003016100090032000218e100ff
:1044900016003a0085017200830173008381730066
:1044a0000008200015003a004000200013003700eb
:1044b00085017200830173008381730005003a0057
:1044c00004a8be0006a8be00100020000b003700a4
:1044d0000201e9000402420085824a0006034b0003
:1044e00087834b000748a300f9ff32000740a00074
:1044f00004a8be0006a8be0020002000800098008e
:104500009200980000000600889fbe008a9fbe00af
:104510008c9fbe000404b8000506b800890446005c
:1045200060854e000606b8000a054600e0854e008c
:104530000706b8008b054600040eb8008904460043
:104540000a854e00e0854d00050eb8000a054600bc
:104550008b854e00060eb8008b0546000416b80089
:104560000a0546008b854e000516b8008b054600ef
:10457000041eb8008b0546000800be000a01be00fc
:104580004f06be004f05be004f04be0000000600ef
:020000040000fa
:10459000000000000000000000000000004f0000cc
:1045a00000000000000700000007000000140000e9
:1045b0007f1400007f140000242a00007f2a0000de
:1045c0001223000013080000646200003649000056
:1045d000552200005000000005030000000000000c
:1045e000001c0000224100000000000041220000e9
:1045f0001c000000140800003e0800001408000021
:10460000083e0000080800000050000030000000d4
:104610000008000008080000080800000060000012
:1046200060000000002000001008000004020000ec
:104630003e510000494500003e000000427f00005e
:104640004000000042610000514900004621000086
:10465000414500004b31000018140000127f00009b
:104660001027000045450000453900003c4a000085
:1046700049490000300100007109000005030000f5
:10468000364900004949000036060000494900004b
:10469000291e000000360000360000000000000067
:1046a00056360000000000000814000022410000ff
:1046b0000014000014140000141400000041000055
:1046c0002214000008020000015100000906000049
:1046d00032490000794100003e7e000011110000c7
:1046e000117e00007f49000049490000363e00006d
:1046f00041410000412200007f41000041220000b2
:104700001c7f000049490000494100007f0900006a
:1047100009090000013e000041490000497a0000fb
:104720007f080000080800007f000000417f0000b3
:104730004100000020400000413f0000017f0000d8
:1047400008140000224100007f40000040400000ab
:10475000407f0000020c0000027f00007f04000088
:10476000081000007f3e000041410000413e000073
:104770007f09000009090000063e000041510000c9
:10478000215e00007f090000192900004646000054
:104790004949000049310000010100007f0100008b
:1047a000013f000040400000403f00001f2000008b
:1047b000402000001f3f000040380000403f000044
:1047c0006314000008140000630700000870000074
:1047d0000807000061510000494500004300000047
:1047e0007f410000410000000204000008100000aa
:1047f00020000000414100007f0000000402000092
:104800000102000004400000404000004040000061
:1048100000010000020400000020000054540000c9
:10482000547800007f4800004444000038380000fd
:104830004444000044200000384400004448000084
:104840007f3800005454000054180000087e000017
:1048500009010000020c000052520000523e00000c
:104860007f0800000404000078000000447d000080
:104870004000000020400000443d0000007f000098
:104880001028000044000000004100007f400000ac
:10489000007c000004180000047800007c08000080
:1048a000040400007838000044440000443800004c
:1048b0007c14000014140000080800001414000008
:1048c000187c00007c080000040400000848000078
:1048d0005454000054200000043f000044400000f5
:1048e000203c000040400000207c00001c20000014
:1048f000402000001c3c000040300000403c000014
:104900004428000010280000440c00005050000013
:10491000503c000044640000544c0000440000007f
:104920000836000041000000000000007f00000089
:1049300000000000413600000800000002010000f5
:104940000204000002000000b62c0000c82c000089
:10495000de2c0000f02c0000062d0000182d0000b9
:104960002e2d0000402d0000562d0000682d000067
:104970007e2d0000902d0000aa2d0000bc2d00000f
:10498000d22d0000e42d0000fa2d00000c2e0000b6
:10499000222e0000342e00004a2e00005c2e000063
:1049a000722e0000842e00009a2e0000ac2e000013
:1049b0004f720000696500006e74000061740000b1
:1049c000696f00006e3a0000202500006920000099
:1049d000004f0000757400003a20000025690000b7
:1049e000004500006c6c0000617000007365000001
:1049f00064200000746900006d6500003a2000002a
:104a00002569000020730000000000000104000080
:0c4a1000104000000104000010400000f5
:020000040000fa
:104a1c000600fa001007980041479800cce2a90064
:104a2c00c402a9000042eb00044f780008003700d4
:104a3c001e0290001442780004407800370c0700e6
:104a4c001e4fe8001e0290000402e80014079800b4
:104a5c004e4290009e42780084cf5200f4ff390001
:104a6c000000000000000000c402a8000080fa0052
:104a7c00000006000600fa001007980021079800b5
:104a8c00cce2a800c402a9000002eb00040f7800dd
:104a9c00080037001e029000144278000440780091
:104aac001e0c07001e0fe8001e0290000402e80016
:104abc00140798002e0290009e027800848f5200fa
:104acc00f4ff39000000000000000000c402a80040
:104adc000080fa00000006000400fa00204798004d
:104aec0014c8b300044f78002e429000144798006d
:104afc0021c0b3000e007800c5ff07000080fa004b
:104b0c00000006000400fa0020479800ae42900016
:104b1c0044cab30004c27200044f780011c0b30041
:104b2c000e007800baff07000080fa0000000600b3
:104b3c000400fa0020479800ae42900064cab3000b
:104b4c0004c27200044f780011c0b3000e0078004c
:104b5c00afff07000080fa00000006000400fa0016
:104b6c0020479800ae429000e4cab30004c2720021
:104b7c00044f780011c0b3000e007800a4ff0700aa
:104b8c000080fa00000006000c00fa00004f9800ac
:104b9c00114f9800224f9800334f98008e4a900086
:104bac0064c2b30004c27200044f78000042eb00f0
:104bbc00144798001e4a9000244798002e4a9000f3
:104bcc00344798003e4a9000444798000042eb005e
:104bdc005447980000c2eb006447980071c0b300c2
:104bec000e0078008aff07000080fa000000060023
:104bfc000c00fa006047980071479800024f98002b
:104c0c00134f9800244f9800ee42900094c2b300ca
:104c1c0004c27200044f78000042eb001447980065
:104c2c007e429000244798000e4a9000344798002a
:104c3c001e4a9000444798002e4a90005447980012
:104c4c0071c0b3000e00780071ff07000080fa00fd
:104c5c00000006000200fa00f4c2b300044f780012
:104c6c0011c0b3000e00780069ff07000080fa0045
:104c7c00000006000200fa00e4c2b300044f780002
:104c8c0011c0b3000e00780061ff07000080fa002d
:104c9c00000006000600fa004047980051479800b3
:104cac0034cab300044f78004e4290001447980069
:104cbc005e4290002447980031c0b3000e0078008b
:104ccc0053ff07000080fa00000006000400fa0001
:104cdc00204798002e4290006f426200044f7800eb
:104cec0011c0b3000e00780049ff07000080fa00e5
:104cfc00000006000400fa00204798002e429000a5
:104d0c006f4262000444a000044f780011c0b3004d
:104d1c000e0078003eff07000080fa00000006003d
:104d2c000400fa00204798002e4290006242620074
:104d3c0005c2b300054f78001447980021c0b3009a
:104d4c000e00780032ff07000080fa000000060019
:104d5c000600fa0040479800514798004e429000d8
:104d6c00844278000574a1005e4290000474a10096
:104d7c0016c2b300064f78001547980024479800d8
:104d8c0031c0b3000e00780021ff07000080fa004c
:104d9c00000006000600fa004047980051479800b2
:104dac004e429000e74262005e4290006742620011
:104dbc0026c2b300064f7800154798002447980088
:104dcc0031c0b3000e00780011ff07000080fa001c
:104ddc00000006000400fa0020479800ae42900044
:104dec0004cbb30004c27200044f780011c0b300ae
:104dfc000e00780006ff07000080fa000000060095
:104e0c000400fa0020479800ae42900004c4b3009e
:104e1c0004c27200044f780011c0b3000e00780079
:104e2c00fbfe07000080fa00000006000400fa00f8
:104e3c0020479800ae42900004cab30004c272002e
:104e4c00044f780011c0b3000e007800f0fe07008c
:104e5c000080fa00000006000400fa0020479800c9
:104e6c002e429000f443b20085cab300054f78007f
:104e7c001447980021c0b3000e007800e4fe070030
:104e8c000080fa00000006000400fa002047980099
:104e9c00ae42900004ccb30004c27200044f780000
:104eac0011c0b3000e007800d9fe07000080fa0094
:104ebc00000006000400fa00204798002e429000e3
:104ecc00f443b20035cdb300054f78001447980079
:104edc0021c0b3000e007800cdfe07000080fa0060
:104eec00000006000400fa0020479800a4cdb3008f
:104efc00044f78002e4290001447980021c0b30054
:104f0c000e007800c2fe07000080fa0000000600c8
:104f1c000400fa0020479800314798002e42900078
:104f2c000482fb004422dd00844278003e42900063
:104f3c0004c2720055cdb300054f78001447980099
:104f4c0021c0b3000e007800b1fe07000080fa000b
:104f5c00000006000400fa002047980094cdb3002e
:104f6c00044f78002e4290001447980021c0b300e3
:104f7c000e007800a6fe07000080fa000000060074
:104f8c000400fa0020479800b4cdb300044f780019
:104f9c002e4290001447980021c0b3000e007800f8
:104fac009bfe07000080fa00000006000200fa00d9
:104fbc0034ceb300044f780011c0b3000e0078005b
:104fcc0093fe07000080fa00000006000400fa00bf
:104fdc0020479800d4c8b300044f78002e429000ac
:104fec001447980021c0b3000e00780088fe07001b
:104ffc000080fa00000006000000fa00c20a070058
:08500c000080fa00000006001c
:020000040000fa
:10501400f00c00001600000000000000960c0000d8
:10502400360000000000000000080000120000002c
:10503400000000006e4700001200000000000000a5
:10504400120800000004000000000000520d0000df
:105054000200000000000000060d00001200000025
:105064000000000080470000300000000000000045
:10507400c047000030000000000000002a0d0000be
:105084000e00000000000000180d000012000000d7
:105094000200000001054200014601005a015e00c1
:1050a40001a02b00de2b1e002c5c2c00440d000004
:1050b4000800000000000000380d00000c00000093
:1050c40002000000e001f00001e40100f401b80076
:1050d4003a0c3b00cc0c000024000000020000004d
:1050e400030708000b0c000004011000011201006a
:1050f4001e012000010201000c010e00011a010032
:105104001c010000010601000a011400011801003d
:10511400120c000084000000000000004c0d000090
:105124000600000000000000540f00002a000000e8
:105134000200000030313200333435003637380095
:1051440039414200434445004600300031323300c7
:1051540034353600373839006162630064656600af
:1051640000286e00756c6c0029000000b40e00006d
:10517400a000000002000000010000000000000088
:1051840000000a00000000000000000000640000ad
:105194000000000000000000e80300000000000020
:1051a40000001000270000000000000000a086009e
:1051b400010000000000000040420f000000000059
:1051c4000000800096980000000000000000e1004c
:1051d400f50500000000000000ca9a003b00000032
:1051e40000000000e40b5400020000000000e8008e
:1051f40076481700000000000010a500d4e8000065
:1052040000000000a0724e001809000000004000d9
:105214007a10f3005a0000000080c600a47e8d00be
:105224000300000000c16f00f286230000000000ac
:105234008a5d78004563010000006400a7b3b600ee
:10524400e00d000000e889000423c7008a00000084
:10525400540d0000b0000000020000000000000037
:1052640000000000f03f00000000000000002400e7
:105274004000000000000000005940000000000051
:10528400000040008f400000000000000088c300c0
:1052940040000000000000006af840000000000028
:1052a400008084002e41000000000000d012630042
:1052b4004100000000008400d79741000000000076
:1052c4000065cd00cd410000000020005fa0020079
:1052d4004200000000801d00af15440000000000e3
:1052e40040593e0029460000000000000000f00084
:1052f4007f0000000000000000f07f0000000000bc
:1053040000000000f07f0000000000000000f0003a
:105314007f0000000000000000f07f00000000009b
:1053240000000000f07f0000000000000000f0001a
:105334007f0000000000000000f07f00000000007b
:1053440000000000f07f0000040e0000b000000028
:10535400020000000000000000000000f03f000018
:105364000000a0009999b9003f0000000040e1004e
:105374007a843f0000000000e04d6200503f0000ce
:105384000000e000e2361a003f0000000080b50093
:10539400f8e43e0000000000a0f7c600b03e0000a4
:1053a4000000a000f2d77a003e00000000e08e006a
:1053b40079453e0000000000e00b2e00113e000085
:1053c4000000e000df7cdb003d0000000000a100e5
:1053d4009cc73b0000000000004c4800b4390000aa
:1053e40000000000206ca100370000000000000055
:1053f40000000000000000000000000000000000a9
:105404000000000000000000000000000000000098
:105414000000000000000000000000000000000088
:105424000000000000000000000000000000000078
:105434000000000000000000000000000000000068
:105444007e0f00002400000002000000b4470000aa
:1054540000b447000900000000020000b647000045
:1054640000b647000e02010000000000000000002a
:10547400000000000602020000000000b047000027
:1054840002000000020000007e0f0000b24700008e
:105494000200000000000000b44700000200000009
:1054a40000000000b64700000200000000000000f9
:1054b400b8470000020000000200000001000000e4
:0454c40000000000e4
:020000040000fa
:1054c8000400fa00000f7800214798001e027800b7
:1054d8008402420024d22000048242001402780090
:1054e8002e409000040001001e0278008402420051
:1054f800a4d1200004824200140278000502200092
:10550800050a780004032800940888000080fa003f
:10551800000006000400fa00000f78001107980048
:1055280084d120001e024200144278000482fb004d
:1055380015002000042add000482ea0084027800b5
:1055480024048000048262002404880084d120009e
:105558001e024200144278000482fb00150020005d
:10556800042add0084027800a40480000502720089
:10557800a40488001e02780084024200a4d12000fe
:1055880004824200940278001e027800040342005c
:10559800a4d1200004024300140278001403780008
:1055a8001e02900006027200840a78000080fa0049
:1055b800000006000200fa00000f780084d12000e5
:1055c8001e024200144278000482fb0015002000ed
:1055d800042add000482ea008402780024048000a2
:1055e800048262002404880084d120001e02420044
:1055f800144278000482fb0015002000042add0014
:105608000482ea0084027800a40480000482620014
:10561800a40488000080fa00000006000400fa00d4
:105628001007980045d420001e0290000402420092
:1056380004824200140f78001e02780004007800eb
:105648000080fa0000000600849fbe000400fa00f3
:10565800040a8000040f7800040a800014079800e8
:105668009e0290001e027800848f520006003600c9
:105678009e0290001e0278008482520044d42000ca
:10568800050a780007003700750880001e027800b8
:10569800848252001e0290008482420044d420007a
:1056a800050a780025048000d4ff2f0004826200d8
:1056b800240488000080fa004f02be000040060063
:1056c800849fbe000400fa00240a8000040f7800ba
:1056d800240a8000140798009e0290001e02780099
:1056e800848f5200060036009e0290001e02780049
:1056f8008482520044d42000150298000700370025
:10570800750880001e027800848252001e029000f4
:105718008482420044d420001502980025048000a9
:10572800f4fd2f0004826200240488000080fa003f
:105738004f02be00004006000200fa00004f780049
:10574800153a8000f40b20000483620064042000f2
:105758007505200027742000844b7800854b78005d
:10576800864b78009e4278007fc262000482fb006c
:105778007f0262007634800005fe2f0085026300f8
:105788000502720074348800153a80000404200071
:1057980005037200640420007505200027742000aa
:1057a800844b7800854b7800864b78000080fa009f
:1057b800000006000200fa00004f7800153a800049
:1057c800f40b2000048362006404200075052000a7
:1057d80027742000844b7800854b7800864b78002e
:1057e8009e4278007fc262000482fb007f02620052
:1057f8004822dd0076348000f50f2e008502630014
:105808000502720074348800153a800004042000f0
:105818000503720064042000750520002774200029
:10582800844b7800854b7800864b78000080fa001e
:10583800000006000200fa00004f7800153a8000c8
:10584800f40b200004836200640420007505200026
:1058580027742000844b7800854b7800864b7800ad
:105868009e4278007fc262000482fb007f026200d1
:10587800a634800005fe2f00850263000502720031
:10588800a4348800153a800004042000050372003f
:10589800640420007505200027742000844b7800dc
:1058a800854b7800864b78000080fa0000000600df
:1058b8000200fa00004f7800153a8000f40b20002f
:1058c800048362006404200075052000277420000a
:1058d800844b7800854b7800864b78009e42780090
:1058e8007fc262000482fb007f0262004822dd0062
:1058f800a6348000f50f2e008502630005027200b1
:10590800a4348800153a80000404200005037200be
:10591800640420007505200027742000844b78005b
:10592800854b7800864b78000080fa00000006005e
:105938000200fa00004f7800114798009e42780054
:105948000582fb0084024200444a2a000482420085
:10595800140278001e409000040001000080fa0044
:10596800000006000200fa00004f78001e4278008e
:105978008482fb0004368000050272000436880029
:105988000080fa00000006000200fa00004f7800cc
:105998009e4278000582fb004822dd0084027800e0
:1059a8000436800005027200043688000080fa0080
:1059b800000006000200fa00004f78001e4278003e
:1059c8008482fb00143680000502720014368800b9
:1059d8000080fa00000006000200fa00004f78007c
:1059e8009e4278000582fb004822dd008402780090
:1059f8001436800005027200143688000080fa0010
:105a0800000006000200fa00004f78001e427800ed
:105a18008482fb0024368000050272002436880048
:105a28000080fa00000006000200fa00004f78002b
:105a38009e4278000582fb004822dd00840278003f
:105a48002436800005027200243688000080fa009f
:105a5800000006000200fa00004f78001e4278009d
:105a68008482fb00343680000502720034368800d8
:105a78000080fa00000006000200fa00004f7800db
:105a88009e4278000582fb004822dd0084027800ef
:105a98003436800005027200343688000080fa002f
