:020000040000fa
:080000000002040000000000f2
:020000040000fa
:100008009a0200009a0200009a0200009a02000078
:100018009a0200009a0200009a0200009a02000068
:100028009a0200009a0200009a020000da06000014
:10003800d00400009a0200009a0200009a02000010
:100048009a0200009a0200009a020000aa03000027
:10005800ec0300009a0200009a0200009a020000d5
:100068009a0200009a0200009a0200009a02000018
:100078009a0200009a0200009a0200009a02000008
:100088009a0200009a0200009a0200009a020000f8
:100098009a0200009a0200009a0200009a020000e8
:1000a8009a0200009a0200009a0200009a020000d8
:1000b8009a0200009a0200009a0200009a020000c8
:1000c8009a0200009a0200009a0200009a020000b8
:1000d8009a0200009a0200009a0200009a020000a8
:1000e8009a0200009a0200009a0200009a02000098
:1000f8009a0200009a0200009a0200009a02000088
:100108009a0200009a0200009a0200009a02000077
:100118009a0200009a0200009a0200009a02000067
:100128009a0200009a0200009a0200009a02000057
:100138009a0200009a0200009a0200009a02000047
:100148009a0200009a0200009a0200009a02000037
:100158009a0200009a0200009a0200009a02000027
:100168009a0200009a0200009a0200009a02000017
:100178009a0200009a0200009a0200009a02000007
:100188009a0200009a0200009a0200009a020000f7
:100198009a0200009a0200009a0200009a020000e7
:1001a8009a0200009a0200009a0200009a020000d7
:1001b8009a0200009a0200009a0200009a020000c7
:1001c8009a0200009a0200009a0200009a020000b7
:1001d8009a0200009a0200009a0200009a020000a7
:1001e8009a0200009a0200009a0200009a02000097
:0801f8009a0200009a020000c7
:020000040000fa
:100208009a0200009a0200009a0200009a02000076
:100218009a0200009a0200009a0200009a02000066
:100228009a0200009a0200009a020000da06000012
:10023800d00400009a0200009a0200009a0200000e
:100248009a0200009a0200009a020000aa03000025
:10025800ec0300009a0200009a0200009a020000d3
:100268009a0200009a0200009a0200009a02000016
:100278009a0200009a0200009a0200009a02000006
:100288009a0200009a0200009a0200009a020000f6
:100298009a0200009a0200009a0200009a020000e6
:1002a8009a0200009a0200009a0200009a020000d6
:1002b8009a0200009a0200009a0200009a020000c6
:1002c8009a0200009a0200009a0200009a020000b6
:1002d8009a0200009a0200009a0200009a020000a6
:1002e8009a0200009a0200009a0200009a02000096
:1002f8009a0200009a0200009a0200009a02000086
:100308009a0200009a0200009a0200009a02000075
:100318009a0200009a0200009a0200009a02000065
:100328009a0200009a0200009a0200009a02000055
:100338009a0200009a0200009a0200009a02000045
:100348009a0200009a0200009a0200009a02000035
:100358009a0200009a0200009a0200009a02000025
:100368009a0200009a0200009a0200009a02000015
:100378009a0200009a0200009a0200009a02000005
:100388009a0200009a0200009a0200009a020000f5
:100398009a0200009a0200009a0200009a020000e5
:1003a8009a0200009a0200009a0200009a020000d5
:1003b8009a0200009a0200009a0200009a020000c5
:1003c8009a0200009a0200009a0200009a020000b5
:1003d8009a0200009a0200009a0200009a020000a5
:1003e8009a0200009a0200009a0200009a02000095
:0803f8009a0200009a020000c5
:020000040000fa
:100400004f8920000e7724000e01880000000000b4
:10041000000020000000e000020032000001200087
:10042000200288000c000700006e20000100200060
:1004300011000700000020000000e0000200320070
:100440000000020000000000ba06020000000000e8
:100450000040da000000fe004440a90040022000f5
:100460000000e0000300320000002000a00188002e
:100470004440a80000000600910188008000780038
:100480000000eb0015003700e280400032a0b4000d
:100490009101ba00e280400032a0b4009102ba009b
:1004a000e280400032a0b4000002eb00472bde00e7
:1004b000f507b200602ce10004003a000059eb009f
:1004c0008301e900fdff3e00040037006128e100e0
:1004d000010032000082eb00040007001101ba00a5
:1004e0000200e000e8ff3a00000006003159ba00bf
:1004f0008301e9000c0032002159ba008301e900b0
:10050000080032000400e00003003a00e2804000ee
:1005100032a0b400f5ff370011d9ba008301e90019
:10052000faff3a008100e800e180400032a0b40008
:10053000000006000040da000000fe006022b80063
:10054000060220000000d0008180d2000482d20088
:100550008582d2000000a0000202520083825a006d
:10056000030031000202420083824a000000a10021
:0c0570000603e900f3ff3a00000006005b
:020000040000fa
:10057c000401000010010000120100001e01000027
:10058c002001000003070000080b00000c00000015
:10059c0000010000060100000a0100001401000027
:1005ac0018010000020100000c0100000e01000007
:0805bc001a0100001c010000ff
:020000040000fa
:1005c4000001be000060210061022000daff070084
:1005d4000002e90044118800040028000411880086
:1005e40004402000141188008560a9009560a800cb
:1005f4000000060080c2900010c2900004c05200a7
:10060400000006000200fa00e1ff9f0000c2900013
:10061400f403b200effa970005707a0000c290006c
:100624000442e80004c098000080fa0000000600bc
:100634000200fa0010c29000f403b20060427a0093
:10064400e4ff9f0010c290000442e80014c0980028
:100654006ff897000080fa0000000600f60b2000f7
:10066400143a80000403630064042000750520002c
:1006740027742000844b7800854b7800864b7800e3
:1006840006fe2f002735800007036300a600b30091
:1006940026358800f60f2e005736800007036300c6
:1006a4000630b30056368800163a80000660a00073
:1006b40027742000844b7800854b7800864b7800a3
:1006c40000000600889fbe000004be00e3ff070090
:1006d4000800be00baff07004f04be000000060079
:1006e40082c8bf0083c8b6000080fb000000ea0097
:1006f4004f00de000000060020842000bdff07003c
:100704000042780000c0eb00e04f520002003200cb
:1007140020842000c6ff070000000600881f780020
:100724000044780000802000b2ff0700f4c3b30047
:10073400844f500004003e00884078000080200070
:10074400b0ff07009580a8004f0478000000060061
:10075400849fbe00861f78000200fa008560a9000d
:1007640034118000e4ff9f00258820009542780022
:1007740034882000144278008582fb000482fb0048
:1007840084825200f4032000848f52000d003e0046
:100794002488200014427800f443b2000443780013
:1007a40025882000864a7800248820001442780096
:1007b4000482fb00258420006ffb970086727a0078
:1007c4008268ec000080fa004f0378004f02be00fc
:1007d40000400600849fbe000584200095427800f6
:1007e400148420001442780084cf52000a0032009e
:1007f4001484200014427800f403b2000580200021
:1008040065427a000482fb00241188004168ec00f0
:100814008580a900010037009580a9004f02be0021
:1008240000400600440e2000041988000042e9003c
:100834000482fb004222dd0004a0a00014198800f9
:10084400f4f321002419880024002000941988005e
:100854000002eb00341988004419880000000600e7
:100864000400fa000042eb00c4ff9f000002eb000a
:10087400f4bf9f004ffa9700e34f520009003e0077
:100884007fba970030024200f4bf9f004ffa9700ee
:100894000442e800c4ff9f004ffa9700e34f520060
:1008a400f7ff36007fba97004222de008408780002
:1008b4000080fa0000000600041c80000440a1002f
:1008c4000450a000041c8800041c80000400a10043
:1008d4000410a000041c880004302000441c88007c
:1008e40074012000541c8800d4002000141c8800cb
:1008f40004782000241c8800047c2000341c880018
:100904008480a9009480a80081e3a9000000060067
:1009140015002000002add000480ea002c23b60024
:100924008128dd008182ea008002fd002c23b600cc
:100934008002fd00040078003023b7000100780035
:100944003023b70020c0b300b6ff0700daff07006a
:10095400f4ff2d0045082000950a6200400920009c
:100964001008620000000600051980000400280039
:10097400050272000419880081e3a8000000060043
:1009840021e3a90081e3a900000006000000400063
:100994004488200064007800000006003600f80057
:1009a400809fbe00829fbe00849fbe00869fbe00c3
:1009b4000489200014427800e04f520013003a00ea
:1009c4004188200000782400a5ff070061882000ea
:1009d40080782400a2ff0700818820000079240089
:1009e4009fff0700a1882000807924009cff070056
:1009f400c1882000007a240099ff0700e1882000c4
:100a0400807a240096ff07001200370041882000f6
:100a1400007c240092ff070061882000807c240071
:100a24008fff070081882000007d24008cff0700d1
:100a3400a1882000807d240089ff0700c188200050
:100a4400007a240086ff0700e1882000807a2400d1
:100a540083ff07009008aa008480a9004f03be000a
:100a64004f02be004f01be004f00be003600f90029
:100a740000400600e40f50000b003e000000400060
:100a8400e42b2800e40278000002eb00840a7800da
:100a9400852d2800e5027800840a7800e52c2800da
:100aa400e5027800840a7800000006000000400097
:100ab400e42b28006402780005032000148a7200e5
:100ac400e42c280064027800000aeb00842d28003e
:100ad4006402780005192000858f5000010036005b
:100ae40085007800c6092000068bb900060a780044
:100af4000000060000004000e42b28006402780097
:100b0400f5fc2f00148a6200e42c280064027800ab
:100b1400000aeb00842d280064027800753e200052
:100b2400858f500001003600850078008602200081
:100b3400068bb900060a7800000006000002400097
:100b4400e52b280065027a0005002800148a72004b
:100b5400e20f50000b003e00842c28006440780013
:100b64000080fb00140020000020dd000082ea0069
:100b74000002fd008420b6000002fd009420b700ae
:100b84000a003700842c2800644078000080fb00b1
:100b9400140020000020dd000082ea000002fd00b5
:100ba4008620b6000002fd009620b7000000060073
:100bb40000024000e52b280065027a0014f0a10031
:100bc400e20f500009003e00842c280064407800a5
:100bd4000080fb00140020000020dd000080ea00fb
:100be4008420b6009420b60008003700842c280026
:100bf400644078000080fb00140020000020dd0029
:100c04000080ea008620b6009620b60000000600a8
:100c140041e2a9004382a9004362a9004342a9001a
:100c24004302a90042c2a80042a2a80014128000f4
:100c34003400b3001412880034ff2f001512800012
:100c4400050262000440a0001412880041e2a800da
:100c540000000600f60b2000143a80000403630031
:100c6400640420007505200027742000844b78005c
:100c7400854b7800864b7800f70f2e0046368000af
:100c840086836300067020000703730046368800dd
:100c940006fe2f0047368000070363000630a000dd
:100ca40046368800163a80000660a00027742000ab
:100cb400844b7800854b7800864b78000000060052
:100cc400e4ff0700d2ff0700000006000080fb00dd
:100cd400401288004002ab00feff32004012800048
:100ce400000006002ca3ef00c082a900000006004b
:100cf40004082000343a880044002000243a880084
:100d0400a509200036002000840720003774200045
:100d1400844b7800854b7800864b7800750520005d
:100d2400160020006404200027742000844b7800ff
:100d3400854b7800864b78000600270005002300c9
:100d4400173a800007026300850f5200fcff3a0047
:100d540005022000163a800006826200fdff320080
:100d640000000600e2ff0700deff070000000600a7
:100d7400fcff07000000eb003eff0700110020000d
:100d84000000eb0049ff07000000eb006bff0700c9
:100d9400853e20000003eb0094448000850f520040
:100da400fdff360096448800c482aa00faff37008b
:0c0db4008460a9009228ec0000400600ba
:020000040000fa
:100dc000840800000e0000000000000080470000c2
:100dd0003000000000000000c047000030000000ac
:100de0000000000000080000840000000000000077
:100df0009208000002000000000000000000000057
:020000040000fa
:0200000401f009
:04000000ffff0000fe
:020000040000fa
:0200000401f009
:04000400ffff0000fa
:020000040000fa
:0200000401f009
:04000800ffff0000f6
:020000040000fa
:0200000401f009
:04000c0000000000f0
:020000040000fa
:0200000401f009
:0400100046000000a6
:020000040000fa
:0200000401f009
:040014005f00000089
:020000040000fa
:0200000401f009
:04001800f7000000ed
:020000040000fa
:0200000401f009
:04001c00dfff000002
:00000001FF
