:020000040000fa
:080000000002040000000000f2
:020000040000fa
:10040000afe520000e7f24000e01880000000000f0
:1004100000012000200288000c00070020ee2100cf
:100420000100200011000700000020000000e00093
:10043000020032000000020000000000c22702009b
:10044000000000000040da000000fe004440a90067
:10045000c01d20000000e00003003200000020006a
:10046000a00188004440a800000006009101880017
:10047000800078000000eb0015003700e2804000ab
:1004800032a0b4009101ba00e280400032a0b40072
:100490009102ba00e280400032a0b4000002eb00fa
:1004a000472bde00f507b200602ce10004003a00a3
:1004b0000059eb008301e900fdff3e000400370016
:1004c0006128e100010032000082eb000400070017
:1004d0001101ba000200e000e8ff3a000000060047
:1004e0003159ba008301e9000c0032002159ba00e9
:1004f0008301e900080032000400e00003003a0034
:10050000e280400032a0b400f5ff370011d9ba00f4
:100510008301e900faff3a008100e800e180400031
:1005200032a0b400000006000040da000000fe0027
:100530000002780002003700015a78000201e90049
:10054000e00f5100fcff3a000000060000027800b6
:100550008042eb00b4cf1200fdff3a000080ea00b9
:1005600000004200000006000c00fa0000027800c3
:10057000820278000000eb00e18f50000d00360091
:100580008100e900f1bf9f00b0bf9f00a4bf9f00a2
:10059000c4bf9f00240c2000d4bf9f00030178003b
:1005a000850078006c805700c10007002fba9700c3
:1005b000004aeb000080fa00000006000800fa0084
:1005c000889fbe008a9fbe000084fb00d4c6b30093
:1005d000844f5000340036004b0620001100090003
:1005e0000b84d80081057800720040004300dd00d4
:1005f00029cb2000008044006022b80006002000c3
:1006000007fe23005001be004000be00b30a0700f1
:100610000002be000203be0084bf9f0095bf9f0082
:10062000a6bf9f00b7bf9f00aa00200011000900cd
:100630008a85d80080057800e9854500c35ddd0026
:100640008b8544003b02be002b03be000fb8970011
:100650009fb897002fb99700bfb997009f0a07006e
:100660000002be000203be0084bf9f0095bf9f0032
:10067000a6bf9f00b7bf9f00110009000a84d800e1
:10068000010478004344dd00888444003902be0040
:100690002903be000fb897009fb897002fb99700a5
:1006a000bfb997001d003700ea4f50001300360015
:1006b000aa002000110009000a84d8000105780072
:1006c000690440004344dd0029cb20000884440035
:1006d0006022b8000600200007fe23003800be009c
:1006e0002801be007d0a07004355dd008a844400ce
:1006f0003902be002903be00080037004344dd0074
:1007000024cb2000080442006022b800060020002c
:1007100007fe23003800be002801be006f0a070054
:100720004f05be004f04be000080fa000000060026
:100730000800fa00889fbe008a9fbe00d4c6b3009e
:10074000e04f500022003d000040ea000004fb00a2
:10075000844f50000a0034004406200011000900b4
:100760000404d800a9002000110009008900d80065
:10077000e9004000c308dd002acb2000200037003c
:10078000ea4f50000f003400a400200011000900bf
:100790000404d800690040004300dd0024cb2000a1
:1007a00000004200430cdd00080242005403be007a
:1007b0004402be005001be004000be00470a0700d0
:1007c000370037004344dd0024cb200031003700e0
:1007d0000004fb00844f5000230034004406200036
:1007e000110009000404d800a9002000110009002c
:1007f0008900d800e9004000c308dd002ac02000bd
:10080000810045003102be002103be008b0920009b
:100810008a8545003b00be002b01be002f0a070061
:100820000002be000203be0084bf9f0095bf9f0070
:10083000a6bf9f00b7bf9f00110009000904d800a0
:10084000010478004344dd00080545003a02be007b
:100850002a03be000fb897009fb897002fb99700e2
:10086000bfb99700d5ff3700ea4f500007003400aa
:10087000a4002000110009000404d8006900400011
:100880004300dd0024c02000c5ff37004344dd00e5
:1008900024c02000080442003800be002801be0029
:1008a0004f05be004f04be000080fa0000000600a5
:1008b0002f06b000889fbe008a9fbe008c9fbe009e
:1008c0008e1f7800b0af9f00d1979f00a2af9f000e
:1008d0006000b8006011b800a0a79f00b1a79f00fa
:1008e000c2a79f00d3a79f000006eb003707370081
:1008f000df9097008100e800d1979f0054c2b300b9
:10090000844f500007003a00010278000003eb001a
:10091000d0c2b30001c3b30002c2b30033c2b300fc
:10092000070037000000fb00bfa89700330707004f
:10093000e10f4000250732000c06e80023073700ce
:1009400084037800b4427800b8c2b30088cf520064
:100950000f00320005003c0082cf52000a00320036
:1009600083cf520010003a000b00370080cf5200b6
:100970000300320081cf52000b003a00080037001c
:100980000630a000eeff37000600a000ecff3700a5
:100990000610a000eaff370006b0a000e8ff37000d
:1009a0000620a000e6ff370062026300010032006b
:1009b0000600a10068026300010032000620a100c9
:1009c0000502fb000403b100e90f52000d003e00d8
:1009d00087027800000020006a00b9003502fb00a1
:1009e0000403b10000004200850378001502fb00fb
:1009f0000403b100e90f5200f7ff3600c0af9f00bb
:100a00000a0037000005eb00caaf9f00a4c2b30084
:100a100084cf520005003a00afad97004b0078003c
:100a2000abaf9f00c0af9f008703e800e4c2b300f4
:100a3000974f120019003a00860678000de0a000da
:100a400064425200d74f12000300320007037800bf
:100a50000007eb000b003700afa8970041077800b4
:100a6000a1af9f008703e8000700780076c6b300b7
:100a700007c7b300c1c6b3000c0037006a70b900e5
:100a800000074200860378003602fb000403b10031
:100a9000e90f5200f9ff3600f3ff370086067800b1
:100aa0000dc0a0000007eb00efff3700b042780058
:100ab000d0979f0086cf52003000320017003c00d4
:100ac00034c6b30084cf5200900032000e003c00c8
:100ad0007c42520084cf52003b00320006003c00b2
:100ae000e0cf5200be06320004c2e90084cf5200bb
:100af000a5003a003000370084c5b30084cf52000f
:100b0000a1003a003700370054c6b30084cf52002a
:100b10001c00320025003c001c00370087cf52002b
:100b20003000320009003c0081cf52001900320031
:100b3000f4c6b30084cf5200270032006642520050
:100b400084cf520090003a001000370054c7b30021
:100b500084cf5200930032006342420084cf52009f
:100b6000040032006542520084cf520086003a00f1
:100b700020003700a5579f001c003700a6579f0094
:100b800013003700a5579f000d003700a5579f00a1
:100b900086003700f0826600040120000100320068
:100ba0000400280084867600c0ff3700a5579f0008
:100bb0000da0a0007d003700a5579f000d50a0009c
:100bc0000d80a00079003700a5579f000d50a000b0
:100bd0000d90a00075003700a5579f000d60a00084
:100be00072003700a5579f000d50a0000d70a000a7
:100bf0006e003700a5579f00afa997004302780009
:100c0000a3af9f00d4af9f00e00f520002003a0054
:100c100046e22000d6af9f005fab97008002eb005a
:100c2000010037008502e80066c27a00e04f5200fa
:100c3000fcff3a00e5af9f00e00f570005003200cf
:100c4000efab9700870f5700020031000e047800c9
:100c5000e8af9f006faa97000004eb00cfac9700ad
:100c6000848f54000100360004845400e886660036
:100c700014003a0007003700bfa8970000022000c8
:100c80005e060700e10f4000010032000c06e8009c
:100c90000804e900e00f5400f7ff3a000084eb007d
:100ca000080037005faa97003400fb00d4af9f0014
:100cb000bfa8970051060700e10f40000100320075
:100cc0000c06e8006faa97000405e900eaaf9f0050
:100cd000e00f5200f3ff3a00e08f56003b0632006f
:100ce00007003700bfa89700000220004306070056
:100cf000e10f4000010032000c06e8000804e900a2
:100d0000e00f5400f7ff3a0030063700afad970010
:100d10004b027800abaf9f0004047800cfc4de0024
:100d2000090578008a0578000800be000a01be00a7
:100d30004800de00480add0000007200a0579f0056
:100d40007082660009003200e04f50000700320058
:100d5000e14f400005003200b0579f00c8579f0088
:100d600025002000e5af9f0003003700b8579f0023
:100d700016002000e6af9f0037f92f008783470059
:100d8000d7af9f00acff3700a5579f0028f92f0071
:100d900008844700d8af9f0019002000e9af9f00ea
:100da000a5ff3700a5579f000d0cb300047020006d
:100db00004826600410432000400210004826600bf
:100dc000010032006e0020007082660005003200d3
:100dd0002fa897004005be004004be00a0af9f00b2
:100de000060037002fa997004200be00a2af9f0067
:100df000e50707000004be000205be006022b8003f
:100e00006033b8000800be000a01be0030070700ca
:100e1000e00f500002003d000bf0a2003d00b300c7
:100e20000002eb00b48f9f006022b8006033b8006e
:100e30000800be000a01be0089070700e00f50004d
:100e4000340032000800be000a01be001a09070083
:100e500062f92f000f0141006e0807003f889700dc
:100e60000000e9006300b900a4002000110009009f
:100e70000400d800b08f9f00e00f500002003d003a
:100e80000000e900b08f9f00bf899700d3af9f009b
:100e90000340ea0026fe07000802be000a03be0067
:100ea0008e0807000002be000203be00a4a79f0038
:100eb000b5a79f00c6a79f00d7a79f006022b800d4
:100ec0000600200007ff230001070700e00f500085
:100ed00003003d00dfaa97000502e9000c0037007f
:100ee0006022b80006002000470224002fa09700cf
:100ef000bfa097004fa19700dfa19700f906070058
:100f0000e00f5000030035005fab97000602e800d9
:100f1000b48f9f00bf8b9700d7af9f000d02780062
:100f20000410b20008003a000d0278000420b2005c
:100f30006202320007007800e40f40000200350032
:100f40008e0f5000ef013500e00f57000400320013
:100f50000d0278000420b200010032000e07e90003
:100f6000f20f57000300360024c1b300a4579f00be
:100f700001003700ae579f006022b8006033b80010
:100f80000800be000a01be0035070700e00f500050
:100f9000660032002f519700c2cf9f00afd9970053
:100fa00002c05100e2fd07000002be000203be00c5
:100fb0000800be000a01be00cf0607000004be0004
:100fc0000205be00c0070700100807000002be00af
:100fd0000203be000800be000a01be00b4080700fc
:100fe0006022b8000600200007fe2300bd060700af
:100ff000e00f5000080035006022b8000600200015
:1010000007fe23000800be000a01be0033060700e9
:101010000004be000205be000800be000a01be00ba
:10102000a9070700e09f9f00f19f9f008002eb004f
:1010300085a79f000003eb0096a79f00cfcb9700ea
:101040008703fb00c78f9f000702e8004322dd00f3
:1010500021d62000048040003002be002003be00e4
:10106000e4a79f00f5a79f0086af9f0097af9f0062
:101070006f989700ff9897000fa197009fa1970086
:101080000400e1000588e1000690e1000798e10016
:101090000c0039000400200005002a009699290060
:1010a00097fb23000800be000a01be000b080700e2
:1010b0000004be000205be00dfa897000102e800a0
:1010c000190037004f8997004312dd0023d6200016
:1010d000048241005403be004402be006f98970092
:1010e000ff9897000fa197009fa197000400e100cf
:1010f0000588e1000690e1000798e1000b0031004f
:101100006022b80006002000470224000800be004c
:101110000a01be00f10707000004be000205be0080
:10112000dfa897000102e900b48f9f0004a020000f
:101130008482660004202000848f520046003a001a
:10114000f40f5700010034004e0120000800be00db
:101150000a01be005c070700e0979f00f1979f001f
:101160008001eb00839f9f000002eb00949f9f0093
:101170000800be000a01be00d0af9f00e1af9f0093
:10118000f2af9f0083b79f006f949700ff94970082
:101190000f9d97009f9d9700090037000e07e900fb
:1011a000a4002000050020006033b8000800be0045
:1011b0000a01be00160907000205be000004be00b9
:1011c000e00f5400e08f5c00e00f5d00e08f5d00f9
:1011d0000b003200a4002000050020006033b8009e
:1011e0000800be000a01be0010090700e00f500011
:1011f000e08f5800e00f5900e08f5900e7ff320000
:10120000e8979f00f9979f008a9f9f009b9f9f00f0
:101210005fac9700efac97007fad97008fb597005c
:101220002f5097000002fb00840f57000a003d007a
:101230000e4050003efd07000002be000203be004b
:101240000800be000a01be002b0607000004be0015
:101250000205be00ae579f00cfab970065825300da
:101260000e025200c4af9f00e00f570003003a0087
:101270000480200004826600030032004fa897001b
:101280000000e900c0af9f006382660003003200e7
:10129000cfa897008100e900c1af9f00648266007b
:1012a0002c003200e282660061826600e08f52000c
:1012b00006003200b0022000e00f520001003200b0
:1012c0000080e800bfa8970004003700e00f52003c
:1012d00017003200bfa8970000022000c7040700d3
:1012e000e10f4000120032000c06e8001000370049
:1012f000bfa897000003200094b79f00a5b79f00e8
:10130000b6b79f00c7b79f00bc0407001fb2970085
:10131000afb297003fb39700cfb39700e10f400003
:10132000010032000c06e8008904e90003003700e0
:101330000802be000a03be00cfac9700e08f540045
:10134000ebff3c00c9af9f000404be000605be00d1
:101350002c0037006882660018003a000802be00c0
:101360000a03be00cfac97000f003700bfa897005c
:101370000002200094b79f00a5b79f00b6b79f005a
:10138000c7b79f009d0407001fb29700afb2970038
:101390003fb39700cfb39700e10f40000100320048
:1013a0000c06e8008904e900e08f5400efff3c00e0
:1013b000c9af9f000404be000605be00e2826600bd
:1013c00061826600e08f520006003200b002200009
:1013d000e00f5200010032000080e800bfa8970033
:1013e00004003700e00f520006003200bfa897004b
:1013f0000002200081040700e10f400001003200dc
:101400000c06e8000800be000a01be00ae06070098
:10141000a09f9f00b19f9f008001eb00c39f9f0092
:101420000002eb00d49f9f00af5297008502fb00a3
:10143000e5a79f0005037800c332dd0024d6200015
:10144000050242003404be002405be000802be00ae
:101450000a03be002f989700bf9897004f999700f6
:10146000df9997006a0807000003b000bfa8970043
:1014700062040700e10f4000010032000c06e800a2
:101480000802be000a03be002f989700bf9897007d
:101490004f999700df99970064080700d0af9f002d
:1014a000e1af9f00f2af9f0083b79f00e00f5700ae
:1014b00003003a00048020000482660054003200d9
:1014c000bfa89700e00220004c040700e10f400095
:1014d000330032000c06e800310037004f889700d7
:1014e000e00f50000d003200e00f5400e08f5c0070
:1014f000e00f5d00e08f5d0008003a00d8af9f006c
:10150000e9af9f00faaf9f008bb79f008042eb00ce
:10151000a5579f000004eb003b0037008502fb004d
:10152000c32add0026d62000850243003500be0018
:101530002501be00d0af9f00e1af9f00f2af9f003a
:1015400083b79f000203be000002be000800be0079
:101550000a01be002e08070004032000000242001a
:10156000bfa897000400780024040700e10f4000a2
:10157000010032000c06e8005faa9700efaa97006e
:101580007fab97008fb397000800be000a01be0032
:10159000260807000205be000004be000700370051
:1015a0008d0078000120b200c18f9f005fac9700d2
:1015b000efac97007fad97008fb597002f52970043
:1015c0008442e900a5579f00e04f5200c3ff3a0054
:1015d000d8af9f00e9af9f00faaf9f008bb79f0085
:1015e000efa297000504570007003700bfa8970037
:1015f0000003200001040700e10f40000100320059
:101600000c06e8000804e900e00f5400f7ff3a0078
:101610000d0278000402b20003003200bfa8970058
:101620005004200002003700bfa897005006200099
:10163000f2030700e10f4000010032000c06e80051
:101640003f8a9700e00f520005003d000402ea00c7
:10165000b48f9f00bfa89700d0022000020037007f
:10166000bfa89700b0022000e4030700e10f40008c
:10167000010032000c06e8003f8c9700a400200017
:10168000110009000404d8000003b000bfa89700af
:10169000da030700e10f4000010032000c06e80009
:1016a000a4002000110009000404d8000003200059
:1016b00001004000bfa89700d0030700e10f4000e1
:1016c000010032000c06e80068826600bf033200a9
:1016d0004fab9700e00f5300bc03340006047800c2
:1016e000bfa8970000022000c4030700e10f4000dc
:1016f000010032000c06e8000804e900f8ff3a0097
:10170000b2033700dfab9700e08f530002003d00cb
:101710000782ea00040747000800be000a01be0075
:10172000b8050700d0af9f00e1af9f00f2af9f0068
:1017300083b79f0021d620000040eb000802be00c6
:101740000a03be00e4a79f00f5a79f0086af9f0095
:1017500097af9f000c0037003102be003103be007e
:101760005fac9700efac97007fad97008fb5970007
:101770000440e10005c8e10006d0e10007d8e1001f
:10178000030039000040e800f44f5000f2ff3a0037
:101790006fa49700ffa497000fad97009fad97002f
:1017a0000002fb0004075700f80f570009003c0037
:1017b0000e40780081fb07000002be000203be005d
:1017c0000800be000a01be00440407000004be0079
:1017d0000205be000e407800d5fb07000002be00e7
:1017e0000203be00e4a79f00f5a79f0086af9f00fd
:1017f00097af9f005fa89700efa897007fa9970079
:101800008fb19700d60507000002be000203be009c
:101810000800be000a01be00a50607000002be00c7
:101820000203be006fa09700ffa097000fa99700ca
:101830009fa9970029060700720507000802be004d
:101840000a03be00d4af9f00e5af9f00f6af9f0034
:1018500087b79f000205be000004be0009003700e4
:10186000a4002000050020006033b8000800be007e
:101870000a01be00660707000205be000004be00a4
:101880000e07e900e00f570018003200a400200006
:10189000050020006033b8000800be000a01be0049
:1018a00062070700e00f5000e08f5800e00f59007a
:1018b000e08f5900eaff32000c003700f80f5700a4
:1018c0000e003c000e4078003cfb07000002be000a
:1018d0000203be000800be000a01be00ff030700ad
:1018e0000004be000205be00040037005fac970094
:1018f000efac97007fad97008fb59700bf8a970038
:10190000d5af9f00e98f520012003c006022b80062
:101910006033b8000800be000a01be00d004070012
:10192000e00f50002f0032000800be000a01be0088
:1019300034050700e00f5000e08f5800e00f590019
:10194000e08f590027003a005fab9700e10f53008a
:10195000240034000400200005002e00b6e0220020
:10196000170124002fa09700bfa097004fa1970058
:10197000dfa1970056040700e00f500003003d0070
:10198000dfab970073825300020037005fa8970017
:1019900072025000b48f9f006f50970064fb0700e5
:1019a0000002be000203be00a4a79f00b5a79f00cf
:1019b000c6a79f00d7a79f000800be000a01be006f
:1019c0004d0407000f050700d0af9f00e1af9f0057
:1019d000f2af9f0083b79f006044b8006055b80025
:1019e000110037000800be000a01be00050507000f
:1019f000d0af9f00e1af9f00f2af9f0083b79f0081
:101a0000570507000002be000203be000800be002a
:101a10000a01be00260607000004be000205be0043
:101a20000002eb00b48f9f00a1d6200010c0b300cd
:101a30000802be000a03be00d4b79f00e5b79f00ae
:101a4000f6b79f0087bf9f00100037003104be002b
:101a50003105be00e8a79f00f9a79f008aaf9f004d
:101a60009baf9f005faa9700efaa97007fab9700fc
:101a70008fb397000820e10009a8e1000ab0e10057
:101a80000bb8e100030039000040e800f44f5000bb
:101a9000eeff3a005fb49700efb497007fb5970070
:101aa0008fbd9700a0579f003f8a9700cfaa97004d
:101ab000048252008e0252000002fb000482520097
:101ac000c4af9f000480200004826600e4a79f004a
:101ad00002003a00e00f5700030032004fab9700be
:101ae0000603e900c6af9f00638266000300320070
:101af000cfab97008703e900c7af9f006482660001
:101b00002c003200e282660061826600e08f5200a3
:101b100006003200b0022000e00f52000100320047
:101b20000080e800bfa8970004003700e00f5200d3
:101b300017003200bfa8970000022000af02070084
:101b4000e10f4000120032000c06e80010003700e0
:101b5000bfa897000003200094b79f00a5b79f007f
:101b6000b6b79f00c7b79f00a40207001fb2970037
:101b7000afb297003fb39700cfb39700e10f40009b
:101b8000010032000c06e8008904e9000300370078
:101b90000802be000a03be00cfac9700e08f5400dd
:101ba000ebff3c00c9af9f000404be000605be0069
:101bb000400037006882660018003a000802be0044
:101bc0000a03be00cfac97000f003700bfa89700f4
:101bd0000002200094b79f00a5b79f00b6b79f00f2
:101be000c7b79f00850207001fb29700afb29700ea
:101bf0003fb39700cfb39700e10f400001003200e0
:101c00000c06e8008904e900e08f5400efff3c0077
:101c1000c9af9f000404be000605be00e282660054
:101c200061826600e08f520006003200b0022000a0
:101c3000e00f5200010032000080e800bfa89700ca
:101c400018003700e00f52001a003200bfa89700ba
:101c500000022000130037008502fb00c32add00cc
:101c600020d62000850240005503be004502be007c
:101c70005fa89700efa897007fa997008fb1970002
:101c800063060700a4002000050020006033b800b0
:101c9000660607000403200000024200bfa8970068
:101ca0000400780055020700e10f400001003200f7
:101cb0000c06e8002f5297008442e900a5579f00c8
:101cc000e04f5200e4ff3a000802be000a03be00e3
:101cd00010003700bfa897000003200094b79f00b2
:101ce000a5b79f00b6b79f00c7b79f004302070084
:101cf0001fb29700afb297003fb39700cfb39700e2
:101d0000e10f4000010032000c06e8008904e90000
:101d1000b98f9f00bf8c9700e08f5400edff3c000f
:101d20000404be000605be00f20f57000300340095
:101d300024c1b300a4579f0001003700ae579f0095
:101d4000af5297000502fb0004075700e0cf520096
:101d500003003a006fa19700e00f51000600320027
:101d6000bfa89700e002200024020700e10f400016
:101d7000010032000c06e8002f5097006cfa0700b3
:101d80000002be000203be000800be000a01be0041
:101d9000d20407001b0407000205be000004be00b9
:101da000240037008502fb00c32add0026d6200070
:101db000850243003500be002501be00d0af9f0064
:101dc000e1af9f00f2af9f0083b79f000203be0008
:101dd0000002be000800be000a01be000c0607009b
:101de000a4002000050020006033b8000f060700a3
:101df0000403200000024200bfa8970004007800fe
:101e0000fe010700e10f4000010032000c06e8006f
:101e10005faa9700efaa97007fab97008fb3970058
:101e20000800be000a01be00000607000205be0051
:101e30000004be002f5297008442e900a5579f007e
:101e4000e04f5200d7ff3a00d8af9f00e9af9f00a4
:101e5000faaf9f008bb79f0007003700bfa897001d
:101e600000032000e5010700e10f400001003200ff
:101e70000c06e8000e07e900e00f5700f7ff3a00f4
:101e800068826600d1013200cfaa9700e08f52002d
:101e9000ce01340005047800bfa89700000220009e
:101ea000d6010700e10f4000010032000c06e800f7
:101eb0000804e900f8ff3a00c40137008d027800f9
:101ec000050cb2003c003a00e08f560005003d00d2
:101ed0002fa897004005be004004be00a0af9f00a1
:101ee0001000370070826600130032002faa97009e
:101ef0004401be00a4af9f0092979f00a3979f004c
:101f000084027800150290004fa2de00b4979f0073
:101f1000c4979f001f949700af9497003f95970038
:101f2000cf959700d8af9f00e9af9f00faaf9f0011
:101f30008bb79f000b003700afac970049027800c9
:101f4000a9af9f0004007800cf80de000101780077
:101f500082017800d0af9f00e1af9f00f2af9f00f9
:101f600083b79f005faa9700efaa97007fab970007
:101f70008fb39700e00f5200e08f5a00e00f5b0034
:101f8000e08f5b0030003d003d00b3006022b800f0
:101f90006033b8005fac9700efac97007fad97005f
:101fa0008fb597000804520089845a000a055b0027
:101fb0008b855b0020003700e08f560005003d0058
:101fc0002faa97004401be004400be00a4af9f00aa
:101fd0000d003700f0826600100032002fac970031
:101fe0004803be00a8af9f00d68f9f00e78f9f00d9
:101ff000f48f9f0084979f005f889700ef88970079
:102000007f8997008f919700d0af9f00e1af9f002d
:10201000f2af9f0083b79f000b003700afa8970077
:1020200041027800a1af9f0004047800090020005d
:102030000a0020000b002000d8af9f00e9af9f00ee
:10204000faaf9f008bb79f00e00f57000b003a00dc
:102050001e0020005fa89700efa897007fa99700b7
:102060008fb19700e00f5000e08f5800e00f59004b
:10207000e08f5900010032000007eb008d0478006a
:10208000090cb20004042000848f54003500320093
:1020900003003c00e08f5400070032004b00370083
:1020a00004082000848f540015003200040c200026
:1020b000848f540045003a00a1d6200010c0b30020
:1020c000090178003102be003103be005fac970009
:1020d000efac97007fad97008fb597000440e1000b
:1020e00005c8e10006d0e10007d8e100350039005d
:1020f0000040e800f44f5000f2ff3a003100370092
:1021000010c0b30004012000050020006033b800b7
:10211000090178005fac9700efac97007fad9700a6
:102120008fb597000440e10005c8e10006d0e1004a
:1021300007d8e10023003900490020000402d00044
:102140008582d2000683d2008783d2008904e90009
:10215000faff3a000040e800f04f5000edff3a006f
:102160001800370010c0b3008400200005002000d4
:102170006033b800090178005fac9700efac9700be
:102180007fad97008fb597000440e10005c8e100de
:1021900006d0e10007d8e1000a003900390020002c
:1021a0000402d0008582d2000683d2008783d20049
:1021b0008904e900faff3a000040e800f54f5000ba
:1021c000edff3a0082047800a0579f002f5597003a
:1021d0000a02fb008e0f520002003d00ae579f0026
:1021e00003003700840f570001003d00040778000a
:1021f0004fa89700e00f5000040032006382660091
:10220000020032000000e900c0af9f00040024007b
:102210000482660008003200cfa897008e8f50001d
:10222000030034008e805000c1af9f0002003700d1
:102230000001eb00c2af9f00448c20008482660046
:102240004408b100848f520006003a00cfa99700dd
:10225000e08f5100100032008301e900c3af9f00fe
:102260000d003700048c2000848266000404b10055
:10227000848f520008003a004faa9700e20f5200e4
:10228000030034000482e900c4af9f00020037005d
:102290008002eb00c5af9f002f5397000602fb00a2
:1022a0000004eb00cfab9700848f53000100340093
:1022b00004845300648266002d003200e2826600ce
:1022c00061826600e08f520005003200b0022000fb
:1022d000e00f5200170032000080e80015003700c0
:1022e000e00f520003003200bfa897000002200058
:1022f00011003700048c2000848266000404b100c1
:10230000848f520010003a00bfa8970000032000fd
:10231000ba000700e10f4000010032000c06e8009f
:102320000d0278000402b200800720000100320094
:1023300080052000bfa89700b0000700e10f400013
:10234000010032000c06e800e00f54008d0032005e
:10235000bfa8970000032000a8000700e10f40007d
:10236000010032000c06e8000804e900f6ff37001f
:10237000e00f54000a0032006882660008003a004c
:10238000bfa89700000220009c000700e10f40005a
:10239000010032000c06e8000804e900f8ff3a00ea
:1023a000e282660061826600e08f52000600320021
:1023b000b0022000e00f5200010032000080e8006f
:1023c000bfa8970004003700e00f5200060032005b
:1023d000bfa897000002200088000700e10f40001e
:1023e000010032000c06e800048c200084826600a4
:1023f0000408b100848f520003003a00bfa8970080
:10240000000320000f00370004882000848f520052
:102410005c003a00bfa89700000320007700070087
:10242000e10f4000010032000c06e8000d027800c8
:102430000402b20080072000010032008005200065
:10244000bfa897006d000700e10f40004d0032006b
:102450000c06e8004b0037000e07e9008a8f540095
:102460003000320003003c00e08f540007003200cf
:102470003c00370004082000848f54001400320010
:10248000040c2000848f540036003a004372dd00b3
:102490002bd620000b0242005403be004402be00b3
:1024a0005fa89700efa897007fa997008fb19700ca
:1024b00057040700a4002000050020006033b80086
:1024c0005a04070004c3b30004424000240037004c
:1024d00034e12000cfaa9700e08f520001003200c3
:1024e00024e02000c272dd005fa89700efa89700eb
:1024f0007fa997008fb197008502e900050033009e
:102500008301d1000281d3008180d3000080d300f9
:10251000f9ff37006f00600064407800a0579f000b
:10252000100037006372b9005fa89700efa897000a
:102530007fa997008fb19700840578008b05e9008b
:10254000050033008301d1000281d3008180d300d4
:102550000080d300f9ff3700674260000443b000f9
:10256000a4579f00af5097000100fb00bfa8970041
:1025700022000700e10f4000060032000c06e800d0
:10258000040037000a0420000d0178000202b200a6
:10259000c2af9f00e00f5700afff3a0068826600ad
:1025a0000a003200e00f540008003400bfa8970072
:1025b0000002200011000700e10f4000010032007e
:1025c0000c06e8000804e900f8ff3a00df919700e4
:1025d00013407800a0579f00e04f5000c4f83a0025
:1025e0000c0078004f0778004f06be004f05be0074
:1025f0004f04be002f06b10000000600889fbe00f9
:102600000104780038029000e20262008084eb004e
:102610003b003200040378000620b20098029000cc
:1026200002003a00e08f520035003a000490a0000a
:102630003404980080047800f90fb200e08f520053
:1026400002003a00a8029000050c7800ea8f5400be
:1026500005003a000408b20003003a008800780040
:10266000d0002000e5ff070018029000d80290007b
:10267000850f52000b0032000402e8001404980099
:1026800018027800094a7800040ce80015c0b3006d
:1026900024e52000054a7800ea8f540018003a002b
:1026a000050037008800780009407800170007000f
:1026b0008004780012003700380290000410b20045
:1026c0000f00320018019000a80090004800900010
:1026d0005200070018029000840f500004003200de
:1026e000380290000403b300340498008084eb00a7
:1026f0000002eb001404980028029000040c7800fb
:10270000090078004f04be00000006000200fa0035
:10271000889fbe00a0ff9f0001047800380290004f
:10272000840278000504b200020032000000fb00c1
:1027300035003700e202620005003a000403b300ee
:1027400034049800150498000080eb002e00370038
:10275000d8049000e08f540006003a0012002000d8
:10276000e6805700480090002c00070019049800ec
:1027700023003700a8029000e08f520008003a00c2
:1027800055e5200025049800050c78002500200060
:1027900055049800150498000430a00034049800f3
:1027a00018019000a8009000480090001b0007004e
:1027b000280290008082eb0015049800affa970081
:1027c000054a7800040ce8002ffa9700ea4f5200ff
:1027d0000b003a00380290000410b20008003200ea
:1027e00018019000a8009000480090000b0007001e
:1027f0000002eb0014049800a8029000050c780079
:102800002ffa97000400fb004f04be000080fa007e
:102810000000060000c0da00000006000a00fa000e
:10282000e20f500022003e00c4728000e10f52000f
:1028300006003200872320004623200024232000a6
:1028400005232000e08f530004003a008722200077
:10285000462220002422200005222000000028001b
:102860001500600003003a00800b78000700280084
:10287000958a7300054020009482620001003a00ae
:1028800014a0a000820278000600370094037800ac
:102890000710b200fdff3200b103fb00070b780008
:1028a0008502e900e08f5200f8ff3a000800370087
:1028b00034002000b4bf9f00c0bf9f00d1bf9f0065
:1028c000e2bf9f006a805700d2ff07006fb99700f0
:1028d000020078000080fa00000006002800fa00dc
:1028e000889fbe008a9fbe008c9fbe0007067800ae
:1028f000878669000c003b00030478008704780099
:1029000008f0a10009f0a100840f5000858f580045
:10291000860f5900890f5c00030033000cf0a20001
:1029200001003a000cf0a100fe0007006400e10085
:102930005f003200780147006408e1006100320066
:102940006c014700748557003200be001201be00c2
:102950003a04be001a05be001e039000be0a900095
:102960008503530006003d000004fd008104fd00c6
:102970000205fd008305fd008703ea0005037800da
:102980000df8a3000400320060041400e0841c0071
:1029900060051d00e0851d006022b8007d03200059
:1029a0000d38e1008006eb000b0039004433dd00f8
:1029b000f300b20083017300390037008482720093
:1029c0000d027800e10664008b85d1000a85d300f2
:1029d0008984d3000884d3008703e900f7ff3b0014
:1029e00008004000898048000a0149008b814900a5
:1029f00004003b0060001000e08018006001190036
:102a0000e08119000358a300090032008d82720092
:102a100084827200610260008301d1000281d300d0
:102a20008180d3000080d3000603e8001b0037003c
:102a30000348a30017003a000600e0001700340026
:102a40000603e9000d00a300000048008180480053
:102a500002014900838149000348a3000f003a00a6
:102a60000600e000090034000603e9000000400011
:102a700081804800020149008381490001003a0039
:102a80000003eb000348a300f5ff32006022b8000a
:102a900002003700848272006182660075000700c0
:102aa00003f0a1000cf0a70003f0a000b100370074
:102ab000640147006408e10002003a000df8a30039
:102ac000a9003a003200be001201be00a900370082
:102ad0008f1fd100370307008f87e9000000e00057
:102ae00000000600809feb00320307008f87e9009b
:102af0000000e000000006002800fa00889fbe00e9
:102b00008a9fbe008c9fbe0003866b008500070075
:102b10006400e100440032006408e1004a00320031
:102b20006100e100460032006108e1004900320026
:102b3000ec0647006000b8003d02be003d03be0049
:102b4000f48657006011b8003d04be003d05be008c
:102b50007d0320000b0037000000a0008d06e90077
:102b6000130032000402420085824a0006034b0033
:102b700087834b000000400081804800020149002b
:102b8000838149000802520089825a000a035b00cf
:102b90008b835b00f0ff3b000802420089824a0001
:102ba0000a034b008b834b008d06e900edff3a00d2
:102bb0008482720086827200f707b20087827200f8
:102bc00001003200150020001e0490003e0b900012
:102bd00006035400e63fb0000368a300070032007c
:102be0000000a7000500a0008301d1000281d300ee
:102bf0008180d3000080d3000603e8008301d10068
:102c00000281d3008180d3000080d3000002eb005a
:102c10000482d2001700070003f0a1000cf0a70007
:102c200003f0a00053003700640247006408e1008d
:102c30004d0032003400be003401be00f6ff370004
:102c40006108e100480032006011b8006000b8007f
:102c5000f1ff370003ff270002002000fbff3700d1
:102c6000801feb00d30207008f87e9000000e0001f
:102c70000000060018002000570020000804530040
:102c80000d003d000600200097fc2f000740e100ea
:102c90001e00340084827200610260008301d10052
:102ca0000281d3008180d3000080d3000804e800b3
:102cb000f8ff3a004700200061046000050474003a
:102cc000040464000d00320061004000e080480010
:102cd00060014900e081490003b8a5000700320007
:102ce0000603e8006538e10004003a008301d100e2
:102cf0000281d3008180d3000080d300f87f2000c0
:102d00000830e10003003500080378006000b800d7
:102d10006011b8004433dd00f300b200830173009a
:102d200000000600680447000294be000094be0044
:102d3000fc0447008694be008494be00090078001d
:102d4000e502070008007800e30207009900780018
:102d5000814f70000b003b000800be00be02070060
:102d60004f00b10003003700f3ff2700f2ff2f00f0
:102d70006110b9004f06be004f05be004f04be00f3
:102d80000080fa000000060081037800be00070002
:102d90000001be006000b8000478a30013003a00f0
:102da0006220e10015003e000d0039008301d100d2
:102db0000281d3008180d3008301d1000281d3003e
:102dc0008180d3008301d1000281d3008180d300b0
:102dd0000538b000c42add00f300b2008381720020
:102de00007f0a70003f0a00000000600f3ff270093
:102df000f2ff2f006110b900fbff370003ff27002f
:102e0000f7ff37001400fa00889fbe008a9fbe00bb
:102e10008c9fbe000004be000205be006800470093
:102e20000a90be000890be00ab0207000070a70029
:102e30000bf0a1000bf8a30020003a009e099000bf
:102e40000e099000fe0090006e0090009e0290001f
:102e50003443200084825200c6ff32000a003c0046
:102e6000b4fc2f000428e100140034008301d100d9
:102e70000281d3008180d3000080d3008502e80066
:102e8000faff3a00bbff3700b40020000428e1003d
:102e900007003c000000400081804800020149001a
:102ea000838149008502e900faff3a00b1ff37004b
:102eb0000300280002002000010037006011b80064
:102ec0006000b800abff37001400fa00889fbe0016
:102ed0008a9fbe008c9fbe000004be000205be009b
:102ee000680047000a90be000890be007a02070002
:102ef0000070a7000bf0a1000bf8a30016003a0029
:102f00009e0290003043200080825200b0fe2f00cd
:102f10000028e1000d003c00b0fc2f000028e1007b
:102f20000d0034001e0990008e0890007e00900075
:102f30000501b0000201d1008180d3000080d300e0
:102f40008502e800fbff3a008aff370001002800f5
:102f50000000200087ff37006000b80085ff3700c1
:102f6000889fbe000082700004027100048271001c
:102f70002400320036432000c50020008383cf00a8
:102f80000a0039000541b1008283cf0007003900f3
:102f90000541b1008183cf00040039000541b10033
:102fa0008083cf00010039000541b10085c3530083
:102fb0006022b800120032000a003b0084827200d6
:102fc000610260008301d1000281d3008180d300bf
:102fd0000080d3000603e8008743e800f7ff3a00cb
:102fe00007003700000040008180480002014900ce
:102ff000838149000603e9008743e900f9ff3a00ad
:103000001cff07004f04be00000006006011b8005e
:10301000d3ff37001400fa00889fbe008a9fbe00cd
:103020008c9fbe00040678000004be000205be00ae
:10303000680047000a90be000890be002602070004
:103040006200e1000800be000a01be00040020008a
:103050000b003a001e029000e43fb1006e009000a9
:10306000fe0090000e0990009e099000f300b2004f
:1030700005fe2300858171000bf0a70003f0a0007e
:10308000040e78003bff3700c70ade00f107b200ec
:10309000f50fb20008003200e1cf4200020032001a
:1030a0000170a00024000500810f700001003200b3
:1030b0000408050044000500810f700002003a007a
:1030c000140005008502e9000000400081c04800ae
:1030d000fcff3b000170a000240005002800fa005e
:1030e000889fbe008a9fbe008c9fbe0003866b0037
:1030f0000cff07000028a30064003a000128a30089
:1031000067003a000008a30062003a000108a3002b
:1031100065003a001e009000be0890008106400045
:10312000ed3fb100f4805700ee019000111ab80095
:103130008e099000311bb8009e099000311cb80028
:10314000511db800f485570046000700fe019000ad
:103150003a0007008b85e8003e0007008e099000ca
:1031600040000700ee019000340007008b85e80066
:10317000380007008e099000400007009e0990006b
:103180001b18b800890440000a854800fe01900021
:10319000340007008b85e80038000700ee0190003e
:1031a000300007008e0990001b18b8008904400009
:1031b0000a8548000a98a30008003a000402420069
:1031c00085824a0006034b0087834b0008044c00ad
:1031d00089844c000a054d008d06e9008482720046
:1031e000850273004c3add00850272000100320056
:1031f00015002000443ade001400b2004538de001d
:10320000cb45dd000b007000c540de00cb4ddd007e
:103210008b8070004549de00cb55dd000b0171004d
:10322000c551de000d03780092fe070003f0a100f7
:103230000cf0a70003f0a000cefe37001b18b8006a
:103240008502400006834800e0834b0060044c0088
:10325000070037001b18b8000603400087834800aa
:10326000faff37001b18b8008703400008844800a5
:10327000e0844c0060054d00000006001b18b800fb
:103280000804400089844800faff37000108a300c1
:10329000b5fe3a005800be005801be00e3ff3700fb
:1032a0000008a300b0fe3a0009047800f9ff3700d7
:1032b00007f0a20089fd37001400fa00889fbe00c5
:1032c0008a9fbe008c9fbe000005be000206be00a5
:1032d000680047000c90be000a90be007e01070007
:1032e0006400e1001a00320016003e006100e100b7
:1032f0001a0032006e049000fe0490000e0b900045
:103300009e0b90006011b8009e0590000b38b10034
:10331000d501200082817100610164008703d10022
:103320000683d3008984d3000884d3008502e90092
:10333000f8ff3a008f0107000df0a70001f0a00090
:103340008cfe3700f1ff2700f0ff2f0089fe3700c9
:1033500001f8270000002000f7ff37006000b800e8
:10336000f5ff3700889fbe008a9fbe003004be0074
:103370002005be000404440085844c0006054d0071
:1033800087854d000898be000a90be000440e10009
:1033900005c8e10006d0e10007d8e10002003100d5
:1033a000680040001008e8004f05be004f04be0052
:1033b000000006001000fa00889fbe008a9fbe0031
:1033c0000605be000404be003002be002003be009d
:1033d000c4b79f00d5b79f00e6b79f00f7b79f001f
:1033e0000802520089825a000a035b008b835b004b
:1033f00084bf9f0095bf9f00a6bf9f00b7bf9f00df
:103400000498be000698be00110020004fb297003d
:10341000dfb297006fb39700ffb397000820e10079
:1034200009a8e1000ab0e1000bb8e1000100390091
:103430008000eb00108810004f05be004f04be0056
:103440000080fa00000006001400fa00889fbe0009
:103450008a9fbe008c9fbe003f0007000605be008d
:103460000404be000006eb00ccb79f00bcb79f0071
:10347000acb79f009cb79f008cb79f000d04200045
:103480004fb39700bfb29700860343002fb2970057
:10349000e00f530004003d003d0007000f00400016
:1034a000b0ff070003003700390007000f0040009d
:1034b000c0ff0700cfb2970095bf9f00e08f52007a
:1034c000090035002b000700140020000500200033
:1034d0006033b80000007200818072000201730046
:1034e000838173001c0007000c06e8008d0f560056
:1034f000e3ff3a001fba9700e00f520005003d00bd
:103500000802be000a03be0000fe2f000f004000ac
:1035100094ff07004faa9700e00f520008003a00fe
:103520000fb497009fb497002fb59700bfb59700d1
:10353000d8b79f00e9b79f00fab79f008bbf9f00e5
:103540000c0007004f06be004f05be004f04be0032
:103550000080fa00000006000100070000000600dd
:1035600090b79f00a1b79f00b2b79f00c3b79f005d
:103570000000060001000700000006001fb09700d1
:10358000afb097003fb19700cfb1970000000600a1
:103590004f2bde0087037300a7b79f004f23de0089
:1035a000858242008502730095b79f00ffaa9700ad
:1035b0004f2bde00040242000402730084b79f0018
:1035c0006faa97004f23de008582420085027300b8
:1035d000f5af9f00e9ff07004f18de00040242002c
:1035e00000027200e4af9f00e4ff0700000040000b
:1035f000818048000201490083814900d8ff07000b
:103600000802be000a03be0000fe2f0000000600f4
:10361000881f780018002000881f78008aff0700a4
:103620008f87e9004f04780000000600801feb0040
:1036300085ff07008f87e90000000600889fbe0015
:103640008a9fbe00e00f5000e08f5800e00f590045
:10365000e08f59000c003d006044b8006055b80090
:103660000000540081805c0002015d0083815d00e8
:10367000180020001500070008003d001800070092
:103680000004eb00050037000004eb000f0007000a
:1036900002003d001200070018002000dcff0700b8
:1036a000e00f5400060032006022b8006033b8001a
:1036b0000000520081805a0002015b0083815b00a0
:1036c0004f05be004f04be0000000600e00f520090
:1036d000e08f5a00e00f5b00e08f5b000000060007
:1036e0006044b8006055b8000402540085825c0054
:1036f00006035d0087835d0000000600889fbe0012
:103700008a9fbe008c1f7800e00f5000e08f5800a9
:10371000e00f5900e08f59000d003d006044b800f3
:103720006055b8000000540081805c0002015d001b
:1037300083815d001c0020000820e10009a8e10051
:103740000ab0e1000bb8e1000d003d0008003700b1
:103750000006eb00e00f5200e08f5a00e00f5b0024
:10376000e08f5b0006003d006044b8006055b80083
:103770000402540085825c0006035d0087835d00bf
:10378000aaff0700e00f5600060032006022b800d2
:103790006033b8000000520081805a0002015b00d3
:1037a00083815b004f0678004f05be004f04be00ca
:1037b00000000600889fbe008a9fbe008c9fbe004e
:1037c0000404be000605be00809fbe00829fbe00ae
:1037d0002f000700040678000800be000a01be00a2
:1037e0002b000700840678004f03be004f02be0086
:1037f0008d4f76007fb0970013003300f0ff2f004d
:103800008b8f6b0006003b000d0666000c00a700c6
:103810000a00370007f0a600100020000a00370059
:10382000880f5200898f5a008a0f5b008b8f5b00d4
:10383000030039001000200001003e0000002000bd
:1038400007f0a7000000ea004f06be004f05be00cb
:103850004f04be0000000600e48240001078a30080
:1038600007003200640240001178a3003400be005b
:103870001401be00040032000330a700000006005f
:103880003500be001501be000330a0000000060098
:1038900005ff270005826100070032000428e100cf
:1038a00001003200240005000600070001003a0074
:1038b000440005000408050002000700f9ff3a0073
:1038c000140005006f8261008102700085027100a2
:1038d0008502720000000600800078005002be00e1
:1038e0005003be004439de00f700b200f37f200031
:1038f00003016100090032000218e10016003a00dd
:103900008501720083017300838173000008200029
:1039100015003a00400020001300370085017200b6
:10392000830173008381730005003a0004a8be0080
:1039300006a8be00100020000b0037000201e900bd
:103940000402420085824a0006034b0087834b0035
:103950000748a300f9ff32000740a00004a8be00fa
:1039600006a8be0020002000800098009200980069
:103970000000060081002000618055000b003d0022
:103980000b00200061fe2f000100e1001d0034004b
:1039900082817100610164008904d1000884d30030
:1039a0000000e800faff3a007100200061006400a6
:1039b000030070000200600009003200610444004e
:1039c000e0844c000988a500050032008b05e80062
:1039d0006808e10002003a008904d1000884d3009d
:1039e000f20f20000258e10005003d00c75ddd0038
:1039f000f907b20089807500080078000000060011
:0c3a00000bf827008b0078000000050088
:020000040000fa
:100008009402000094020000940200009402000090
:100018009402000094020000940200009402000080
:10002800940200009402000094020000b628000028
:100038009402000094020000940200009402000060
:100048009402000094020000940200009402000050
:100058009402000094020000940200009402000040
:100068009402000094020000940200009402000030
:100078009402000094020000940200009402000020
:100088009402000094020000940200009402000010
:100098009402000094020000940200009402000000
:1000a80094020000940200009402000094020000f0
:1000b80094020000940200009402000094020000e0
:1000c80094020000940200009402000094020000d0
:1000d80094020000940200009402000094020000c0
:1000e80094020000940200009402000094020000b0
:1000f80094020000940200009402000094020000a0
:10010800940200009402000094020000940200008f
:10011800940200009402000094020000940200007f
:10012800940200009402000094020000940200006f
:10013800940200009402000094020000940200005f
:10014800940200009402000094020000940200004f
:10015800940200009402000094020000940200003f
:10016800940200009402000094020000940200002f
:10017800940200009402000094020000940200001f
:10018800940200009402000094020000940200000f
:1001980094020000940200009402000094020000ff
:1001a80094020000940200009402000094020000ef
:1001b80094020000940200009402000094020000df
:1001c80094020000940200009402000094020000cf
:1001d80094020000940200009402000094020000bf
:1001e80094020000940200009402000094020000af
:0801f8009402000094020000d3
:020000040000fa
:10020800940200009402000094020000940200008e
:10021800940200009402000094020000940200007e
:10022800940200009402000094020000b628000026
:10023800940200009402000094020000940200005e
:10024800940200009402000094020000940200004e
:10025800940200009402000094020000940200003e
:10026800940200009402000094020000940200002e
:10027800940200009402000094020000940200001e
:10028800940200009402000094020000940200000e
:1002980094020000940200009402000094020000fe
:1002a80094020000940200009402000094020000ee
:1002b80094020000940200009402000094020000de
:1002c80094020000940200009402000094020000ce
:1002d80094020000940200009402000094020000be
:1002e80094020000940200009402000094020000ae
:1002f800940200009402000094020000940200009e
:10030800940200009402000094020000940200008d
:10031800940200009402000094020000940200007d
:10032800940200009402000094020000940200006d
:10033800940200009402000094020000940200005d
:10034800940200009402000094020000940200004d
:10035800940200009402000094020000940200003d
:10036800940200009402000094020000940200002d
:10037800940200009402000094020000940200001d
:10038800940200009402000094020000940200000d
:1003980094020000940200009402000094020000fd
:1003a80094020000940200009402000094020000ed
:1003b80094020000940200009402000094020000dd
:1003c80094020000940200009402000094020000cd
:1003d80094020000940200009402000094020000bd
:1003e80094020000940200009402000094020000ad
:0803f8009402000094020000d1
:020000040000fa
:0200000401f009
:04001c00dfff000002
:020000040000fa
:0200000401f009
:04001800f7000000ed
:020000040000fa
:0200000401f009
:040014005f00000089
:020000040000fa
:0200000401f009
:04001000810000006b
:020000040000fa
:0200000401f009
:04000c00830000006d
:020000040000fa
:0200000401f009
:0400080007000000ed
:020000040000fa
:0200000401f009
:04000400cf00000029
:020000040000fa
:0200000401f009
:04000000cf0000002d
:020000040000fa
:103a0c00000000000000000000000000004f00005b
:103a1c000000000000070000000700000014000078
:103a2c007f1400007f140000242a00007f2a00006d
:103a3c0012230000130800006462000036490000e5
:103a4c00552200005000000005030000000000009b
:103a5c00001c000022410000000000004122000078
:103a6c001c000000140800003e08000014080000b0
:103a7c00083e000008080000005000003000000064
:103a8c0000080000080800000808000000600000a2
:103a9c00600000000020000010080000040200007c
:103aac003e510000494500003e000000427f0000ee
:103abc004000000042610000514900004621000016
:103acc00414500004b31000018140000127f00002b
:103adc001027000045450000453900003c4a000015
:103aec004949000030010000710900000503000085
:103afc0036490000494900003606000049490000db
:103b0c00291e0000003600003600000000000000f6
:103b1c00563600000000000008140000224100008e
:103b2c0000140000141400001414000000410000e4
:103b3c0022140000080200000151000009060000d8
:103b4c0032490000794100003e7e00001111000056
:103b5c00117e00007f49000049490000363e0000fc
:103b6c0041410000412200007f4100004122000041
:103b7c001c7f000049490000494100007f090000fa
:103b8c0009090000013e000041490000497a00008b
:103b9c007f080000080800007f000000417f000043
:103bac004100000020400000413f0000017f000068
:103bbc0008140000224100007f400000404000003b
:103bcc00407f0000020c0000027f00007f04000018
:103bdc00081000007f3e000041410000413e000003
:103bec007f09000009090000063e00004151000059
:103bfc00215e00007f0900001929000046460000e4
:103c0c004949000049310000010100007f0100001a
:103c1c00013f000040400000403f00001f2000001a
:103c2c00402000001f3f000040380000403f0000d3
:103c3c006314000008140000630700000870000003
:103c4c0008070000615100004945000043000000d6
:103c5c007f41000041000000020400000810000039
:103c6c0020000000414100007f0000000402000021
:103c7c0001020000044000004040000040400000f1
:103c8c000001000002040000002000005454000059
:103c9c00547800007f48000044440000383800008d
:103cac004444000044200000384400004448000014
:103cbc007f3800005454000054180000087e0000a7
:103ccc0009010000020c000052520000523e00009c
:103cdc007f0800000404000078000000447d000010
:103cec004000000020400000443d0000007f000028
:103cfc001028000044000000004100007f4000003c
:103d0c00007c000004180000047800007c0800000f
:103d1c0004040000783800004444000044380000db
:103d2c007c14000014140000080800001414000097
:103d3c00187c00007c080000040400000848000007
:103d4c005454000054200000043f00004440000084
:103d5c00203c000040400000207c00001c200000a3
:103d6c00402000001c3c000040300000403c0000a3
:103d7c004428000010280000440c000050500000a3
:103d8c00503c000044640000544c0000440000000f
:103d9c000836000041000000000000007f00000019
:103dac000000000041360000080000000201000085
:083dbc000204000002000000f7
:020000040000fa
:103dc40000080000000400000200000000000000e1
:103dd40000000000000000000000000000000000df
:103de40000000000000000000000000000000000cf
:103df40000000000000000000000000000000000bf
:103e040000000000000000000000000000000000ae
:103e1400000000000000000000000000000000009e
:103e2400808080000000000000000000000000000e
:103e340000000000000000008080c000c0000000fe
:103e4400000000000000000000000000000000006e
:103e5400000000000000000000000000000000005e
:103e6400000000000000000000000000000000004e
:103e7400000000000000000000000000000000003e
:103e8400000000000000000000000000000000002e
:103e94000080c000e0f0f800fcf8e0000000000042
:103ea400000000000000000000000000000000000e
:103eb400000080008080800080008000800000007e
:103ec40000008000808080008000ff00ffff000071
:103ed40000000000808080008000000080800000de
:103ee4000080ff00ff808000008080000080800050
:103ef40080800000808000000000000000808000be
:103f040000008c008e8400000080f800f8f8800027
:103f1400000000000000000000000000000000009d
:103f240000f0f000f0f0f000f0f0f000f0f0f0003d
:103f3400f0e0e000c0800000e0fcfe00ffffff00b6
:103f44007fffff00ffffff000000000000000000f3
:103f540000000000000000000000fe00ffc7010098
:103f64000101010083ffff0000007c00fec7010087
:103f74000101010083ffff00ff003800fec783003a
:103f84000101010083c7ff00ff00000001ffff00e3
:103f940001010000ffff07000101010000007f0094
:103fa400ff8000000000ff00ff7f000000ffff0013
:103fb400ff00000001ffff00ff01000000000000ff
:103fc400000000000000000000000000030f3f009c
:103fd4007f7fff00ffffff00ffffff00e7c7c70071
:103fe4008f8f9f00bfffff00c3c0f000ffffff00e3
:103ff400fffffc00fcfcfc00fcfcfc00fcf8f800ef
:10400400f0f0e000c000010003030300030301001b
:104014000303000000000000010303000303010088
:104024000103010000000000010303000303010079
:10403400010303000000000003030000000003006c
:10404400030000000000000000000100030303005f
:104054000303010000000000010301000000000050
:104064000303010000000000000000000000000045
:10407400000000000000000000008000c0e0f0002c
:10408400f9ffff00ffffff003f1f0f0087c7f70086
:10409400ffff1f001f3dfc00f8f8f800f87c7d00ce
:1040a400ffffff00ffffff00ffff7f003f0f070040
:1040b400003030000000000000000000000000009c
:1040c40000000000000000000000000000000000ec
:1040d40000fefe00fc0000000000000000000000e4
:1040e40000000000000000000000000000000000cc
:1040f4000000e000c000000000000000000000001c
:10410400000000003030000000000000000000004b
:10411400000000000000000000000000000000009b
:104124000000c000feffff00ffffff00ffffff00d5
:10413400ff7f7f003f1f0f00071f7f00fffff80076
:10414400f8ffff00ffffff00fef8e00000000000a2
:10415400010000000000000000000000fefe00005e
:104164000000fc00fefc0c0006060e00fcf800003b
:1041740000f0f8001c0e060006060c00ffffff000e
:104184000000fe00fe0000000000fc00fefc000039
:10419400183c7e0066e6ce008400000006ffff00a7
:1041a4000606fc00fefc0c00060606000000fe00ed
:1041b400fe000000c0f8fc004e464600464e7c005f
:1041c400784018003c76e600cecc80000000000069
:1041d40000000000000000000000000000000000db
:1041e4000000000000000100070f1f001f3f3f00f8
:1041f4003f3f1f000f03000000000000000000000c
:104204000000000000000f000f000000000f0f006e
:104214000f00000000000f000f00000003070e0055
:104224000c1818000c060f000f0f000000010f00ff
:104234000e0c18000c0f0700010004000e0c1800ef
:104244000c0f0700000000000f0f0000000f0f000c
:104254000f00000000000000000f0f00000000002d
:1042640007070c000c181c000c06060000040e00c6
:104274000c180c000f0700000000000000000000f4
:10428400000000000000000000000000000000002a
:10429400000000000000000000000000000000001a
:1042a400000000000000000000000000000000000a
:1042b40000000000000000000000000000000000fa
:1042c40000000000000000000000000000000000ea
:1042d40000000000000000000000000000000000da
:1042e40000000000000000000000000000000000ca
:1042f40000000000000000000000000000000000ba
:1043040000000000000000000000000000000000a9
:104314000000000000000000000000000000000099
:1043240000000000000c0000020000000200000079
:1043340000000000020e00002a000000020000003d
:1043440030313200333435003637380039414200d9
:1043540043444500460030003132330034353600e2
:1043640037383900616263006465660000286e00b6
:10437400756c6c0029000000620d0000a0000000b4
:1043840002000000010000000000000000000a001c
:1043940000000000000000000064000000000000b5
:1043a40000000000e803000000000000000010000e
:1043b400270000000000000000a0860001000000ab
:1043c4000000000040420f000000000000008000d8
:1043d40096980000000000000000e100f5050000d0
:1043e4000000000000ca9a003b000000000000002a
:1043f400e40b5400020000000000e80076481700b7
:10440400000000000010a500d4e800000000000037
:10441400a0724e0018090000000040007a10f3005a
:104424005a0000000080c600a47e8d000300000036
:1044340000c16f00f2862300000000008a5d78004e
:104444004563010000006400a7b3b600e00d00005e
:1044540000e889000423c7008a000000020c000061
:1044640060010000020000000000000000000000e5
:10447400f03f0000000000000000240040000000a5
:10448400000000000059400000000000000040004f
:104494008f400000000000000088c30040000000be
:1044a400000000006af84000000000000080840062
:1044b4002e41000000000000d01263004100000003
:1044c40000008400d7974100000000000065cd0083
:1044d400cd410000000020005fa002004200000067
:1044e40000801d00af1544000000000040593e004c
:1044f40029460000000000000000f0007f000000da
:104504000000000000f07f00000000000000000038
:10451400f07f0000000000000000f0007f000000b9
:104524000000000000f07f00000000000000000018
:10453400f07f0000000000000000f0007f00000099
:104544000000000000f07f000000000000000000f8
:10455400f07f0000000000000000f0003f000000b9
:1045640000a0990099b93f000000000040e17a00e2
:10457400843f00000000e0004d6250003f00000056
:1045840000e0e200361a3f000000000080b5f800a9
:10459400e43e00000000a000f7c6b0003e000000aa
:1045a40000a0f200d77a3e0000000000e08e7900ff
:1045b400453e00000000e0000b2e11003e0000000c
:1045c40000e0df007cdb3d000000000000a19c0057
:1045d400c73b0000000000004c48b4003900000054
:1045e400000020006ca13700000000000000000063
:1045f40000000000000000000000000000000000b7
:1046040000000000000000000000000000000000a6
:104614000000000000000000000000000000000096
:104624000000000000000000000000000000000086
:104634000000000000000000000000000000000076
:10464400520e000006000000000000002c0e0000c6
:104654002600000002000000530e000000530e006c
:104664000900000000020000550e000000550e0075
:104674000e02010000000000000000000000000025
:1046840006020200000000002c0e0000580e00007c
:104694000200000002000000010000000000000011
:020000040000fa
:1046a4000600fa001007980041479800cce2a900e0
:1046b400c402a9000042eb00044f78000800370050
:1046c4001e0290001442780004407800680307003a
:1046d4001e4fe8001e0290000402e8001407980030
:1046e4004e4290009e42780084cf5200f4ff39007d
:1046f4000000000000000000c402a8000080fa00ce
:10470400000006000600fa00100798002107980030
:10471400cce2a800c402a9000002eb00040f780058
:10472400080037001e02900014427800044078000c
:104734004f0307001e0fe8001e0290000402e80069
:10474400140798002e0290009e027800848f520075
:10475400f4ff39000000000000000000c402a800bb
:104764000080fa00000006000400fa0020479800c8
:1047740014c8b300044f78002e42900014479800e8
:1047840021c0b3000e007800c5ff07000080fa00c6
:10479400000006000400fa0020479800ae42900092
:1047a40044cab30004c27200044f780011c0b300bd
:1047b4000e007800baff07000080fa00000006002f
:1047c4000400fa0020479800ae42900064cab30087
:1047d40004c27200044f780011c0b3000e007800c8
:1047e400afff07000080fa00000006000400fa0092
:1047f40020479800ae429000e4cab30004c272009d
:10480400044f780011c0b3000e007800a4ff070025
:104814000080fa00000006000c00fa00004f980027
:10482400114f9800224f9800334f98008e4a900001
:1048340064c2b30004c27200044f78000042eb006b
:10484400144798001e4a9000244798002e4a90006e
:10485400344798003e4a9000444798000042eb00d9
:104864005447980000c2eb006447980071c0b3003d
:104874000e0078008aff07000080fa00000006009e
:104884000c00fa006047980071479800024f9800a6
:10489400134f9800244f9800ee42900094c2b30046
:1048a40004c27200044f78000042eb0014479800e1
:1048b4007e429000244798000e4a900034479800a6
:1048c4001e4a9000444798002e4a9000544798008e
:1048d40071c0b3000e00780071ff07000080fa0079
:1048e400000006000200fa00f4c2b300044f78008e
:1048f40011c0b3000e00780069ff07000080fa00c1
:10490400000006000200fa00e4c2b300044f78007d
:1049140011c0b3000e00780061ff07000080fa00a8
:10492400000006000600fa0040479800514798002e
:1049340034cab300044f78004e42900014479800e4
:104944005e4290002447980031c0b3000e00780006
:1049540053ff07000080fa00000006000400fa007c
:10496400204798002e4290006f426200044f780066
:1049740011c0b3000e00780049ff07000080fa0060
:10498400000006000400fa00204798002e42900020
:104994006f4262000444a000044f780011c0b300c9
:1049a4000e0078003eff07000080fa0000000600b9
:1049b4000400fa00204798002e42900062426200f0
:1049c40005c2b300054f78001447980021c0b30016
:1049d4000e00780032ff07000080fa000000060095
:1049e4000600fa0040479800514798004e42900054
:1049f400844278000574a1005e4290000474a10012
:104a040016c2b300064f7800154798002447980053
:104a140031c0b3000e00780021ff07000080fa00c7
:104a2400000006000600fa0040479800514798002d
:104a34004e429000e74262005e429000674262008c
:104a440026c2b300064f7800154798002447980003
:104a540031c0b3000e00780011ff07000080fa0097
:104a6400000006000400fa0020479800ae429000bf
:104a740004cbb30004c27200044f780011c0b30029
:104a84000e00780006ff07000080fa000000060010
:104a94000400fa0020479800ae42900004c4b3001a
:104aa40004c27200044f780011c0b3000e007800f5
:104ab400fbfe07000080fa00000006000400fa0074
:104ac40020479800ae42900004cab30004c27200aa
:104ad400044f780011c0b3000e007800f0fe070008
:104ae4000080fa00000006000400fa002047980045
:104af4002e429000f443b20085cab300054f7800fb
:104b04001447980021c0b3000e007800e4fe0700ab
:104b14000080fa00000006000400fa002047980014
:104b2400ae42900004ccb30004c27200044f78007b
:104b340011c0b3000e007800d9fe07000080fa000f
:104b4400000006000400fa00204798002e4290005e
:104b5400f443b20035cdb300054f780014479800f4
:104b640021c0b3000e007800cdfe07000080fa00db
:104b7400000006000400fa0020479800a4cdb3000a
:104b8400044f78002e4290001447980021c0b300cf
:104b94000e007800c2fe07000080fa000000060044
:104ba4000400fa0020479800314798002e429000f4
:104bb4000482fb004422dd00844278003e429000df
:104bc40004c2720055cdb300054f78001447980015
:104bd40021c0b3000e007800b1fe07000080fa0087
:104be400000006000400fa002047980094cdb300aa
:104bf400044f78002e4290001447980021c0b3005f
:104c04000e007800a6fe07000080fa0000000600ef
:104c14000400fa0020479800b4cdb300044f780094
:104c24002e4290001447980021c0b3000e00780073
:104c34009bfe07000080fa00000006000200fa0054
:104c440034ceb300044f780011c0b3000e007800d6
:104c540093fe07000080fa00000006000400fa003a
:104c640020479800d4c8b300044f78002e42900027
:104c74001447980021c0b3000e00780088fe070096
:104c84000080fa00000006000000fa00f3010700ab
:104c94000080fa00000006000000fa00c002a9002b
:104ca400c8c2a900c8e2a900f7ff07000080fa0003
:104cb400000006000000fa00f7ff070002000700ea
:104cc4000080fa00000006000000fa00ccc2a80030
:104cd40000c02900010020007b020700ccc2a9000b
:104ce400008021006100200077020700ccc2a800e8
:104cf4000040eb00bdfe0700f0c3b3007aff0700dd
:104d04000040eb008fff07000040eb0060ff07004e
:104d140010c0b30069ff070080c0b3007eff070026
:104d240020c1b30093ff0700f0c7b3008efe070055
:104d34000040eb0097fe07000040eb00a0fe0700d8
:104d44008040eb0080c0b30095ff070040c1b30072
:104d5400c2ff07000040eb0015ff070010c0b300be
:104d6400a2fe07000080fa00000006000000fa001e
:104d7400f1c7b3000040eb0019ff070071c0b30096
:104d84000040eb0027ff07000140200000802000c6
:104d94005cfe07000080fa00000006000000fa0034
:104da400024020008000eb0000802000dfed0700bf
:104db4000080fa00000006000400fa00004f7800aa
:104dc40011479800224798002e429000e84f520065
:104dd4000c003e002e4290000442e9002447980053
:104de4001e4290000442e90014479800ae4190002e
:104df4001e4190009e407800008020001e010700a4
:104e040001003700000000000080fa0000000600e6
:104e14000600fa001007980041479800524798008e
:104e24001e009000c8ed070000027800044f7800cf
:104e34009e4278000582fb00e50242004e4290004b
:104e44000482fb00048242008402780004082000eb
:104e5400848f52000d003e005e4290000442e9003f
:104e6400544798004e4290000442e9004447980099
:104e74001e427800de4190004e4190009e0090005a
:104e8400008020002401070001003700000000001a
:104e94000080fa00000006001c00fa0068025700b7
:104ea400040f7800630247009e0178004eb9970012
:104eb4009101200004007800aaed07006302470076
:104ec40004007800a0ed0700000278002447980051
:104ed400e30247002e42900013c0b30012c0b30097
:104ee40085007800008020000b0107000080fa0094
:104ef400000006000200fa00004f780011479800f5
:104f04001e427800e04f52001400320004c8b3007f
:104f14009e42780084cf520012003e001e42900050
:104f2400e04f5200110032009e42900004c4b300ce
:104f340084cf52000f003e001e4290000442e9005c
:104f4400144798001e4fe9001e4190009e407800cf
:104f5400008020009b0107000700370000000000cc
:104f640005003700000000000300370000000000c7
:104f740001003700000000000080fa000000060075
:104f84000400fa00b30107004aff070046010700c6
:104f9400000120004f01070004c4b300044f78004f
:104fa40004c2b3001447980014c0b3002447980007
:104fb40014c0b3003447980078ff07009e42900065
:104fc4001e4278008540780004407800c9ff07003d
:104fd40066ff0700690107000100370000000000b8
:104fe40004c0200014427800e04f5200fbff32005e
:104ff400241680004422de00614262000404a20000
:10500400614262000482fb00610262004422dd000e
:1050140026168000f5fe2f008502630004827200cc
:10502400241688005dff0700630347008e82e800b2
:105034000e02e800860178000501780084007800fb
:105044000e0078000500070048ff07000042eb004f
:105054000440780000ecb700e1ff37000800fa00d4
:10506400000f780011079800220798003307980072
:105074001e027800944278002e02900014427800b8
:1050840004c242009e027800844a78001e02900006
:10509400944278003e0290001442780004c2420018
:1050a4009e029000844a7800be0190002e01900078
:1050b4009e0090001e007800090007001e02900068
:1050c400944278001e0278001442780085407800eb
:1050d4000440780087ff07000080fa000000060003
:1050e4000800fa00000f78001107980022079800c2
:1050f400330798001e02780014427800e04f5200f3
:10510400040035001e02780014427800e14f52007a
:1051140005003e002e029000144278000442ea008a
:10512400ae029000844a78001e02900094427800f7
:10513400f4c3b30084cf520004003e001e0290006a
:1051440014427800e14f520005003e003e029000f8
:10515400144278000442ea00be029000844a7800b7
:105164000080fa0000000600801f7800841f780089
:105174000000fa008460a90014c0b3000440780061
:1051840000ecb7000080fa004f0278004f0078006e
:10519400004006000200fa00004f78001e4278002a
:1051a400ff4f520006003400f4c7b3009e4278005b
:1051b40084cf5200020032001400200001003700a6
:1051c4000002eb0004427800044078000080fa00fa
:1051d400000006000a00fa002007980061479800c2
:1051e40072479800034f98007e4290008482fb002f
:1051f4000e4a90000482fb004722dd000482420034
:10520400ae0290000482420014079800ee4290001f
:1052140004ceb30004c24200644798000042eb008d
:10522400044f78000f0037006e4290000402fb0028
:105234009e4278000583fb006522b90004027800d1
:105244000602420065d0290065427a009e02900061
:10525400844a78001e4fe8001e0290000402e80011
:10526400140798001e427800e44f5200eeff360007
:105274000080fa00000006000600fa00000f780023
:10528400214798003247980043479800be42900057
:10529400b4c7b30084cf52001c003e002e409000df
:1052a400bcff070000427800e04f520006003200c5
:1052b400ce4190003e419000ae4090001e00780028
:1052c400c4ff0700120037002e429000ea4f52003c
:1052d4000f0032002e429000e94f52000c003a00b9
:1052e400ce4190003e41900001c2b3001e00780000
:1052f400e1ff0700ce4190003e41900001c2b3009f
:105304001e007800dcff07000100370000000000e9
:105314000080fa00000006000a00fa001007980056
:10532400210798006247980073479800044f98003b
:105334000042eb00044f78000e0037002e0290006c
:1053440014427800fe4190006e4190008440780041
:105354001e009000c8ff07001e4fe8001e029000c8
:1053640065024200140798002e0290000402e8002f
:10537400240798000e4a90009e42780084cf520081
:10538400eeff39000080fa00000006000000fa0079
:10539400153a8000f40b20000483620064042000aa
:1053a4007505200027742000844b7800854b780015
:1053b400864b780045368000f40f2e00848262000c
:1053c4000470200004827200443688004536800050
:1053d40004fe2f00048262000430a00044368800da
:1053e400153a800004042000048372006404200041
:1053f4007505200027742000844b7800854b7800c5
:10540400864b78000080fa00000006000000fa00d5
:1054140041e2a9004382a9004362a9004342a900d2
:105424004302a90042c2a80042a2a80014128000ac
:105434000400a0000410a0001412880014128000bc
:105444000420a1000430a1000440a000141288002c
:1054540041e2a8000080fa00000006000000fa0003
:10546400caff0700e9ff07000080fa0000000600f9
:105474000200fa00004f78009e4278000582fb008b
:1054840044128800000000000412800061026200df
:10549400e00f5200fcff3200441280000400780048
:1054a4000080fa00000006000000fa000403200057
:1054b400240888000002eb00040888000002eb00c6
:1054c400140888008460a9009460a9000080fa0090
:1054d400000006000200fa00000f78002508800092
:1054e40004032000048272002408880004192000a8
:1054f4009e027800848f52000200360004192000b6
:10550400040f78000002eb00040888009e02780073
:10551400c409200004aab900040278001408880011
:105524000080fa00000006000200fa00000f780074
:1055340025088000f4fc2f000482620024088800ff
:10554400743e20009e027800848f520002003600d0
:10555400743e2000040f78000002eb000408880069
:105564009e0278007402200004aab90004027800a4
:10557400140888000080fa00000006000000fa0009
:105584002508800004002800048272002408880092
:105594008460a9009460a8000080fa00000006005e
:1055a4000000fa0025088000f4ff2700048262004e
:1055b400240888008460a9009460a9000080fa008f
:1055c400000006000400fa00000f7800214798004c
:1055d400324798002e4290008482fb003e429000a5
:1055e4000482fb004322de00044278000482fb00b4
:1055f4004722dd00048242001e0342002e42900036
:105604008482fb003e4290000482fb004322de00c1
:10561400044278000482fb004722dd000482420039
:105624001e02420014427800844278003e429000f8
:105634000482fb006702620017002000043add00c8
:105644000442780004c27200044b78000080fa001f
:10565400000006000000fa00030007001400070021
:105664000080fa00000006000000fa00253a8000dd
:1056740004fe2f00048262000420a000243a880063
:10568400353a800004e02f00848262000408200080
:1056940004827200343a8800243a80000460a10035
:1056a4000470a100243a88000080fa00000006007b
:1056b4000000fa000082eb0064198800c082a9008f
:0856c4000080fa00000006005e
:020000040000fa
:1056cc00f03fb1000180b10006003500ee03090087
:1056dc0000000000403fb1000180b100fbff3d0025
:1056ec001000b000203fb00002003500008009001f
:0856fc000000000000000600a0
:00000001FF
