:020000040000fa
:080000000002040000000000f2
:020000040000fa
:100008001a0300001a0300001a0300001a03000074
:100018001a0300001a0300001a0300001a03000064
:100028001a030000c40400001a030000140b0000a7
:100038001e070000fa0400001a0300001a0300005b
:100048001a0300001a0300001a030000f805000054
:100058003a0600001a0300001a0300001a03000001
:100068001a0300001a0300001a0300001a03000014
:100078001a0300001a0300001a0300001a03000004
:100088001a0300001a0300001a0300001a030000f4
:100098001a0300001a0300001a0300001a030000e4
:1000a8001a0300001a0300001a0300001a030000d4
:1000b8001a0300001a0300001a0300001a030000c4
:1000c8001a0300001a0300001a0300001a030000b4
:1000d8001a0300001a0300001a0300001a030000a4
:1000e8001a0300001a0300001a0300001a03000094
:1000f8001a0300001a0300001a0300001a03000084
:100108001a0300001a0300001a0300001a03000073
:100118001a0300001a0300001a0300001a03000063
:100128001a0300001a0300001a0300001a03000053
:100138001a0300001a0300001a0300001a03000043
:100148001a0300001a0300001a0300001a03000033
:100158001a0300001a0300001a0300001a03000023
:100168001a0300001a0300001a0300001a03000013
:100178001a0300001a0300001a0300001a03000003
:100188001a0300001a0300001a0300001a030000f3
:100198001a0300001a0300001a0300001a030000e3
:1001a8001a0300001a0300001a0300001a030000d3
:1001b8001a0300001a0300001a0300001a030000c3
:1001c8001a0300001a0300001a0300001a030000b3
:1001d8001a0300001a0300001a0300001a030000a3
:1001e8001a0300001a0300001a0300001a03000093
:0801f8001a0300001a030000c5
:020000040000fa
:100208001a0300001a0300001a0300001a03000072
:100218001a0300001a0300001a0300001a03000062
:100228001a030000c40400001a030000140b0000a5
:100238001e070000fa0400001a0300001a03000059
:100248001a0300001a0300001a030000f805000052
:100258003a0600001a0300001a0300001a030000ff
:100268001a0300001a0300001a0300001a03000012
:100278001a0300001a0300001a0300001a03000002
:100288001a0300001a0300001a0300001a030000f2
:100298001a0300001a0300001a0300001a030000e2
:1002a8001a0300001a0300001a0300001a030000d2
:1002b8001a0300001a0300001a0300001a030000c2
:1002c8001a0300001a0300001a0300001a030000b2
:1002d8001a0300001a0300001a0300001a030000a2
:1002e8001a0300001a0300001a0300001a03000092
:1002f8001a0300001a0300001a0300001a03000082
:100308001a0300001a0300001a0300001a03000071
:100318001a0300001a0300001a0300001a03000061
:100328001a0300001a0300001a0300001a03000051
:100338001a0300001a0300001a0300001a03000041
:100348001a0300001a0300001a0300001a03000031
:100358001a0300001a0300001a0300001a03000021
:100368001a0300001a0300001a0300001a03000011
:100378001a0300001a0300001a0300001a03000001
:100388001a0300001a0300001a0300001a030000f1
:100398001a0300001a0300001a0300001a030000e1
:1003a8001a0300001a0300001a0300001a030000d1
:1003b8001a0300001a0300001a0300001a030000c1
:1003c8001a0300001a0300001a0300001a030000b1
:1003d8001a0300001a0300001a0300001a030000a1
:1003e8001a0300001a0300001a0300001a03000091
:0803f8001a0300001a030000c3
:020000040000fa
:10040000cf8920000e7724000e0188000000000034
:10041000000020000000e000020032000001200087
:10042000200288000c000700a0b12000010020007d
:1004300011000700000020000000e0000200320070
:100440000000020000000000f40a020000000000aa
:100450000040da000000fe004440a900a007200090
:100460000000e0000300320000002000a00188002e
:100470004440a80000000600910188008000780038
:100480000000eb0015003700e280400032a0b4000d
:100490009101ba00e280400032a0b4009102ba009b
:1004a000e280400032a0b4000002eb00472bde00e7
:1004b000f507b200602ce10004003a000059eb009f
:1004c0008301e900fdff3e00040037006128e100e0
:1004d000010032000082eb00040007001101ba00a5
:1004e0000200e000e8ff3a00000006003159ba00bf
:1004f0008301e9000c0032002159ba008301e900b0
:10050000080032000400e00003003a00e2804000ee
:1005100032a0b400f5ff370011d9ba008301e90019
:10052000faff3a008100e800e180400032a0b40008
:100530000000060040040400000000001204040053
:1005400000000000e603040000000000b8030400ff
:100550000000000058080400000000005e080400cd
:100560000000000064080400000000006a080400a5
:10057000000000007008040000000000760804007d
:10058000000000007c080400000000008208040055
:100590000000000088080400000000008e0804002d
:1005a0000000000094080400000000009a08040005
:1005b00000000000a608040000000000ac080400d1
:1005c00000000000b208040000000000b8080400a9
:1005d00000000000be08040000000000c408040081
:1005e00000000000ca08040000000000d008040059
:1005f00000000000d608040000000000dc08040031
:1006000000000000e208040000000000e808040008
:1006100000000000ee08040000000000f4080400e0
:100620000000000042090400000000000809040066
:10063000000000000040da000000fe006022b80068
:10064000060220000000d0008180d2000482d20087
:100650008582d2000000a0000202520083825a006c
:10066000030031000202420083824a000000a10020
:0c0670000603e900f3ff3a00000006005a
:020000040000fa
:10067c00580800005e080000640800006a080000ca
:10068c0070080000760800007c080000820800005a
:10069c00880800008e080000940800009a080000ea
:1006ac00a6080000ac080000b2080000b808000062
:1006bc00be080000c4080000ca080000d0080000f2
:1006cc00d6080000dc080000e2080000e808000082
:1006dc00ee080000f4080000040100001001000006
:1006ec00120100001e0100002001000003070000a1
:1006fc00080b00000c0000000001000006010000c7
:10070c000a010000140100001801000002010000a1
:10071c000c0100000e0100001a0100001c01000079
:10072c000105000042010000460100005a010000d2
:10073c005e0100004004000012040000e60300000b
:10074c00b8030000e4010000f4010000e001000027
:10075c00f00100004209000008090000010400003b
:04076c001040000039
:020000040000fa
:10077000f60b2000143a8000040363006404200098
:100780007505200027742000844b7800854b780085
:10079000864b78007f0060004800dd00f60f2e00d9
:1007a000a73480000703630006037000a6348800a6
:1007b000163a80000660a00027742000844b780061
:1007c000854b7800864b780000000600f60b200071
:1007d000143a8000040363006404200075052000bf
:1007e00027742000844b7800854b7800864b780076
:1007f0007f00600006fe2f00a7348000070363001f
:1008000006037000a6348800163a80000660a00037
:1008100027742000844b7800854b7800864b780045
:1008200000000600f60b2000143a80000403630069
:10083000640420007505200027742000844b780094
:10084000854b7800864b78007f0060004800dd0013
:10085000f60f2e0077348000070363000603700054
:1008600076348800163a80000660a00027742000c5
:10087000844b7800854b7800864b7800000006009a
:10088000f60b2000143a8000040363006404200087
:100890007505200027742000844b7800854b780074
:1008a000864b78007f00600006fe2f0077348000c2
:1008b000070363000603700076348800163a800050
:1008c0000660a00027742000844b7800854b7800d8
:1008d000864b780000000600881f78000004400066
:1008e000043a280064027c00014078000400010002
:1008f0008439280064027c0005022000050a780083
:1009000004032800940888004f04780000000600c3
:10091000000378006439280064427b000482fb00f5
:1009200015002000042add008482ea008002fd0018
:100930008420b6008002fd00040078009420b700f7
:10094000060043008439280064027800148a70008d
:100950000000060064392800644078000080fb0035
:10096000140020000020dd000080ea008420b60092
:100970009420b600000006000000400024892000fa
:100980006400780000000600849fbe00861f780087
:100990000400fa00040a8000e4bf9f00050a8000fa
:1009a000f5bf9f007fba97006fbb9700860f52007c
:1009b00005003600ffba9700248920006fbb97001e
:1009c000068a52000600370074088000efba9700cc
:1009d0007fbb97000403430024892000050a5300cd
:1009e0008420a9000080fa004f0378004f02be0067
:1009f00000400600849fbe00861f78000400fa00b5
:100a0000240a8000e4bf9f00250a8000f5bf9f00f4
:100a10007fba9700efba9700850f520005003600a5
:100a20007fba9700efba970005025200a4448800ed
:100a30000600370074088000efba97007fbb97006c
:100a40000402430005025200a444880084a0a900c7
:100a50000080fa004f0378004f02be0000400600fd
:100a60000001be000060210061022000f3fe0700cb
:100a70000002e900441188000400280004118800e5
:100a800004402000141188008560a9009560a8002a
:100a90000000060080c2900010c2900004c0520006
:100aa000000006000200fa00e1ff9f0000c2900073
:100ab000f403b200effa970005707a0000c29000cc
:100ac0000442e80004c098000080fa00000006001c
:100ad0000200fa0010c29000f403b20060427a00f3
:100ae000e4ff9f0010c290000442e80014c0980088
:100af0006ff897000080fa0000000600f60b200057
:100b0000143a80000403630064042000750520008b
:100b100027742000844b7800854b7800864b780042
:100b200006fe2f002735800007036300a600b300f0
:100b300026358800f60f2e00573680000703630025
:100b40000630b30056368800163a80000660a000d2
:100b500027742000844b7800854b7800864b780002
:100b600000000600889fbe000004be00e3ff0700ef
:100b70000800be00baff07004f04be0000000600d8
:100b800082c8bf0083c8b6000080fb000000ea00f6
:100b90004f00de000000060020842000bdff07009b
:100ba000004278000040eb00804f5200020032000b
:100bb00020842000c6ff070000000600881f780080
:100bc0000044780000802000b2ff0700f4c3b300a7
:100bd000844f500004003e008840780000802000d0
:100be000b0ff07009580a8004f04780000000600c1
:100bf000849fbe00861f78000200fa008560a9006d
:100c000034118000e4ff9f00258820009542780081
:100c100034882000144278008582fb000482fb00a7
:100c200084825200f4032000848f52000d003e00a5
:100c30002488200014427800f443b2000443780072
:100c400025882000864a78002488200014427800f5
:100c50000482fb00258420006ffb970086727a00d7
:100c60008268ec000080fa004f0378004f02be005b
:100c700000400600849fbe00058420009542780055
:100c8000148420001442780084cf52000a003200fd
:100c90001484200014427800f403b2000580200080
:100ca00065427a000482fb00241188004168ec0050
:100cb0008580a900010037009580a9004f02be0081
:100cc00000400600440e2000041988000042e9009c
:100cd0000482fb004222dd0004a0a0001419880059
:100ce000f4f32100241988002400200094198800be
:100cf0000002eb0034198800441988000000060047
:100d00000400fa000042eb00c4ff9f000002eb0069
:100d1000f4bf9f004ffa9700e34f520009003e00d6
:100d20007fba970030024200f4bf9f004ffa97004d
:100d30000442e800c4ff9f004ffa9700e34f5200bf
:100d4000f7ff36007fba97004222de008408780061
:100d50000080fa0000000600041c80000440a1008e
:100d60000450a000041c8800041c80000400a100a2
:100d70000410a000041c880004302000441c8800db
:100d800074012000541c8800d4002000141c88002a
:100d900004782000241c8800047c2000341c880077
:100da0008480a9009480a80081e3a90000000600c7
:100db00015002000002add000480ea002c23b60084
:100dc0008128dd008182ea008002fd002c23b6002c
:100dd0008002fd00040078003023b7000100780095
:100de0003023b70020c0b300b6ff0700daff0700ca
:100df000f4ff2d0045082000950a620040092000fc
:100e00001008620000000600051980000400280098
:100e1000050272000419880081e3a80000000600a2
:100e200021e3a90081e3a9000000060000004000c2
:100e30004488200064007800000006003600f800b6
:100e4000809fbe00829fbe00849fbe00869fbe0022
:100e50000489200014427800e04f520013003a0049
:100e60004188200000782400a5ff07006188200049
:100e700080782400a2ff07008188200000792400e8
:100e80009fff0700a1882000807924009cff0700b5
:100e9000c1882000007a240099ff0700e188200023
:100ea000807a240096ff0700120037004188200056
:100eb000007c240092ff070061882000807c2400d1
:100ec0008fff070081882000007d24008cff070031
:100ed000a1882000807d240089ff0700c1882000b0
:100ee000007a240086ff0700e1882000807a240031
:100ef00083ff07009008aa008480a9004f03be006a
:100f00004f02be004f01be004f00be003600f90088
:100f100000400600e40f50000b003e0000004000bf
:100f200024372800e40278000002eb00840a7800ed
:100f3000c5382800e5027800840a780025382800a2
:100f4000e5027800840a78000000060000004000f6
:100f5000243728006402780005032000148a7200f8
:100f60002438280064027800000aeb00c438280006
:100f70006402780005192000858f500001003600ba
:100f800085007800c6092000068bb900060a7800a3
:100f900000000600000040002437280064027800aa
:100fa000f5fc2f00148a62002438280064027800bf
:100fb000000aeb00c438280064027800753e200067
:100fc000858f5000010036008500780086022000e1
:100fd000068bb900060a78000000060000024000f7
:100fe0002537280065027a0005002800148a72005f
:100ff000e20f50000b003e00c43728006440780028
:101000000080fb00140020000020dd000082ea00c8
:101010000002fd008420b6000002fd009420b7000d
:101020000a003700c4372800644078000080fb00c5
:10103000140020000020dd000082ea000002fd0014
:101040008620b6000002fd009620b70000000600d2
:10105000000240002537280065027a0014f0a10044
:10106000e20f500009003e00c437280064407800b9
:101070000080fb00140020000020dd000080ea005a
:101080008420b6009420b60008003700c43728003a
:10109000644078000080fb00140020000020dd0088
:1010a0000080ea008620b6009620b6000000060008
:1010b0000080fb00c026b700000006004800dd00ed
:1010c000c026b700000006000080fb00c226b70063
:1010d000000006004800dd00c226b7000000060040
:1010e0000080fb00c426b700000006004800dd00b9
:1010f000c426b700000006000080fb00c626b7002b
:10110000000006004800dd00c626b700000006000b
:101110000080fb00c826b700000006004800dd0084
:10112000c826b700000006000080fb00ca26b700f2
:101130000000060054368000f40fb3004800dd00c4
:101140000400700050368800000006000080fb009c
:10115000cc26b700000006004800dd00cc26b70012
:10116000000006000080fb00ce26b700000006004d
:101170004800dd00ce26b700000006000080fb001e
:10118000d026b700000006004800dd00d026b700da
:10119000000006000080fb00d226b7000000060019
:1011a0004800dd00d226b700000006000080fb00ea
:1011b000d426b700000006004800dd00d426b700a2
:1011c000000006000080fb00d626b70000000600e5
:1011d0004800dd00d626b700000006000080fb00b6
:1011e000d826b700000006004800dd00d826b7006a
:1011f000000006000082fb0004024200e5332800e4
:1012000065027a0001407800040001000000060039
:10121000f60b2000143a80000403630064042000ed
:101220007505200027742000844b7800854b7800da
:10123000864b78007f00600006fe2f000735800097
:10124000070363000603700006358800ff80600016
:10125000c808dd00f60f2e00073580000703630085
:101260000683700006358800163a80000660a000ec
:1012700027742000844b7800854b7800864b7800db
:1012800000000600f60b2000143a800004036300ff
:10129000640420007505200027742000844b78002a
:1012a000854b7800864b78007f00600006fe2f009b
:1012b000e73480000703630006037000e63488000b
:1012c000ff806000c808dd00f60f2e00e7348000c4
:1012d0000703630006837000e6348800163a800036
:1012e0000660a00027742000844b7800854b7800ae
:1012f000864b780000000600889fbe0001427800ff
:10130000824078008304780000044000053b2800f8
:10131000e5027c000440780005000100c43a280082
:1013200064027c00c84cdd004904b300090a78005f
:101330004f04be0000000600000006000000400050
:10134000843a280064027800140078000000060047
:101350004200dd00000e880034032000440e8800a7
:1013600064002000540e8800000006000400fa000b
:1013700064825700453b280003000900355a780075
:101380006482570064c178000281fb0003002000e2
:101390000011b8000000260011262000a7fc07005d
:1013a0000002e900240e88000080fa000000060018
:1013b000889fbe008004780001047800080078004f
:1013c000e3ff07008800780009007800e7ff0700c6
:1013d0004f04be00000006000400fa00641d200057
:1013e000e4bf9f00841d2000f4bf9f000000400068
:1013f000e482570065027800010a78000080fa0054
:10140000000006000400fa00881f7800000478003d
:1014100001007800240e80000402e800040242006b
:1014200005002000d4bf9f00e5bf9f005fba970072
:10143000efba97006103b80006a9b900060078006a
:101440000400b80081004100420620000300200093
:101450007afc07008000780008007800deff0700b3
:101460004f0478000080fa0000000600050e80009e
:101470000400280005027200040e88000000060027
:10148000c1e1a9000000060041e2a9004382a900d1
:101490004362a9004342a9004302a90042c2a80036
:1014a00042a2a800141280003400b3001412880075
:1014b00034ff2f0015128000050262000440a000d6
:1014c0001412880041e2a80000000600f60b20007c
:1014d000143a8000040363006404200075052000b2
:1014e00027742000844b7800854b7800864b780069
:1014f000f70f2e00463680008683630006702000ba
:10150000070373004636880006fe2f00473680002a
:10151000070363000630a00046368800163a8000b4
:101520000660a00027742000844b7800854b78006b
:10153000864b780000000600e4ff0700d2ff07009a
:10154000000006000080fb00401288004002ab0053
:10155000feff320040128000000006002ca3ef00c6
:10156000c082a9000000060004082000343a880068
:1015700044002000243a8800a509200036002000fd
:101580008407200037742000844b7800854b780056
:10159000864b7800750520001600200064042000aa
:1015a00027742000844b7800854b7800864b7800a8
:1015b0000600270005002300173a80000702630099
:1015c000850f5200fcff3a0005022000163a800009
:1015d00006826200fdff320000000600e2ff070005
:1015e000deff070000000600fcff07000000eb0024
:1015f00048fe0700110020000000eb0053fe07002a
:101600000000eb0075fe0700853e20000003eb00a4
:10161000d4448000850f5200fdff3600d644880078
:10162000c482aa00faff37008460a9009a28ec005f
:041630000040060070
:020000040000fa
:101634009a08000002000000000000008408000076
:101644000e00000000000000804700003000000091
:1016540000000000c047000030000000000000004f
:1016640092080000080000000000000000080000cc
:0c167400840000000000000000000000e6
:020000040000fa
:0200000401f009
:04000000ffff0000fe
:020000040000fa
:0200000401f009
:04000400ffff0000fa
:020000040000fa
:0200000401f009
:04000800ffff0000f6
:020000040000fa
:0200000401f009
:04000c0000000000f0
:020000040000fa
:0200000401f009
:0400100046000000a6
:020000040000fa
:0200000401f009
:040014005f00000089
:020000040000fa
:0200000401f009
:04001800f7000000ed
:020000040000fa
:0200000401f009
:04001c00dfff000002
:00000001FF
