:020000040000fa
:080000000002040000000000f2
:020000040000fa
:100008001a0300001a0300001a0300001a03000074
:100018001a0300001a0300001a0300001a03000064
:100028001a030000ce0400001a0300001a0300009f
:1000380028070000040500001a0300001a03000046
:100048001a0300001a0300001a0300000206000049
:10005800440600001a0300001a0300001a030000f7
:100068001a0300001a0300001a0300001a03000014
:100078001a0300001a0300001a0300001a03000004
:100088001a0300001a0300001a0300001a030000f4
:100098001a0300001a0300001a0300001a030000e4
:1000a8001a0300001a0300001a0300001a030000d4
:1000b8001a0300001a0300001a0300001a030000c4
:1000c8001a0300001a0300001a0300001a030000b4
:1000d8001a0300001a0300001a0300001a030000a4
:1000e8001a0300001a0300001a0300001a03000094
:1000f8001a0300001a0300001a0300001a03000084
:100108001a0300001a0300001a0300001a03000073
:100118001a0300001a0300001a0300001a03000063
:100128001a0300001a0300001a0300001a03000053
:100138001a0300001a0300001a0300001a03000043
:100148001a0300001a0300001a0300001a03000033
:100158001a0300001a0300001a0300001a03000023
:100168001a0300001a0300001a0300001a03000013
:100178001a0300001a0300001a0300001a03000003
:100188001a0300001a0300001a0300001a030000f3
:100198001a0300001a0300001a0300001a030000e3
:1001a8001a0300001a0300001a0300001a030000d3
:1001b8001a0300001a0300001a0300001a030000c3
:1001c8001a0300001a0300001a0300001a030000b3
:1001d8001a0300001a0300001a0300001a030000a3
:1001e8001a0300001a0300001a0300001a03000093
:0801f8001a0300001a030000c5
:020000040000fa
:100208001a0300001a0300001a0300001a03000072
:100218001a0300001a0300001a0300001a03000062
:100228001a030000ce0400001a0300001a0300009d
:1002380028070000040500001a0300001a03000044
:100248001a0300001a0300001a0300000206000047
:10025800440600001a0300001a0300001a030000f5
:100268001a0300001a0300001a0300001a03000012
:100278001a0300001a0300001a0300001a03000002
:100288001a0300001a0300001a0300001a030000f2
:100298001a0300001a0300001a0300001a030000e2
:1002a8001a0300001a0300001a0300001a030000d2
:1002b8001a0300001a0300001a0300001a030000c2
:1002c8001a0300001a0300001a0300001a030000b2
:1002d8001a0300001a0300001a0300001a030000a2
:1002e8001a0300001a0300001a0300001a03000092
:1002f8001a0300001a0300001a0300001a03000082
:100308001a0300001a0300001a0300001a03000071
:100318001a0300001a0300001a0300001a03000061
:100328001a0300001a0300001a0300001a03000051
:100338001a0300001a0300001a0300001a03000041
:100348001a0300001a0300001a0300001a03000031
:100358001a0300001a0300001a0300001a03000021
:100368001a0300001a0300001a0300001a03000011
:100378001a0300001a0300001a0300001a03000001
:100388001a0300001a0300001a0300001a030000f1
:100398001a0300001a0300001a0300001a030000e1
:1003a8001a0300001a0300001a0300001a030000d1
:1003b8001a0300001a0300001a0300001a030000c1
:1003c8001a0300001a0300001a0300001a030000b1
:1003d8001a0300001a0300001a0300001a030000a1
:1003e8001a0300001a0300001a0300001a03000091
:0803f8001a0300001a030000c3
:020000040000fa
:10040000af8920000e7724000e0188000000000054
:10041000000020000000e000020032000001200087
:10042000200288000c00070040be200001002000d0
:1004300011000700000020000000e0000200320070
:100440000000020000000000360b02000000000067
:100450000040da000000fe004440a90040082000ef
:100460000000e0000300320000002000a00188002e
:100470004440a80000000600910188008000780038
:100480000000eb0015003700e280400032a0b4000d
:100490009101ba00e280400032a0b4009102ba009b
:1004a000e280400032a0b4000002eb00472bde00e7
:1004b000f507b200602ce10004003a000059eb009f
:1004c0008301e900fdff3e00040037006128e100e0
:1004d000010032000082eb00040007001101ba00a5
:1004e0000200e000e8ff3a00000006003159ba00bf
:1004f0008301e9000c0032002159ba008301e900b0
:10050000080032000400e00003003a00e2804000ee
:1005100032a0b400f5ff370011d9ba008301e90019
:10052000faff3a008100e800e180400032a0b40008
:10053000000006004a040400000000001c0404003f
:1005400000000000f003040000000000c2030400eb
:1005500000000000620804000000000068080400b9
:10056000000000006e080400000000007408040091
:10057000000000007a080400000000008008040069
:100580000000000086080400000000008c08040041
:100590000000000092080400000000009808040019
:1005a000000000009e08040000000000a4080400f1
:1005b00000000000b008040000000000b6080400bd
:1005c00000000000bc08040000000000c208040095
:1005d00000000000c808040000000000ce0804006d
:1005e00000000000d408040000000000da08040045
:1005f00000000000e008040000000000e60804001d
:1006000000000000ec08040000000000f2080400f4
:1006100000000000f808040000000000fe080400cc
:10062000000000004c090400000000001209040052
:10063000000000000040da000000fe006022b80068
:10064000060220000000d0008180d2000482d20087
:100650008582d2000000a0000202520083825a006c
:10066000030031000202420083824a000000a10020
:0c0670000603e900f3ff3a00000006005a
:020000040000fa
:10067c0062080000680800006e08000074080000a2
:10068c007a08000080080000860800008c08000032
:10069c0092080000980800009e080000a4080000c2
:1006ac00b0080000b6080000bc080000c20800003a
:1006bc00c8080000ce080000d4080000da080000ca
:1006cc00e0080000e6080000ec080000f20800005a
:1006dc00f8080000fe0800000401000010010000f2
:1006ec00120100001e0100002001000003070000a1
:1006fc00080b00000c0000000001000006010000c7
:10070c000a010000140100001801000002010000a1
:10071c000c0100000e0100001a0100001c01000079
:10072c000105000042010000460100005a010000d2
:10073c005e0100004a0400001c040000f0030000ed
:10074c00c2030000070900000001000000000000c7
:10075c00020300000405000006000000182200003f
:10076c00e4010000f4010000e0010000f0010000d1
:08077c004c0900001209000005
:020000040000fa
:10078400f60b2000143a8000040363006404200084
:100794007505200027742000844b7800854b780071
:1007a400864b78007f0060004800dd00f60f2e00c5
:1007b400a73480000703630006037000a634880092
:1007c400163a80000660a00027742000844b78004d
:1007d400854b7800864b780000000600f60b20005d
:1007e400143a8000040363006404200075052000ab
:1007f40027742000844b7800854b7800864b780062
:100804007f00600006fe2f00a7348000070363000a
:1008140006037000a6348800163a80000660a00023
:1008240027742000844b7800854b7800864b780031
:1008340000000600f60b2000143a80000403630055
:10084400640420007505200027742000844b780080
:10085400854b7800864b78007f0060004800dd00ff
:10086400f60f2e0077348000070363000603700040
:1008740076348800163a80000660a00027742000b1
:10088400844b7800854b7800864b78000000060086
:10089400f60b2000143a8000040363006404200073
:1008a4007505200027742000844b7800854b780060
:1008b400864b78007f00600006fe2f0077348000ae
:1008c400070363000603700076348800163a80003c
:1008d4000660a00027742000844b7800854b7800c4
:1008e400864b780000000600881f78000004400052
:1008f400043a280064027c000140780004000100ee
:100904008439280064027c0005022000050a78006e
:1009140004032800940888004f04780000000600af
:10092400000378006439280064427b000482fb00e1
:1009340015002000042add008482ea008002fd0004
:100944008420b6008002fd00040078009420b700e3
:10095400060043008439280064027800148a700079
:100964000000060064392800644078000080fb0021
:10097400140020000020dd000080ea008420b6007e
:100984009420b600000006000000400024892000e6
:100994006400780000000600849fbe00861f780073
:1009a4000400fa00040a8000e4bf9f00050a8000e6
:1009b400f5bf9f007fba97006fbb9700860f520068
:1009c40005003600ffba9700248920006fbb97000a
:1009d400068a52000600370074088000efba9700b8
:1009e4007fbb97000403430024892000050a5300b9
:1009f4008420a9000080fa004f0378004f02be0053
:100a040000400600849fbe00861f78000400fa00a0
:100a1400240a8000e4bf9f00250a8000f5bf9f00e0
:100a24007fba9700efba9700850f52000500360091
:100a34007fba9700efba970005025200a4448800d9
:100a44000600370074088000efba97007fbb970058
:100a54000402430005025200a444880084a0a900b3
:100a64000080fa004f0378004f02be0000400600e9
:100a74000001be000060210061022000eefe0700bc
:100a84000002e900441188000400280004118800d1
:100a940004402000141188008560a9009560a80016
:100aa4000000060080c2900010c2900004c05200f2
:100ab400000006000200fa00e1ff9f0000c290005f
:100ac400f403b200effa970005707a0000c29000b8
:100ad4000442e80004c098000080fa000000060008
:100ae4000200fa0010c29000f403b20060427a00df
:100af400e4ff9f0010c290000442e80014c0980074
:100b04006ff897000080fa0000000600f60b200042
:100b1400143a800004036300640420007505200077
:100b240027742000844b7800854b7800864b78002e
:100b340006fe2f002735800007036300a600b300dc
:100b440026358800f60f2e00573680000703630011
:100b54000630b30056368800163a80000660a000be
:100b640027742000844b7800854b7800864b7800ee
:100b740000000600889fbe000004be00e3ff0700db
:100b84000800be00baff07004f04be0000000600c4
:100b940082c8bf0083c8b6000080fb000000ea00e2
:100ba4004f00de000000060020842000bdff070087
:100bb4000042780000c0eb00e04f52000200320017
:100bc40020842000c6ff070000000600881f78006c
:100bd4000044780000802000b2ff0700f4c3b30093
:100be400844f500004003e008840780000802000bc
:100bf400b0ff07009580a8004f04780000000600ad
:100c0400849fbe00861f78000200fa008560a90058
:100c140034118000e4ff9f0025882000954278006d
:100c240034882000144278008582fb000482fb0093
:100c340084825200f4032000848f52000d003e0091
:100c44002488200014427800f443b200044378005e
:100c540025882000864a78002488200014427800e1
:100c64000482fb00258420006ffb970086727a00c3
:100c74008268ec000080fa004f0378004f02be0047
:100c840000400600849fbe00058420009542780041
:100c9400148420001442780084cf52000a003200e9
:100ca4001484200014427800f403b200058020006c
:100cb40065427a000482fb00241188004168ec003c
:100cc4008580a900010037009580a9004f02be006d
:100cd40000400600440e2000041988000042e90088
:100ce4000482fb004222dd0004a0a0001419880045
:100cf400f4f32100241988002400200094198800aa
:100d04000002eb0034198800441988000000060032
:100d14000400fa000042eb00c4ff9f000002eb0055
:100d2400f4bf9f004ffa9700e34f520009003e00c2
:100d34007fba970030024200f4bf9f004ffa970039
:100d44000442e800c4ff9f004ffa9700e34f5200ab
:100d5400f7ff36007fba97004222de00840878004d
:100d64000080fa0000000600041c80000440a1007a
:100d74000450a000041c8800041c80000400a1008e
:100d84000410a000041c880004302000441c8800c7
:100d940074012000541c8800d4002000141c880016
:100da40004782000241c8800047c2000341c880063
:100db4008480a9009480a80081e3a90000000600b3
:100dc40015002000002add000480ea002c23b60070
:100dd4008128dd008182ea008002fd002c23b60018
:100de4008002fd00040078003023b7000100780081
:100df4003023b70020c0b300b6ff0700daff0700b6
:100e0400f4ff2d0045082000950a620040092000e7
:100e14001008620000000600051980000400280084
:100e2400050272000419880081e3a800000006008e
:100e340021e3a90081e3a9000000060000004000ae
:100e44004488200064007800000006003600f800a2
:100e5400809fbe00829fbe00849fbe00869fbe000e
:100e64000489200014427800e04f520013003a0035
:100e74004188200000782400a5ff07006188200035
:100e840080782400a2ff07008188200000792400d4
:100e94009fff0700a1882000807924009cff0700a1
:100ea400c1882000007a240099ff0700e18820000f
:100eb400807a240096ff0700120037004188200042
:100ec400007c240092ff070061882000807c2400bd
:100ed4008fff070081882000007d24008cff07001d
:100ee400a1882000807d240089ff0700c18820009c
:100ef400007a240086ff0700e1882000807a24001d
:100f040083ff07009008aa008480a9004f03be0055
:100f14004f02be004f01be004f00be003600f90074
:100f240000400600e40f50000b003e0000004000ab
:100f340024372800e40278000002eb00840a7800d9
:100f4400c5382800e5027800840a7800253828008e
:100f5400e5027800840a78000000060000004000e2
:100f6400243728006402780005032000148a7200e4
:100f74002438280064027800000aeb00c4382800f2
:100f84006402780005192000858f500001003600a6
:100f940085007800c6092000068bb900060a78008f
:100fa4000000060000004000243728006402780096
:100fb400f5fc2f00148a62002438280064027800ab
:100fc400000aeb00c438280064027800753e200053
:100fd400858f5000010036008500780086022000cd
:100fe400068bb900060a78000000060000024000e3
:100ff4002537280065027a0005002800148a72004b
:10100400e20f50000b003e00c43728006440780013
:101014000080fb00140020000020dd000082ea00b4
:101024000002fd008420b6000002fd009420b700f9
:101034000a003700c4372800644078000080fb00b1
:10104400140020000020dd000082ea000002fd0000
:101054008620b6000002fd009620b70000000600be
:10106400000240002537280065027a0014f0a10030
:10107400e20f500009003e00c437280064407800a5
:101084000080fb00140020000020dd000080ea0046
:101094008420b6009420b60008003700c437280026
:1010a400644078000080fb00140020000020dd0074
:1010b4000080ea008620b6009620b60000000600f4
:1010c4000080fb00c026b700000006004800dd00d9
:1010d400c026b700000006000080fb00c226b7004f
:1010e400000006004800dd00c226b700000006002c
:1010f4000080fb00c426b700000006004800dd00a5
:10110400c426b700000006000080fb00c626b70016
:10111400000006004800dd00c626b70000000600f7
:101124000080fb00c826b700000006004800dd0070
:10113400c826b700000006000080fb00ca26b700de
:101144000000060054368000f40fb3004800dd00b0
:101154000400700050368800000006000080fb0088
:10116400cc26b700000006004800dd00cc26b700fe
:10117400000006000080fb00ce26b7000000060039
:101184004800dd00ce26b700000006000080fb000a
:10119400d026b700000006004800dd00d026b700c6
:1011a400000006000080fb00d226b7000000060005
:1011b4004800dd00d226b700000006000080fb00d6
:1011c400d426b700000006004800dd00d426b7008e
:1011d400000006000080fb00d626b70000000600d1
:1011e4004800dd00d626b700000006000080fb00a2
:1011f400d826b700000006004800dd00d826b70056
:10120400000006000082fb0004024200e5332800cf
:1012140065027a0001407800040001000000060025
:10122400f60b2000143a80000403630064042000d9
:101234007505200027742000844b7800854b7800c6
:10124400864b78007f00600006fe2f000735800083
:10125400070363000603700006358800ff80600002
:10126400c808dd00f60f2e00073580000703630071
:101274000683700006358800163a80000660a000d8
:1012840027742000844b7800854b7800864b7800c7
:1012940000000600f60b2000143a800004036300eb
:1012a400640420007505200027742000844b780016
:1012b400854b7800864b78007f00600006fe2f0087
:1012c400e73480000703630006037000e6348800f7
:1012d400ff806000c808dd00f60f2e00e7348000b0
:1012e4000703630006837000e6348800163a800022
:1012f4000660a00027742000844b7800854b78009a
:10130400864b780000000600889fbe0001427800ea
:10131400824078008304780000044000e53b280004
:10132400e5027c000440780005000100a43b28008d
:1013340064027c00c84cdd004904b300090a78004b
:101344004f04be000000060000000600000040003c
:10135400643b280064027800140078000000060052
:101364008100400015c0b300810f50001600310009
:101374000202e80015c0b30080c1eb008543780089
:1013840030437800e04f530004003a0005497800e8
:10139400040178008742780007003700064a780085
:1013a4008542e800e1cf420003003a000349780097
:1013b4000401780087427800808f500002003600d4
:1013c4000402e800eeff370005497800000006003b
:1013d400889fbe008a1f78000004eb00888f5000ad
:1013e40025003200880178000045eb0019c0b300e5
:1013f40003034000964378000782fb000302420087
:10140400848f500003003100e1cf53001e003200ee
:10141400180037008301e800e1cf53000c003600c8
:101424008802410009427800d65a78000442e80054
:10143400874f5200fcff3a0007c2e9000482fb0018
:101444000804e800040444008301e8008301420026
:10145400e1cf430004003200818f510006003200c6
:101464000a717c000804e800838f5000e0ff3e000e
:10147400010037000004eb00080078004f057800f5
:101484004f04be00000006008301e800f2ff3700ad
:10149400c021ef0034032000440e880064002000c3
:1014a400540e8800000006000001780003002000ac
:1014b40000002600112620005ffc07000002e9005e
:1014c400240e880000000600881f780000047800bd
:1014d400efff070008007800f3ff07004f047800cf
:1014e400000006000400fa00641d2000e4bf9f0011
:1014f400841d2000f4bf9f0000004000e4825700d8
:1015040065027800010a78000080fa0000000600f5
:101514000400fa00881f78000004780001007800b5
:10152400240e80000402e8000402420005002000aa
:10153400d4bf9f00e5bf9f005fba9700efba970042
:101544006103b80006a9b900060078000400b800d9
:1015540081004100420620000300200036fc070001
:101564008000780008007800deff07004f04780050
:101574000080fa0000000600050e80000400280028
:1015840005027200040e880000000600c1e1a900f3
:101594000000060041e2a9004382a9004362a900b9
:1015a4004342a9004302a90042c2a80042a2a800e3
:1015b400141280003400b3001412880034ff2f008a
:1015c40015128000050262000440a0001412880075
:1015d40041e2a80000000600f60b2000143a800047
:1015e40004036300640420007505200027742000b0
:1015f400844b7800854b7800864b7800f70f2e00db
:10160400463680008683630006702000070373005b
:101614004636880006fe2f00473680000703630025
:101624000630a00046368800163a80000660a00006
:1016340027742000844b7800854b7800864b780013
:1016440000000600e4ff0700d2ff070000000600c8
:101654000080fb00401288004002ab00feff320015
:1016640040128000000006002c00fa00889fbe0093
:101674005100070000202c00110020003dfd070050
:1016840004fd2f0004824700853a28000d0009005c
:10169400355a78000f0378002602b10006000900cd
:1016a400001beb00005beb00738257000d00090088
:1016b400005aeb00e2fd2f000f014100e100200081
:1016c40000fd2f000f00400025ff07007381570025
:1016d400f1002000e0fd2f000f0040003cff070058
:1016e400f38457002afd0700e04f5000fdff32004d
:1016f4002dfd0700e8fd2f000f044400384078005a
:1017040032fd0700890f5400fcff3a0024168000c4
:101714004422de000482ea00610262004422dd0009
:10172400f5fe2f0026168000868262008502720074
:1017340025168800ebff37002ca3ef00c082a90018
:101744000000060004082000343a88004400200009
:10175400243a8800a50920003600200084072000d0
:1017640037742000844b7800854b7800864b7800d2
:101774007505200016002000640420002774200052
:10178400844b7800854b7800864b78000600270050
:1017940005002300173a800007026300850f5200fa
:1017a400fcff3a0005022000163a8000068262001f
:1017b400fdff320000000600e2ff0700deff070025
:0417c400000006001b
:020000040000fa
:1017c800840800000e0000000000000080470000b0
:1017d8003000000000000000c0470000300000009a
:1017e800000000009208000008000000000000004f
:1017f8000008000084000000000000000000000055
:020000040000fa
:0200000401f009
:04000000ffff0000fe
:020000040000fa
:0200000401f009
:04000400ffff0000fa
:020000040000fa
:0200000401f009
:04000800ffff0000f6
:020000040000fa
:0200000401f009
:04000c0000000000f0
:020000040000fa
:0200000401f009
:0400100046000000a6
:020000040000fa
:0200000401f009
:040014005f00000089
:020000040000fa
:0200000401f009
:04001800f7000000ed
:020000040000fa
:0200000401f009
:04001c00dfff000002
:00000001FF
