:020000040000fa
:080000000002040000000000f2
:020000040000fa
:10040000af8920000e7724000e0188000000000054
:1004100000012000200288000c00070020bb200003
:100420000100200011000700000020000000e00093
:10043000020032000000020000000000020b020077
:10044000000000000040da000000fe004440a90067
:10045000400820000000e0000300320000002000ff
:10046000a00188004440a800000006009101880017
:10047000800078000000eb0015003700e2804000ab
:1004800032a0b4009101ba00e280400032a0b40072
:100490009102ba00e280400032a0b4000002eb00fa
:1004a000472bde00f507b200602ce10004003a00a3
:1004b0000059eb008301e900fdff3e000400370016
:1004c0006128e100010032000082eb000400070017
:1004d0001101ba000200e000e8ff3a000000060047
:1004e0003159ba008301e9000c0032002159ba00e9
:1004f0008301e900080032000400e00003003a0034
:10050000e280400032a0b400f5ff370011d9ba00f4
:100510008301e900faff3a008100e800e180400031
:1005200032a0b400000006004204040000000000f5
:100530001404040000000000ea03040000000000ae
:10054000bc030400000000003408040000000000a8
:100550003a08040000000000400804000000000009
:1005600046080400000000004c08040000000000e1
:1005700052080400000000005808040000000000b9
:100580005e08040000000000640804000000000091
:100590006a08040000000000700804000000000069
:1005a000760804000000000082080400000000003b
:1005b00088080400000000008e080400000000000d
:1005c00094080400000000009a08040000000000e5
:1005d000a008040000000000a608040000000000bd
:1005e000ac08040000000000b20804000000000095
:1005f000b808040000000000be080400000000006d
:10060000c408040000000000ca0804000000000044
:10061000d0080400000000001e09040000000000d3
:10062000e4080400000000000040da000000fe00c2
:100630006022b800060220000000d0008180d200b5
:100640000482d2008582d2000000a0000202520083
:1006500083825a00030031000202420083824a0072
:100660000000a1000603e900f3ff3a0000000600c5
:020000040000fa
:10000800140300001403000014030000140300008c
:10001800140300001403000014030000140300007c
:1000280014030000c40400001403000014030000bb
:10003800e4050000fa0400001403000014030000a3
:10004800140300001403000014030000fa06000063
:100058003e0700001403000014030000140300000e
:10006800140300001403000014030000140300002c
:10007800140300001403000014030000140300001c
:10008800140300001403000014030000140300000c
:1000980014030000140300001403000014030000fc
:1000a80014030000140300001403000014030000ec
:1000b80014030000140300001403000014030000dc
:1000c80014030000140300001403000014030000cc
:1000d80014030000140300001403000014030000bc
:1000e80014030000140300001403000014030000ac
:1000f800140300001403000014030000140300009c
:10010800140300001403000014030000140300008b
:10011800140300001403000014030000140300007b
:10012800140300001403000014030000140300006b
:10013800140300001403000014030000140300005b
:10014800140300001403000014030000140300004b
:10015800140300001403000014030000140300003b
:10016800140300001403000014030000140300002b
:10017800140300001403000014030000140300001b
:10018800140300001403000014030000140300000b
:1001980014030000140300001403000014030000fb
:1001a80014030000140300001403000014030000eb
:1001b80014030000140300001403000014030000db
:1001c80014030000140300001403000014030000cb
:1001d80014030000140300001403000014030000bb
:1001e80014030000140300001403000014030000ab
:0801f8001403000014030000d1
:020000040000fa
:10020800140300001403000014030000140300008a
:10021800140300001403000014030000140300007a
:1002280014030000c40400001403000014030000b9
:10023800e4050000fa0400001403000014030000a1
:10024800140300001403000014030000fa06000061
:100258003e0700001403000014030000140300000c
:10026800140300001403000014030000140300002a
:10027800140300001403000014030000140300001a
:10028800140300001403000014030000140300000a
:1002980014030000140300001403000014030000fa
:1002a80014030000140300001403000014030000ea
:1002b80014030000140300001403000014030000da
:1002c80014030000140300001403000014030000ca
:1002d80014030000140300001403000014030000ba
:1002e80014030000140300001403000014030000aa
:1002f800140300001403000014030000140300009a
:100308001403000014030000140300001403000089
:100318001403000014030000140300001403000079
:100328001403000014030000140300001403000069
:100338001403000014030000140300001403000059
:100348001403000014030000140300001403000049
:100358001403000014030000140300001403000039
:100368001403000014030000140300001403000029
:100378001403000014030000140300001403000019
:100388001403000014030000140300001403000009
:1003980014030000140300001403000014030000f9
:1003a80014030000140300001403000014030000e9
:1003b80014030000140300001403000014030000d9
:1003c80014030000140300001403000014030000c9
:1003d80014030000140300001403000014030000b9
:1003e80014030000140300001403000014030000a9
:0803f8001403000014030000cf
:020000040000fa
:0200000401f009
:04001c00dfff000002
:020000040000fa
:0200000401f009
:04001800f7000000ed
:020000040000fa
:0200000401f009
:040014005f00000089
:020000040000fa
:0200000401f009
:0400100046000000a6
:020000040000fa
:0200000401f009
:04000c0000000000f0
:020000040000fa
:0200000401f009
:0400080007000000ed
:020000040000fa
:0200000401f009
:04000400cf00000029
:020000040000fa
:0200000401f009
:04000000cf0000002d
:020000040000fa
:10067000340800003a080000400800004608000066
:100680004c08000052080000580800005e080000f6
:10069000640800006a080000700800007608000086
:1006a00082080000880800008e08000094080000fe
:1006b0009a080000a0080000a6080000ac0800008e
:1006c000b2080000b8080000be080000c40800001e
:1006d000ca080000d008000004010000100100005a
:1006e000120100001e0100002001000003070000ad
:1006f000080b00000c0000000001000006010000d3
:100700000a010000140100001801000002010000ad
:100710000c0100000e0100001a0100001c01000085
:100720000105000042010000460100005a010000de
:100730005e0100004204000014040000ea0300000f
:10074000bc030000070900000001000000000000d9
:10075000020300000405000006000000182200004b
:10076000e4010000f4010000e0010000f0010000dd
:080770001e090000e40800006e
:020000040000fa
:10077800f60b2000143a8000040363006404200090
:100788007505200027742000844b7800854b78007d
:10079800864b7800ff036000c83bdd00f60f2e0093
:1007a800a03480000003630007037300a6348800a8
:1007b800163a80000660a00027742000844b780059
:1007c800854b7800864b780000000600f60b200069
:1007d800143a8000040363006404200075052000b7
:1007e80027742000844b7800854b7800864b78006e
:1007f8007f03600000fe2f009406b600060070001c
:10080800a0348800163a80000660a00027742000f3
:10081800844b7800854b7800864b780000000600f2
:10082800f60b2000143a80000403630064042000df
:100838007505200027742000844b7800854b7800cc
:10084800864b7800ff036000c83bdd00f60f2e00e2
:100858007034800000036300070373007634880057
:10086800163a80000660a00027742000844b7800a8
:10087800854b7800864b780000000600f60b2000b8
:10088800143a800004036300640420007505200006
:1008980027742000844b7800854b7800864b7800bd
:1008a8007f03600000fe2f008e06b6000600700071
:1008b80070348800163a80000660a0002774200073
:1008c800844b7800854b7800864b78000000060042
:1008d800881f780000044000a439280064027c00c6
:1008e80001407800040001002439280064027c00db
:1008f80005022000050a78000403280094088800ef
:100908004f0478000000060000037800043928002e
:1009180064427b000482fb0015002000042add00ed
:100928008482ea008002fd008420b6008002fd0077
:10093800040078009420b7000600430024392800fa
:1009480064027800148a7000000006000439280048
:10095800644078000080fb00140020000020dd00c7
:100968000080ea008420b6009420b600000006004b
:100978000000400024892000640078000000060080
:10098800849fbe00861f78000400fa00040a8000d5
:10099800e4bf9f00050a8000f5bf9f007fba97005b
:1009a8006fbb9700860f520005003600ffba97000c
:1009b800248920006fbb9700068a52000600370082
:1009c80074088000efba97007fbb970004034300c8
:1009d80024892000050a53008420a9000080fa0019
:1009e8004f0378004f02be0000400600849fbe00ff
:1009f800861f78000400fa00240a8000e4bf9f00e4
:100a0800250a8000f5bf9f007fba9700efba9700cc
:100a1800850f5200050036007fba9700efba97009d
:100a280005025200a44488000600370074088000bc
:100a3800efba97007fbb97000402430005025200fb
:100a4800a444880084a0a9000080fa004f0378001d
:100a58004f02be0000400600440e20000419880022
:100a68000042e9000482fb004222dd0004a0a0004d
:100a780014198800f4f321002419880024002000a8
:100a8800941988000002eb00341988004419880082
:100a9800000006000400fa000042eb00c4ff9f00bb
:100aa8000002eb00f4bf9f004ffa9700e34f52009b
:100ab80009003e007fba970030024200f4bf9f0051
:100ac8004ffa97000442e800c4ff9f004ffa9700ce
:100ad800e34f5200f7ff36007fba97004222de004c
:100ae800840878000080fa0000000600041c8000da
:100af8000440a1000450a000041c8800041c8000cd
:100b08000400a1000410a000041c88000430200088
:100b1800441c880074012000541c8800d400200064
:100b2800141c880004782000241c8800047c200001
:100b3800341c88008480a9009480a80081e3a9005f
:100b48000000060015002000002add000480ea00ed
:100b58002c23b6008128dd008182ea008002fd0096
:100b68002c23b6008002fd00040078003023b70073
:100b7800010078003023b70020c0b300b6ff07009b
:100b8800daff0700f0ff2d008420b6009420b6009d
:100b980000000600000028002023b70081e3a80019
:100ba8000000060021e3a90081e3a9000000060077
:100bb800000040004488200064007800000006001f
:100bc8003600f800809fbe00829fbe00849fbe0052
:100bd800869fbe000489200014427800e04f52002e
:100be80013003a004188200000782400a9ff07007c
:100bf8006188200080782400a6ff070081882000f3
:100c080000792400a3ff0700a18820008079240030
:100c1800a0ff0700c1882000007a24009dff07007c
:100c2800e1882000807a24009aff0700120037002c
:100c380041882000007c240096ff0700618820007e
:100c4800807c240093ff070081882000007d240019
:100c580090ff0700a1882000807d24008dff0700f9
:100c6800c1882000007a24008aff0700e18820005c
:100c7800807a240087ff07009008aa008480a900d2
:100c88004f03be004f02be004f01be004f00be0022
:100c98003600f900004006000001be000060210097
:100ca8006102200060fe07000002e900441188008c
:100cb8000400280004118800044020001411880052
:100cc8008560a9009560a80000000600f60b2000ca
:100cd800143a8000040363006404200075052000b2
:100ce80027742000844b7800854b7800864b780069
:100cf80006fe2f002735800007036300a600b30017
:100d080026358800f60f2e0057368000070363004b
:100d18000630b30056368800163a80000660a000f8
:100d280027742000844b7800854b7800864b780028
:100d380000000600889fbe000004be00e3ff070015
:100d48000800be00d4ff07004f04be0000000600e4
:100d580082c8bf0083c8b6000080fb000000ea001c
:100d68004f00de00000006002688200016437800a9
:100d7800358820009542780000c2eb00854f53006b
:100d8800060032003488200014427800f403b200d0
:100d98002584200065427a008368ec0004407800ce
:100da8000000060005842000954278001484200085
:100db800144278008582fb000482fb008482520082
:100dc800f4032000848f520007003e0004842000b2
:100dd80014427800f403b2000580200080727a0083
:100de8004068ec009580a80000000600801f78008d
:100df800849fbe00861f78000200fa008560a90063
:100e080034118000e4ff9f00258820009542780077
:100e180034882000144278008582fb000482fb009d
:100e280084825200f4032000848f52000c003e009c
:100e38002488200014427800f443b200044078006b
:100e480082e8b70024882000144278000482fb005e
:100e5800258420006ffb970086727a008268ec0078
:100e68000080fa004f0378004f02be004f00780060
:100e780000400600849fbe0005842000954278004b
:100e8800148420001442780084cf52000a003200f3
:100e98001484200014427800f403b2000580200076
:100ea80065427a000482fb00241188004168ec0046
:100eb8008580a900010037009580a9004f02be0077
:100ec80000400600e40f50000b003e000000400008
:100ed800c4362800e40278000002eb00840a780097
:100ee80065382800e5027800840a7800c5372800ac
:100ef800e5027800840a780000000600000040003f
:100f0800c43628006402780005032000148a7200a1
:100f1800c437280064027800000aeb00643828000f
:100f28006402780005192000858f50000100360002
:100f380085007800c6092000068bb900060a7800eb
:100f48000000060000004000c43628006402780053
:100f5800f5fc2f00148a6200c43728006402780068
:100f6800000aeb006438280064027800753e20000f
:100f7800858f500001003600850078008602200029
:100f8800068bb900060a780000000600000240003f
:100f9800c536280065027a0005002800148a720008
:100fa800e20f50000b003e006437280064407800d0
:100fb8000080fb00140020000020dd000082ea0011
:100fc8000002fd008420b6000002fd009420b70056
:100fd8000a00370064372800644078000080fb006e
:100fe800140020000020dd000082ea000002fd005d
:100ff8008620b6000002fd009620b700000006001b
:1010080000024000c536280065027a0014f0a100ed
:10101800e20f500009003e00643728006440780061
:101028000080fb00140020000020dd000080ea00a2
:101038008420b6009420b6000800370064372800e2
:10104800644078000080fb00140020000020dd00d0
:101058000080ea008620b6009620b6000000060050
:101068000080fb00c026b700000006004800dd0035
:10107800c026b700000006000080fb00c226b700ab
:10108800000006004800dd00c226b7000000060088
:101098000080fb00c426b700000006004800dd0001
:1010a800c426b700000006000080fb00c626b70073
:1010b800000006004800dd00c626b7000000060054
:1010c8000080fb00c826b700000006004800dd00cd
:1010d800c826b700000006000080fb00ca26b7003b
:1010e8000000060055368000f50fb3004802dd0009
:1010f8000480720050368800000006000080fb0063
:10110800cc26b700000006004800dd00cc26b7005a
:10111800000006000080fb00ce26b7000000060095
:101128004800dd00ce26b700000006000080fb0066
:10113800d026b700000006004800dd00d026b70022
:10114800000006000080fb00d226b7000000060061
:101158004800dd00d226b700000006000080fb0032
:10116800d426b700000006004800dd00d426b700ea
:10117800000006000080fb00d626b700000006002d
:101188004800dd00d626b700000006000080fb00fe
:10119800d826b700000006004800dd00d826b700b2
:1011a800000006000082fb0004024200853328008c
:1011b80065027a0001407800040001000000060082
:1011c800f60b2000143a8000040363006404200036
:1011d8007505200027742000844b7800854b780023
:1011e800864b78007f00600006fe2f0007358000e0
:1011f800070363000000730000358800ff83600068
:10120800c83bdd00f60f2e000035800000036300a8
:101218000703730006358800163a80000660a000b0
:1012280027742000844b7800854b7800864b780023
:1012380000000600f60b2000143a80000403630047
:10124800640420007505200027742000844b780072
:10125800854b7800864b78007f00600006fe2f00e3
:10126800e73480000703630000007300e03488005f
:10127800ff836000c83bdd00f60f2e00e0348000dd
:101288000003630007037300e6348800163a800001
:101298000660a00027742000844b7800854b7800f6
:1012a800864b780000000600889fbe000142780047
:1012b800824078008304780000044000853b2800c1
:1012c800e5027c000440780005000100443b28004a
:1012d80064027c00c84cdd004904b300090a7800a8
:1012e8004f04be0000000600000006000000400099
:1012f800043b28006402780014007800000006000f
:101308008100400015c0b300810f50001600310065
:101318000202e80015c0b30080c1eb0085437800e5
:1013280030437800e04f530004003a000549780044
:10133800040178008742780007003700064a7800e1
:101348008542e800e1cf420003003a0003497800f3
:101358000401780087427800808f50000200360030
:101368000402e800eeff3700054978000000060097
:10137800889fbe008a1f78000004eb00888f500009
:1013880025003200880178000045eb0019c0b30041
:1013980003034000964378000782fb0003024200e3
:1013a800848f500003003100e1cf53001e0032004b
:1013b800180037008301e800e1cf53000c00360025
:1013c8008802410009427800d65a78000442e800b1
:1013d800874f5200fcff3a0007c2e9000482fb0075
:1013e8000804e800040444008301e8008301420083
:1013f800e1cf430004003200818f51000600320023
:101408000a717c000804e800838f5000e0ff3e006a
:10141800010037000004eb00080078004f05780051
:101428004f04be00000006008301e800f2ff370009
:10143800c021ef0034032000440e8800640020001f
:10144800540e880000000600000178000300200008
:10145800000026001126200073fc07000002e900a6
:10146800240e880000000600881f78000004780019
:10147800efff070008007800f3ff07004f0478002b
:10148800000006000400fa00641d2000e4bf9f006d
:10149800841d2000f4bf9f0000004000e482570034
:1014a80065027800010a78000080fa000000060052
:1014b8000400fa00881f7800000478000100780012
:1014c800240e80000402e800040242000500200007
:1014d800d4bf9f00e5bf9f005fba9700efba97009f
:1014e8006103b80006a9b900060078000400b80036
:1014f8008100410042062000030020004afc07004a
:101508008000780008007800deff07004f047800ac
:101518000080fa000000060000002800c021b70083
:1015280000000600c1e1a9000000060041e2a90090
:101538004382a9004362a9004342a9004302a900cb
:1015480042c2a80042a2a800300020004222b700f0
:1015580034ff2f0015128000050262000440a0002d
:101568001412880041e2a80000000600f60b2000d3
:10157800143a800004036300640420007505200009
:1015880027742000844b7800854b7800864b7800c0
:10159800f60f2e004736800007036300077020000f
:1015a800070373004636880006fe2f004736800082
:1015b800070363000630a00046368800163a80000c
:1015c8000660a00027742000844b7800854b7800c3
:1015d800864b780000000600e4ff0700d3ff0700f1
:1015e800000006000080fb00401288004002ab00ab
:1015f800feff320040128000000006002c00fa00b6
:10160800889fbe005200070000202c001100200017
:10161800c8fd070004fd2f0004824700253a280072
:101628000d000900355a78000f0378002602b10032
:1016380006000900001beb00005beb0073825700fb
:101648000d000900005aeb00e2fd2f000f014100d8
:10165800e100200000fd2f000f00400028ff0700d8
:1016680073815700f1002000e0fd2f000f004000bb
:101678003fff0700f3845700b5fd0700e04f500017
:10168800fdff3200b8fd0700e8fd2f000f044400fd
:1016980038407800c3fd0700890f5400fcff3a006a
:1016a80025168000c42ade008582ea00e1826200f5
:1016b800c42add00f4fe2f00261680000602620010
:1016c8000502720024168800ebff37002ca3ef00f8
:1016d800c082a9000000060004082000343a8800ef
:1016e80044002000243a8800a50920003600200084
:1016f8008407200037742000844b7800854b7800dd
:10170800864b780075052000160020006404200030
:1017180027742000844b7800854b7800864b78002e
:101728000600270005002300173a8000070263001f
:10173800850f5200fcff3a0005022000163a80008f
:1017480006826200e00f5200fcff32000000060033
:0c175800e1ff0700ddff070000000600b5
:020000040000fa
:10176400840800000e0000000200000000000000d9
:101774000000000000000000000000000000000065
:10178400804700003000000000000000c047000057
:101794003000000000000000920800000800000073
:1017a40000000000000800008400000000000000a9
:0417b4000000000031
:00000001FF
