:020000040000fa
:080000000002040000000000f2
:020000040000fa
:100008001a0300001a0300001a0300001a03000074
:100018001a0300001a0300001a0300001a03000064
:100028001a0300003a0400001a030000b41000008c
:10003800a60a0000760400001a0300001a03000054
:100048001a0300001a0300001a0300004c0c0000f9
:100058009e0c00001a0300001a0300001a03000097
:100068001a0300001a0300001a0300001a03000014
:100078001a0300001a0300001a0300001a03000004
:100088001a0300001a0300001a0300001a030000f4
:100098001a0300001a0300001a0300001a030000e4
:1000a8001a0300001a0300001a0300001a030000d4
:1000b8001a0300001a0300001a0300001a030000c4
:1000c8001a0300001a0300001a0300001a030000b4
:1000d8001a0300001a0300001a0300001a030000a4
:1000e8001a0300001a0300001a0300001a03000094
:1000f8001a0300001a0300001a0300001a03000084
:100108001a0300001a0300001a0300001a03000073
:100118001a0300001a0300001a0300001a03000063
:100128001a0300001a0300001a0300001a03000053
:100138001a0300001a0300001a0300001a03000043
:100148001a0300001a0300001a0300001a03000033
:100158001a0300001a0300001a0300001a03000023
:100168001a0300001a0300001a0300001a03000013
:100178001a0300001a0300001a0300001a03000003
:100188001a0300001a0300001a0300001a030000f3
:100198001a0300001a0300001a0300001a030000e3
:1001a8001a0300001a0300001a0300001a030000d3
:1001b8001a0300001a0300001a0300001a030000c3
:1001c8001a0300001a0300001a0300001a030000b3
:1001d8001a0300001a0300001a0300001a030000a3
:1001e8001a0300001a0300001a0300001a03000093
:0801f8001a0300001a030000c5
:020000040000fa
:100208001a0300001a0300001a0300001a03000072
:100218001a0300001a0300001a0300001a03000062
:100228001a0300003a0400001a030000b41000008a
:10023800a60a0000760400001a0300001a03000052
:100248001a0300001a0300001a0300004c0c0000f7
:100258009e0c00001a0300001a0300001a03000095
:100268001a0300001a0300001a0300001a03000012
:100278001a0300001a0300001a0300001a03000002
:100288001a0300001a0300001a0300001a030000f2
:100298001a0300001a0300001a0300001a030000e2
:1002a8001a0300001a0300001a0300001a030000d2
:1002b8001a0300001a0300001a0300001a030000c2
:1002c8001a0300001a0300001a0300001a030000b2
:1002d8001a0300001a0300001a0300001a030000a2
:1002e8001a0300001a0300001a0300001a03000092
:1002f8001a0300001a0300001a0300001a03000082
:100308001a0300001a0300001a0300001a03000071
:100318001a0300001a0300001a0300001a03000061
:100328001a0300001a0300001a0300001a03000051
:100338001a0300001a0300001a0300001a03000041
:100348001a0300001a0300001a0300001a03000031
:100358001a0300001a0300001a0300001a03000021
:100368001a0300001a0300001a0300001a03000011
:100378001a0300001a0300001a0300001a03000001
:100388001a0300001a0300001a0300001a030000f1
:100398001a0300001a0300001a0300001a030000e1
:1003a8001a0300001a0300001a0300001a030000d1
:1003b8001a0300001a0300001a0300001a030000c1
:1003c8001a0300001a0300001a0300001a030000b1
:1003d8001a0300001a0300001a0300001a030000a1
:1003e8001a0300001a0300001a0300001a03000091
:0803f8001a0300001a030000c3
:020000040000fa
:10040000ef8d20000e7724000e0188000000000010
:10041000000020000000e000020032000001200087
:10042000200288000c00070080fb20000100200053
:1004300011000700000020000000e0000200320070
:100440000000020000000000761002000000000022
:100450000040da000000fe004440a90080032000b4
:100460000000e0000300320000002000a00188002e
:100470004440a80000000600910188008000780038
:100480000000eb0015003700e280400032a0b4000d
:100490009101ba00e280400032a0b4009102ba009b
:1004a000e280400032a0b4000002eb00472bde00e7
:1004b000f507b200602ce10004003a000059eb009f
:1004c0008301e900fdff3e00040037006128e100e0
:1004d000010032000082eb00040007001101ba00a5
:1004e0000200e000e8ff3a00000006003159ba00bf
:1004f0008301e9000c0032002159ba008301e900b0
:10050000080032000400e00003003a00e2804000ee
:1005100032a0b400f5ff370011d9ba008301e90019
:10052000faff3a008100e800e180400032a0b40008
:1005300000000600b204040000000000f004040003
:100540000000000030050400000000006e050400fb
:1005500000000000c805040000000000da050400e7
:1005600000000000f0050400000000000206040086
:100570000000000018060400000000002a06040025
:1005800000000000400604000000000052060400c5
:100590000000000068060400000000007a06040065
:1005a000000000009006040000000000a206040005
:1005b00000000000bc06040000000000ce0604009d
:1005c00000000000e406040000000000f60604003d
:1005d000000000000c070400000000001e070400db
:1005e000000000003407040000000000460704007b
:1005f000000000005c070400000000006e0704001b
:1006000000000000840704000000000096070400ba
:1006100000000000ac07040000000000be0704005a
:1006200000000000920d040000000000e60d040030
:10063000000000000040da000000fe006022b80068
:10064000060220000000d0008180d2000482d20087
:100650008582d2000000a0000202520083825a006c
:10066000030031000202420083824a000000a10020
:0c0670000603e900f3ff3a00000006005a
:020000040000fa
:10067c00c8050000da050000f005000002060000c5
:10068c00180600002a060000400600005206000072
:10069c00680600007a06000090060000a206000022
:1006ac00bc060000ce060000e4060000f6060000c2
:1006bc000c0700001e07000034070000460700006e
:1006cc005c0700006e07000084070000960700001e
:1006dc00ac070000be070000010400001040000041
:020000040000fa
:1006ec000400fa00000f7800214798001e027800e1
:1006fc0084024200248b2000048242001402780001
:10070c002e409000040001001e027800840242007a
:10071c00a48a200004824200140278000502200002
:10072c00050a780004032800940888000080fa0069
:10073c00000006000400fa00000f78001107980072
:10074c00848a20001e024200144278000482fb00be
:10075c0015002000042add000482ea0084027800df
:10076c00240480000482620024048800848a20000f
:10077c001e024200144278000482fb001500200087
:10078c00042add0084027800a404800005027200b3
:10079c00a40488001e02780084024200a48a20006f
:1007ac0004824200940278001e0278000403420086
:1007bc00a48a200004024300140278001403780079
:1007cc001e02900006027200840a78000080fa0073
:1007dc00000006000200fa00000f7800848a200056
:1007ec001e024200144278000482fb001500200017
:1007fc00042add000482ea008402780024048000cc
:10080c000482620024048800848a20001e024200b4
:10081c00144278000482fb0015002000042add003d
:10082c000482ea0084027800a4048000048262003e
:10083c00a40488000080fa00000006000400fa00fe
:10084c0010079800458d20001e0290000402420003
:10085c0004824200140f78001e0278000400780015
:10086c000080fa0000000600849fbe000400fa001d
:10087c00040a8000040f7800040a80001407980012
:10088c009e0290001e027800848f520006003600f3
:10089c009e0290001e02780084825200448d20003b
:1008ac00050a780007003700750880001e027800e2
:1008bc00848252001e02900084824200448d2000eb
:1008cc00050a780025048000d4ff2f000482620002
:1008dc00240488000080fa004f02be00004006008d
:1008ec00849fbe000400fa00240a8000040f7800e4
:1008fc00240a8000140798009e0290001e027800c3
:10090c00848f5200060036009e0290001e02780072
:10091c0084825200448d2000150298000700370095
:10092c00750880001e027800848252001e0290001e
:10093c0084824200448d200015029800250480001a
:10094c00f4fd2f0004826200240488000080fa0069
:10095c004f02be00004006000200fa00004f780073
:10096c00153a8000f40b200004836200640420001c
:10097c007505200027742000844b7800854b780087
:10098c00864b78009e4278007fc262000482fb0096
:10099c007f0262007634800005fe2f008502630022
:1009ac000502720074348800153a8000040420009b
:1009bc0005037200640420007505200027742000d4
:1009cc00844b7800854b7800864b78000080fa00c9
:1009dc00000006000200fa00004f7800153a800073
:1009ec00f40b2000048362006404200075052000d1
:1009fc0027742000844b7800854b7800864b780058
:100a0c009e4278007fc262000482fb007f0262007b
:100a1c004822dd0076348000f50f2e00850263003d
:100a2c000502720074348800153a8000040420001a
:100a3c000503720064042000750520002774200053
:100a4c00844b7800854b7800864b78000080fa0048
:100a5c00000006000200fa00004f7800153a8000f2
:100a6c00f40b200004836200640420007505200050
:100a7c0027742000844b7800854b7800864b7800d7
:100a8c009e4278007fc262000482fb007f026200fb
:100a9c00a634800005fe2f0085026300050272005b
:100aac00a4348800153a8000040420000503720069
:100abc00640420007505200027742000844b780006
:100acc00854b7800864b78000080fa000000060009
:100adc000200fa00004f7800153a8000f40b200059
:100aec000483620064042000750520002774200034
:100afc00844b7800854b7800864b78009e427800ba
:100b0c007fc262000482fb007f0262004822dd008b
:100b1c00a6348000f50f2e008502630005027200da
:100b2c00a4348800153a80000404200005037200e8
:100b3c00640420007505200027742000844b780085
:100b4c00854b7800864b78000080fa000000060088
:100b5c000200fa00004f7800114798009e4278007e
:100b6c000582fb0084024200e43328000482420028
:100b7c00140278001e409000040001000080fa006e
:100b8c00000006000200fa00004f78001e427800b8
:100b9c008482fb0004368000050272000436880053
:100bac000080fa00000006000200fa00004f7800f6
:100bbc009e4278000582fb004822dd00840278000a
:100bcc000436800005027200043688000080fa00aa
:100bdc00000006000200fa00004f78001e42780068
:100bec008482fb00143680000502720014368800e3
:100bfc000080fa00000006000200fa00004f7800a6
:100c0c009e4278000582fb004822dd0084027800b9
:100c1c001436800005027200143688000080fa0039
:100c2c00000006000200fa00004f78001e42780017
:100c3c008482fb0024368000050272002436880072
:100c4c000080fa00000006000200fa00004f780055
:100c5c009e4278000582fb004822dd008402780069
:100c6c002436800005027200243688000080fa00c9
:100c7c00000006000200fa00004f78001e427800c7
:100c8c008482fb0034368000050272003436880002
:100c9c000080fa00000006000200fa00004f780005
:100cac009e4278000582fb004822dd008402780019
:100cbc003436800005027200343688000080fa0059
:100ccc00000006000200fa00004f78001e42780077
:100cdc008482fb0044368000050272004436880092
:100cec000080fa00000006000200fa00004f7800b5
:100cfc009e4278000582fb004822dd0084027800c9
:100d0c004436800005027200443688000080fa00e8
:100d1c00000006000200fa00004f78001e42780026
:100d2c008482fb0054368000050272005436880021
:100d3c000080fa00000006000200fa00004f780064
:100d4c009e4278000582fb004822dd008402780078
:100d5c005436800085027200f40f200005027200e8
:100d6c00543688000080fa00000006000200fa00e9
:100d7c00004f78001e4278008482fb0064368000ad
:100d8c0005027200643688000080fa00000006003c
:100d9c000200fa00004f78009e4278000582fb00aa
:100dac004822dd008402780064368000050272005f
:100dbc00643688000080fa00000006000200fa0089
:100dcc00004f78001e4278008482fb00743680004d
:100ddc0005027200743688000080fa0000000600dc
:100dec000200fa00004f78009e4278000582fb005a
:100dfc004822dd00840278007436800005027200ff
:100e0c00743688000080fa00000006000200fa0028
:100e1c00004f78001e4278008482fb0084368000ec
:100e2c0005027200843688000080fa00000006007b
:100e3c000200fa00004f78009e4278000582fb0009
:100e4c004822dd008402780084368000050272009e
:100e5c00843688000080fa00000006000200fa00c8
:100e6c00004f78001e4278008482fb00943680008c
:100e7c0005027200943688000080fa00000006001b
:100e8c000200fa00004f78009e4278000582fb00b9
:100e9c004822dd008402780094368000050272003e
:100eac00943688000080fa00000006000200fa0068
:100ebc00004f78001e4278008482fb00a43680002c
:100ecc0005027200a43688000080fa0000000600bb
:100edc000200fa00004f78009e4278000582fb0069
:100eec004822dd0084027800a436800005027200de
:100efc00a43688000080fa00000006000200fa0008
:100f0c00004f78001e4278008482fb00b4368000cb
:100f1c0005027200b43688000080fa00000006005a
:100f2c000200fa00004f78009e4278000582fb0018
:100f3c004822dd0084027800b4368000050272007d
:100f4c00b43688000080fa00000006000200fa00a7
:100f5c00004f78001e4278008482fb00c43680006b
:100f6c0005027200c43688000080fa0000000600fa
:100f7c000200fa00004f78009e4278000582fb00c8
:100f8c004822dd0084027800c4368000050272001d
:100f9c00c43688000080fa00000006000200fa0047
:100fac00000f78001e027800e40f520015003e007e
:100fbc001e02780084024200a488200004824200b1
:100fcc00140278008002eb00050a78001e027800fb
:100fdc0084024200448920000482420014027800fa
:100fec008002eb00050a78001e02780084024200a1
:100ffc00e489200004824200140278008002eb0095
:10100c00050a78000080fa00000006000400fa00cf
:10101c00000f7800110798001e027800840242002d
:10102c00a488200004824200940278001e027800fa
:10103c0004034200a4882000040243001402780038
:10104c00140378000403200006027200840a78005e
:10105c009e02900004192000848f5200020036007a
:10106c0004192000140798001e0278008402420024
:10107c00e489200004824200140278008002eb0014
:10108c00050a78001e027800840242004489200080
:10109c0004824200140378009e029000c4092000d0
:1010ac0004aab90004027800040b78000080fa004e
:1010bc00000006000400fa00000f780011079800e9
:1010cc001e02780084024200a488200004824200a0
:1010dc00940278001e02780004034200a4882000c9
:1010ec00040243001402780014037800f4fc2f006f
:1010fc0004026300840a78009e029000743e200073
:10110c00848f520002003600743e200014079800b1
:10111c001e02780084024200e4892000048242000e
:10112c00140278008002eb00050a78001e02780099
:10113c008402420044892000048242001403780097
:10114c009e0290008402200004aab90004027800d8
:10115c00040b78000080fa00000006000200fa0080
:10116c00000f78001e02780084024200a488200040
:10117c0004824200940278001e02780004034200ac
:10118c00a4882000040243001402780014037800a1
:10119c000400280006027200840a78001e027800ff
:1011ac00e20f520016003e00448820001e0242004e
:1011bc00144278000482fb0015002000042add0094
:1011cc000482ea0084027800240480000482620015
:1011dc0024048800448820001e0242001442780037
:1011ec000482fb0015002000042add008402780034
:1011fc00a404800005027200a404880015003700c6
:10120c00448820001e024200144278000482fb0035
:10121c0015002000042add000482ea008402780014
:10122c003404800004826200340488004488200066
:10123c001e024200144278000482fb0015002000bc
:10124c00042add0084027800b404800005027200d8
:10125c00b40488000080fa00000006000200fa00c6
:10126c00000f78001e02780084024200a48820003f
:10127c0004824200940278001e02780004034200ab
:10128c00a4882000040243001402780014037800a0
:10129c00f4ff270004026300840a78001e02780021
:1012ac00e20f520017003e00448820001e0242004c
:1012bc00144278000482fb0015002000042add0093
:1012cc000482ea0084027800240480000482620014
:1012dc0024048800448820001e0242001442780036
:1012ec000482fb0015002000042add000482ea00c1
:1012fc0084027800a404800004826200a4048800a4
:10130c0016003700448820001e0242001442780068
:10131c000482fb0015002000042add000482ea0090
:10132c008402780034048000048262003404880053
:10133c00448820001e024200144278000482fb0004
:10134c0015002000042add000482ea0084027800e3
:10135c00b404800004826200b40488000080fa00a7
:10136c00000006000400fa00000f78001107980036
:10137c001e02780015002000042add000482ea0019
:10138c008402780064198000048262006419880069
:10139c001e02900015002000042add000482ea00e1
:1013ac008402780064198000048262006419880049
:1013bc001e02780015002000042add00840278004b
:1013cc008419800005027200841988001e029000a6
:1013dc0015002000042add008402780084198000a6
:1013ec00050272008419880020c0b3002500070094
:1013fc003b00070025048000f4ff2d0004826200ee
:10140c0024048800a5048000f4ff2d0004826200ef
:10141c00a40488000080fa00000006000000fa0016
:10142c0005198000040028000502720004198800c8
:10143c0081e3a8000080fa00000006000000fa001a
:10144c0005198000f4ff270004826200041988004b
:10145c0081e3a9000080fa00000006000200fa00f7
:10146c00000f78001e02780084024200a48b20003a
:10147c000482420014027800040078000080fa0014
:10148c00000006000400fa00204798002e4290004d
:10149c00044fe900440e2000041988009e42780095
:1014ac000582fb004222dd0084027800044020000b
:1014bc000502720014198800f4f321002419880025
:1014cc0024002000941988000002eb0034198800d5
:1014dc000002eb00441988000080fa0000000600ae
:1014ec000000fa00041c80000440a1000450a0007d
:1014fc00041c8800041c80000400a1000410a0003f
:10150c00041c880004302000441c88007401200056
:10151c00541c8800d4002000141c8800047820007f
:10152c00241c8800047c2000341c88008480a900c2
:10153c009480a80081e3a9000080fa000000060056
:10154c003600f800809fbe00829fbe00849fbe00c4
:10155c00869fbe000000fa00648c200014427800c4
:10156c00e04f52001e003a0004782400a18b2000aa
:10157c00040078004500070004782400680242004b
:10158c00c18b200004007800400007000478240080
:10159c0070024200e18b2000040078003b00070041
:1015ac000478240078024200018c200004007800aa
:1015bc0036000700047824000402b000218c2000bf
:1015cc000400780031000700047824008402b00085
:1015dc00418c2000040078002c0007001d0037000f
:1015ec00047c2400a18b2000040078002700070055
:1015fc00047c240068024200c18b200004007800a7
:10160c0022000700047c240070024200e18b2000c1
:10161c00040078001d000700047c240078024200be
:10162c00018c2000040078001800070004782400c6
:10163c000402b000218c2000040078001300070085
:10164c00047824008402b000418c2000040078004f
:10165c000e000700648c2000144278000404a200e1
:10166c0004437800658c2000864a78008480a900a9
:10167c000080fa004f03be004f02be004f01be00b7
:10168c004f00be003600f900004006000800fa00ca
:10169c0020079800310798000042eb00044f7800b7
:1016ac000002eb00140798000b0037002e0290008c
:1016bc00940278001e0290000482420014079800e5
:1016cc001e4278000442e800044f78002e0290007d
:1016dc000482e800240798001e427800e34f520071
:1016ec00f2ff36001e029000c222de003e02900085
:1016fc00050a78000080fa00000006000400fa00d9
:10170c00008fbe002f0007001e00be004d0007001a
:10171c000080fa00000006000000fa00058420009a
:10172c0095427800148420001442780004c26a00a8
:10173c000482fb000402ea004f22de00044278001f
:10174c00044078000080fa00000006000200fa0055
:10175c000042eb00044f780000802000940007004a
:10176c0000427800e04f520004003200008020005c
:10177c00ac00070000427800044f78001e4278004d
:10178c00044078000080fa00000006000200fa0015
:10179c00004f78002084200085000700004278006c
:1017ac00f5c3b300854f520004003e009e40780004
:1017bc0020842000880007009580a8000080fa0093
:1017cc00000006000000fa00153a8000f40b20001f
:1017dc000483620064042000750520002774200037
:1017ec00844b7800854b7800864b7800253580003b
:1017fc0004fe2f0004826200a400b300243588008c
:10180c0055368000f40f2e008482620004302000d4
:10181c000502720054368800153a8000040420003a
:10182c000503720064042000750520002774200055
:10183c00844b7800854b7800864b78000080fa004a
:10184c00000006000400fa00008fbe001e01be005e
:10185c00006021006102200075fb07000002be0041
:10186c00040278000402e9004411880004002800f6
:10187c000411880004402000141188008560a90020
:10188c009560a8000080fa0000000600849fbe004e
:10189c00861f78000200fa008560a90034118000d0
:1018ac0004427800044f780004842000144278002d
:1018bc008482fb0014842000144278000482fb0014
:1018cc000482520084027800f4032000848f5200ba
:1018dc0013003e000484200014427800f443b2004c
:1018ec000443780005842000864a78000484200094
:1018fc00144278000483fb009e4278000480200090
:10190c0004024300054a7800048420001442780045
:10191c000442e8000443780005842000864a7800dd
:10192c000080fa004f0378004f02be000040060012
:10193c00849fbe00861f78000000fa0025882000d6
:10194c0095427800348820001442780084cf5200ed
:10195c001200320034882000144278008482fb008c
:10196c00f40320008482620024842000048242005c
:10197c00144278000482fb00241188003488200073
:10198c00144278000442e8000443780035882000b3
:10199c00864a78008580a900010037009580a9004f
:1019ac000080fa004f0378004f02be000040060092
:1019bc000200fa00000f78001e02780084c290002a
:1019cc001e02780014c2900004c252000440780039
:1019dc000080fa00000006000400fa00000f7800f6
:1019ec00214798009e0278001e02780004c29000e5
:1019fc000483fb00f4032000040263000482420011
:101a0c00ae429000054a78001e02780004c2900095
:101a1c008442e8001e02780005c298000080fa009b
:101a2c00000006000400fa00100798009e029000c7
:101a3c001e02900014c290000483fb00f4032000eb
:101a4c00040263000482420014427800044f7800c0
:101a5c001e02900014c290008442e8001e02900006
:101a6c0015c298001e427800044078000080fa00ed
:101a7c00000006000600fa00000f780021479800cd
:101a8c0032479800230798001e0278008402420017
:101a9c00048d20000482420014027800be409000a5
:101aac002e409000040001001e02780084024200c7
:101abc00848c20000482420014027800ae02900054
:101acc00482bdd004504200086827200050a780050
:101adc000080fa00000006000400fa00000f7800f5
:101aec00110798000080fa00000006000200fa00be
:101afc00000f78001e02780084024200c48c200083
:101b0c000482420014027800140278000400780069
:101b1c000080fa00000006000200fa00004f780076
:101b2c0011479800153a8000f40b200004836200e2
:101b3c00640420007505200027742000844b780075
:101b4c00854b7800864b78009e4278007fc26200fd
:101b5c000482fb007f026200e634800005fe2f0049
:101b6c008502630005027200e43488001e42900076
:101b7c007f4262000482fb007f0262004822dd008b
:101b8c00e6348000f50f2e0085026300050272001a
:101b9c00e4348800153a8000040420000503720028
:101bac00640420007505200027742000844b780005
:101bbc00854b7800864b78000080fa000000060008
:101bcc000200fa00004f780011479800153a800087
:101bdc00f40b2000048362006404200075052000cf
:101bec0027742000844b7800854b7800864b780056
:101bfc009e4278007fc262000482fb007f0262007a
:101c0c000635800005fe2f00850263000502720078
:101c1c00043588001e4290007f4262000482fb0063
:101c2c007f0262004822dd0006358000f50f2e0091
:101c3c00850263000502720004358800153a8000a5
:101c4c0004042000050372006404200075052000c4
:101c5c0027742000844b7800854b7800864b7800e5
:101c6c000080fa00000006000400fa00000f780063
:101c7c00110798001e009000440007009e00900081
:101c8c001e0078004c0007000080fa0000000600df
:101c9c000800fa002007980031079800641d200006
:101cac00040f7800841d2000140798002e02900069
:101cbc00040242006e027a00be029000050a78000f
:101ccc000080fa00000006000c00fa0040079800a3
:101cdc0051079800240e80000402e8000402420020
:101cec000500200024079800350798005e0290003c
:101cfc006123b8002e029000be02900004b8b90017
:101d0c000000780006a9b9008200780001004000ac
:101d1c0006037800040278000432b8000500400085
:101d2c008002780042062000030020000400be0060
:101d3c003ffa07000002be00048fbe001e027800ae
:101d4c00840078004e009000d1ff07000080fa005c
:101d5c00000006000000fa00050e800004002800b8
:101d6c0005027200040e88000080fa0000000600d4
:101d7c000000fa00050e8000f4ff270004826200c8
:101d8c00040e88000080fa00000006000200fa0031
:101d9c00000f78001e0278004222dd00040e88003d
:101dac0034032000440e880064002000540e880088
:101dbc000080fa00000006000a00fa0030079800c4
:101dcc0041079800620247002537280003000900ec
:101ddc00355a78003e0290006123b8008e82e800ec
:101dec004e02900004824200144278000482fb00f0
:101dfc000500200004b8b9000000780006a9b9005d
:101e0c00820078000100400006037800040278008c
:101e1c000432b80005004000800278000401be00c6
:101e2c00000026001126200001fa07000002be0067
:101e3c0004027800040fe9001e027800240e8800ca
:101e4c000080fa00000006000000fa00153a80003d
:101e5c00f40b20000483620064042000750520004c
:101e6c0027742000844b7800854b7800864b7800d3
:101e7c0045368000f40f2e0084826200047020002e
:101e8c0005027200443688004536800004fe2f009f
:101e9c00048262000430a00044368800153a8000a9
:101eac000404200005037200640420007505200062
:101ebc0027742000844b7800854b7800864b780083
:101ecc000080fa00000006000000fa0041e2a900c0
:101edc004382a9004362a9004342a9004302a9001e
:101eec0042c2a80042a2a800141280000400a00064
:101efc000410a00014128800141280000420a10009
:101f0c000430a1000440a0001412880041e2a80093
:101f1c000080fa00000006000000fa00caff07006b
:101f2c00e9ff07000080fa00000006000200fa003a
:101f3c00004f78009e4278000582fb004412880016
:101f4c00000000000412800061026200e00f5200e9
:101f5c00fcff320044128000040078000080fa007c
:041f6c00000006006b
:020000040000fa
:101f7000804700003000000000000000c047000063
:101f80003000000000000000ba0800000e00000051
:101f900000000000a808000012000000020000007d
:101fa00001054200014601005a015e0001b2040031
:101fb000f0043000056e0500d408000008000000a1
:101fc00000000000c80800000c0000000200000033
:101fd000e001f00001e40100f40192000de60d00c3
:101fe000840800002400000002000000030708002d
:101ff0000b0c000004011000011201001e01200062
:10200000010201000c010e00011a01001c01000078
:10201000010601000a011400011801000008000077
:102020008400000000000000dc0800000200000046
:082030000000000000000000a8
:020000040000fa
:102038000000fa0003000700240007000080fa00ef
:10204800000006000000fa0004082000343a880066
:1020580044002000243a880036002000840720002d
:10206800a509200037742000844b7800854b780040
:10207800864b7800160020006404200075052000b7
:1020880027742000844b7800854b7800864b7800b5
:1020980000000000153a80000400270084826200d6
:1020a80004002300848f5200faff3a000000000069
:1020b800153a80000402200004826200e00f5200fa
:1020c800fbff32000080fa00000006000000fa0062
:1020d8000082eb0064198800c082a9000080fa0021
:1020e800000006000000fa00d1ff07000000eb0026
:1020f800abfb0700110020000000eb00c4fb070049
:102108000000eb0016fc070031002000200320002f
:10211800d6fe0700210320000000eb00ebfe0700bd
:102128002103200010002000e8fe07000aff070036
:102138000100370000000000e5468000843e2000d2
:10214800848f5200fbff36000002eb00e446880053
:10215800241680000440a20024168800f6ff3700e9
:10216800849fbe000000fa002504800074ff2f0041
:102178000482620024048800e44680000402e80027
:10218800e44688000080fa004f02be0000400600c6
:020000040000fa
:0200000401f009
:04000000ffff0000fe
:020000040000fa
:0200000401f009
:04000400ffff0000fa
:020000040000fa
:0200000401f009
:04000800ffff0000f6
:020000040000fa
:0200000401f009
:04000c0000000000f0
:020000040000fa
:0200000401f009
:0400100046000000a6
:020000040000fa
:0200000401f009
:040014005f00000089
:020000040000fa
:0200000401f009
:04001800f7000000ed
:020000040000fa
:0200000401f009
:04001c00dfff000002
:00000001FF
